{
	"contracts/nftmarket.sol": {
		"Market": {
			"abi": [
				{
					"inputs": [
						{
							"internalType": "address",
							"name": "_erc20Address",
							"type": "address"
						}
					],
					"stateMutability": "nonpayable",
					"type": "constructor"
				},
				{
					"anonymous": false,
					"inputs": [
						{
							"indexed": true,
							"internalType": "address",
							"name": "contractAddress",
							"type": "address"
						},
						{
							"indexed": true,
							"internalType": "address",
							"name": "buyer",
							"type": "address"
						},
						{
							"indexed": true,
							"internalType": "uint256",
							"name": "tokenId",
							"type": "uint256"
						},
						{
							"indexed": false,
							"internalType": "uint256",
							"name": "price",
							"type": "uint256"
						}
					],
					"name": "Deal",
					"type": "event"
				},
				{
					"anonymous": false,
					"inputs": [
						{
							"indexed": true,
							"internalType": "address",
							"name": "contractAddress",
							"type": "address"
						},
						{
							"indexed": true,
							"internalType": "address",
							"name": "seller",
							"type": "address"
						},
						{
							"indexed": true,
							"internalType": "uint256",
							"name": "tokenId",
							"type": "uint256"
						},
						{
							"indexed": false,
							"internalType": "uint256",
							"name": "price",
							"type": "uint256"
						}
					],
					"name": "NewOrder",
					"type": "event"
				},
				{
					"anonymous": false,
					"inputs": [
						{
							"indexed": true,
							"internalType": "address",
							"name": "contractAddress",
							"type": "address"
						},
						{
							"indexed": true,
							"internalType": "address",
							"name": "seller",
							"type": "address"
						},
						{
							"indexed": true,
							"internalType": "uint256",
							"name": "tokenId",
							"type": "uint256"
						}
					],
					"name": "OrderCanceled",
					"type": "event"
				},
				{
					"anonymous": false,
					"inputs": [
						{
							"indexed": true,
							"internalType": "address",
							"name": "contractAddress",
							"type": "address"
						},
						{
							"indexed": true,
							"internalType": "address",
							"name": "seller",
							"type": "address"
						},
						{
							"indexed": true,
							"internalType": "uint256",
							"name": "tokenId",
							"type": "uint256"
						},
						{
							"indexed": false,
							"internalType": "uint256",
							"name": "oldPrice",
							"type": "uint256"
						},
						{
							"indexed": false,
							"internalType": "uint256",
							"name": "newPrice",
							"type": "uint256"
						}
					],
					"name": "PriceChanged",
					"type": "event"
				},
				{
					"inputs": [
						{
							"internalType": "address",
							"name": "_contractAddress",
							"type": "address"
						},
						{
							"internalType": "uint256",
							"name": "_tokenId",
							"type": "uint256"
						}
					],
					"name": "buy",
					"outputs": [],
					"stateMutability": "nonpayable",
					"type": "function"
				},
				{
					"inputs": [
						{
							"internalType": "address",
							"name": "_contractAddress",
							"type": "address"
						},
						{
							"internalType": "uint256",
							"name": "_tokenId",
							"type": "uint256"
						},
						{
							"internalType": "uint256",
							"name": "_price",
							"type": "uint256"
						}
					],
					"name": "changePrice",
					"outputs": [],
					"stateMutability": "nonpayable",
					"type": "function"
				},
				{
					"inputs": [
						{
							"internalType": "address",
							"name": "",
							"type": "address"
						},
						{
							"internalType": "uint256",
							"name": "",
							"type": "uint256"
						}
					],
					"name": "contractOrders",
					"outputs": [
						{
							"internalType": "address",
							"name": "contractAddress",
							"type": "address"
						},
						{
							"internalType": "uint256",
							"name": "tokenId",
							"type": "uint256"
						},
						{
							"internalType": "address",
							"name": "seller",
							"type": "address"
						},
						{
							"internalType": "uint256",
							"name": "price",
							"type": "uint256"
						}
					],
					"stateMutability": "view",
					"type": "function"
				},
				{
					"inputs": [],
					"name": "erc20",
					"outputs": [
						{
							"internalType": "contract IERC20",
							"name": "",
							"type": "address"
						}
					],
					"stateMutability": "view",
					"type": "function"
				},
				{
					"inputs": [
						{
							"internalType": "address",
							"name": "_contractAddress",
							"type": "address"
						}
					],
					"name": "getOrderLength",
					"outputs": [
						{
							"internalType": "uint256",
							"name": "",
							"type": "uint256"
						}
					],
					"stateMutability": "view",
					"type": "function"
				},
				{
					"inputs": [
						{
							"internalType": "address",
							"name": "_contractAddress",
							"type": "address"
						},
						{
							"internalType": "uint256",
							"name": "_tokenId",
							"type": "uint256"
						},
						{
							"internalType": "uint256",
							"name": "_price",
							"type": "uint256"
						}
					],
					"name": "listNFT",
					"outputs": [],
					"stateMutability": "nonpayable",
					"type": "function"
				},
				{
					"inputs": [],
					"name": "marketOwner",
					"outputs": [
						{
							"internalType": "address",
							"name": "",
							"type": "address"
						}
					],
					"stateMutability": "view",
					"type": "function"
				},
				{
					"inputs": [
						{
							"internalType": "address",
							"name": "",
							"type": "address"
						},
						{
							"internalType": "uint256",
							"name": "",
							"type": "uint256"
						}
					],
					"name": "orderOfTokenId",
					"outputs": [
						{
							"internalType": "address",
							"name": "contractAddress",
							"type": "address"
						},
						{
							"internalType": "uint256",
							"name": "tokenId",
							"type": "uint256"
						},
						{
							"internalType": "address",
							"name": "seller",
							"type": "address"
						},
						{
							"internalType": "uint256",
							"name": "price",
							"type": "uint256"
						}
					],
					"stateMutability": "view",
					"type": "function"
				},
				{
					"inputs": [
						{
							"internalType": "address",
							"name": "",
							"type": "address"
						},
						{
							"internalType": "uint256",
							"name": "",
							"type": "uint256"
						}
					],
					"name": "tokenIdToIndex",
					"outputs": [
						{
							"internalType": "uint256",
							"name": "",
							"type": "uint256"
						}
					],
					"stateMutability": "view",
					"type": "function"
				},
				{
					"inputs": [
						{
							"internalType": "address",
							"name": "_contractAddress",
							"type": "address"
						},
						{
							"internalType": "uint256",
							"name": "_tokenId",
							"type": "uint256"
						}
					],
					"name": "unlistNFT",
					"outputs": [],
					"stateMutability": "nonpayable",
					"type": "function"
				}
			],
			"devdoc": {
				"kind": "dev",
				"methods": {},
				"version": 1
			},
			"evm": {
				"assembly": "    /* \"contracts/nftmarket.sol\":172:5334  contract Market {... */\n  mstore(0x40, 0x80)\n    /* \"contracts/nftmarket.sol\":1229:1416  constructor(address _erc20Address) {... */\n  callvalue\n  dup1\n  iszero\n  tag_1\n  jumpi\n  0x00\n  dup1\n  revert\ntag_1:\n  pop\n  mload(0x40)\n  sub(codesize, bytecodeSize)\n  dup1\n  bytecodeSize\n  dup4\n  codecopy\n  dup2\n  dup2\n  add\n  0x40\n  mstore\n  dup2\n  add\n  swap1\n  tag_2\n  swap2\n  swap1\n  tag_3\n  jump\t// in\ntag_2:\n    /* \"contracts/nftmarket.sol\":1307:1308  0 */\n  0x00\n    /* \"contracts/nftmarket.sol\":1282:1309  _erc20Address != address(0) */\n  0xffffffffffffffffffffffffffffffffffffffff\n  and\n    /* \"contracts/nftmarket.sol\":1282:1295  _erc20Address */\n  dup2\n    /* \"contracts/nftmarket.sol\":1282:1309  _erc20Address != address(0) */\n  0xffffffffffffffffffffffffffffffffffffffff\n  and\n  sub\n    /* \"contracts/nftmarket.sol\":1274:1335  require(_erc20Address != address(0), \"erc20 address is zero\") */\n  tag_6\n  jumpi\n  mload(0x40)\n  0x08c379a000000000000000000000000000000000000000000000000000000000\n  dup2\n  mstore\n  0x04\n  add\n  tag_7\n  swap1\n  tag_8\n  jump\t// in\ntag_7:\n  mload(0x40)\n  dup1\n  swap2\n  sub\n  swap1\n  revert\ntag_6:\n    /* \"contracts/nftmarket.sol\":1360:1370  msg.sender */\n  caller\n    /* \"contracts/nftmarket.sol\":1346:1357  marketOwner */\n  0x00\n  dup1\n    /* \"contracts/nftmarket.sol\":1346:1370  marketOwner = msg.sender */\n  0x0100\n  exp\n  dup2\n  sload\n  dup2\n  0xffffffffffffffffffffffffffffffffffffffff\n  mul\n  not\n  and\n  swap1\n  dup4\n  0xffffffffffffffffffffffffffffffffffffffff\n  and\n  mul\n  or\n  swap1\n  sstore\n  pop\n    /* \"contracts/nftmarket.sol\":1395:1408  _erc20Address */\n  dup1\n    /* \"contracts/nftmarket.sol\":1380:1385  erc20 */\n  0x01\n  0x00\n    /* \"contracts/nftmarket.sol\":1380:1409  erc20 = IERC20(_erc20Address) */\n  0x0100\n  exp\n  dup2\n  sload\n  dup2\n  0xffffffffffffffffffffffffffffffffffffffff\n  mul\n  not\n  and\n  swap1\n  dup4\n  0xffffffffffffffffffffffffffffffffffffffff\n  and\n  mul\n  or\n  swap1\n  sstore\n  pop\n    /* \"contracts/nftmarket.sol\":1229:1416  constructor(address _erc20Address) {... */\n  pop\n    /* \"contracts/nftmarket.sol\":172:5334  contract Market {... */\n  jump(tag_9)\n    /* \"#utility.yul\":88:205   */\ntag_11:\n    /* \"#utility.yul\":197:198   */\n  0x00\n    /* \"#utility.yul\":194:195   */\n  dup1\n    /* \"#utility.yul\":187:199   */\n  revert\n    /* \"#utility.yul\":334:460   */\ntag_13:\n    /* \"#utility.yul\":371:378   */\n  0x00\n    /* \"#utility.yul\":411:453   */\n  0xffffffffffffffffffffffffffffffffffffffff\n    /* \"#utility.yul\":404:409   */\n  dup3\n    /* \"#utility.yul\":400:454   */\n  and\n    /* \"#utility.yul\":389:454   */\n  swap1\n  pop\n    /* \"#utility.yul\":334:460   */\n  swap2\n  swap1\n  pop\n  jump\t// out\n    /* \"#utility.yul\":466:562   */\ntag_14:\n    /* \"#utility.yul\":503:510   */\n  0x00\n    /* \"#utility.yul\":532:556   */\n  tag_26\n    /* \"#utility.yul\":550:555   */\n  dup3\n    /* \"#utility.yul\":532:556   */\n  tag_13\n  jump\t// in\ntag_26:\n    /* \"#utility.yul\":521:556   */\n  swap1\n  pop\n    /* \"#utility.yul\":466:562   */\n  swap2\n  swap1\n  pop\n  jump\t// out\n    /* \"#utility.yul\":568:690   */\ntag_15:\n    /* \"#utility.yul\":641:665   */\n  tag_28\n    /* \"#utility.yul\":659:664   */\n  dup2\n    /* \"#utility.yul\":641:665   */\n  tag_14\n  jump\t// in\ntag_28:\n    /* \"#utility.yul\":634:639   */\n  dup2\n    /* \"#utility.yul\":631:666   */\n  eq\n    /* \"#utility.yul\":621:684   */\n  tag_29\n  jumpi\n    /* \"#utility.yul\":680:681   */\n  0x00\n    /* \"#utility.yul\":677:678   */\n  dup1\n    /* \"#utility.yul\":670:682   */\n  revert\n    /* \"#utility.yul\":621:684   */\ntag_29:\n    /* \"#utility.yul\":568:690   */\n  pop\n  jump\t// out\n    /* \"#utility.yul\":696:839   */\ntag_16:\n    /* \"#utility.yul\":753:758   */\n  0x00\n    /* \"#utility.yul\":784:790   */\n  dup2\n    /* \"#utility.yul\":778:791   */\n  mload\n    /* \"#utility.yul\":769:791   */\n  swap1\n  pop\n    /* \"#utility.yul\":800:833   */\n  tag_31\n    /* \"#utility.yul\":827:832   */\n  dup2\n    /* \"#utility.yul\":800:833   */\n  tag_15\n  jump\t// in\ntag_31:\n    /* \"#utility.yul\":696:839   */\n  swap3\n  swap2\n  pop\n  pop\n  jump\t// out\n    /* \"#utility.yul\":845:1196   */\ntag_3:\n    /* \"#utility.yul\":915:921   */\n  0x00\n    /* \"#utility.yul\":964:966   */\n  0x20\n    /* \"#utility.yul\":952:961   */\n  dup3\n    /* \"#utility.yul\":943:950   */\n  dup5\n    /* \"#utility.yul\":939:962   */\n  sub\n    /* \"#utility.yul\":935:967   */\n  slt\n    /* \"#utility.yul\":932:1051   */\n  iszero\n  tag_33\n  jumpi\n    /* \"#utility.yul\":970:1049   */\n  tag_34\n  tag_11\n  jump\t// in\ntag_34:\n    /* \"#utility.yul\":932:1051   */\ntag_33:\n    /* \"#utility.yul\":1090:1091   */\n  0x00\n    /* \"#utility.yul\":1115:1179   */\n  tag_35\n    /* \"#utility.yul\":1171:1178   */\n  dup5\n    /* \"#utility.yul\":1162:1168   */\n  dup3\n    /* \"#utility.yul\":1151:1160   */\n  dup6\n    /* \"#utility.yul\":1147:1169   */\n  add\n    /* \"#utility.yul\":1115:1179   */\n  tag_16\n  jump\t// in\ntag_35:\n    /* \"#utility.yul\":1105:1179   */\n  swap2\n  pop\n    /* \"#utility.yul\":1061:1189   */\n  pop\n    /* \"#utility.yul\":845:1196   */\n  swap3\n  swap2\n  pop\n  pop\n  jump\t// out\n    /* \"#utility.yul\":1202:1371   */\ntag_17:\n    /* \"#utility.yul\":1286:1297   */\n  0x00\n    /* \"#utility.yul\":1320:1326   */\n  dup3\n    /* \"#utility.yul\":1315:1318   */\n  dup3\n    /* \"#utility.yul\":1308:1327   */\n  mstore\n    /* \"#utility.yul\":1360:1364   */\n  0x20\n    /* \"#utility.yul\":1355:1358   */\n  dup3\n    /* \"#utility.yul\":1351:1365   */\n  add\n    /* \"#utility.yul\":1336:1365   */\n  swap1\n  pop\n    /* \"#utility.yul\":1202:1371   */\n  swap3\n  swap2\n  pop\n  pop\n  jump\t// out\n    /* \"#utility.yul\":1377:1548   */\ntag_18:\n    /* \"#utility.yul\":1517:1540   */\n  0x65726332302061646472657373206973207a65726f0000000000000000000000\n    /* \"#utility.yul\":1513:1514   */\n  0x00\n    /* \"#utility.yul\":1505:1511   */\n  dup3\n    /* \"#utility.yul\":1501:1515   */\n  add\n    /* \"#utility.yul\":1494:1541   */\n  mstore\n    /* \"#utility.yul\":1377:1548   */\n  pop\n  jump\t// out\n    /* \"#utility.yul\":1554:1920   */\ntag_19:\n    /* \"#utility.yul\":1696:1699   */\n  0x00\n    /* \"#utility.yul\":1717:1784   */\n  tag_39\n    /* \"#utility.yul\":1781:1783   */\n  0x15\n    /* \"#utility.yul\":1776:1779   */\n  dup4\n    /* \"#utility.yul\":1717:1784   */\n  tag_17\n  jump\t// in\ntag_39:\n    /* \"#utility.yul\":1710:1784   */\n  swap2\n  pop\n    /* \"#utility.yul\":1793:1886   */\n  tag_40\n    /* \"#utility.yul\":1882:1885   */\n  dup3\n    /* \"#utility.yul\":1793:1886   */\n  tag_18\n  jump\t// in\ntag_40:\n    /* \"#utility.yul\":1911:1913   */\n  0x20\n    /* \"#utility.yul\":1906:1909   */\n  dup3\n    /* \"#utility.yul\":1902:1914   */\n  add\n    /* \"#utility.yul\":1895:1914   */\n  swap1\n  pop\n    /* \"#utility.yul\":1554:1920   */\n  swap2\n  swap1\n  pop\n  jump\t// out\n    /* \"#utility.yul\":1926:2345   */\ntag_8:\n    /* \"#utility.yul\":2092:2096   */\n  0x00\n    /* \"#utility.yul\":2130:2132   */\n  0x20\n    /* \"#utility.yul\":2119:2128   */\n  dup3\n    /* \"#utility.yul\":2115:2133   */\n  add\n    /* \"#utility.yul\":2107:2133   */\n  swap1\n  pop\n    /* \"#utility.yul\":2179:2188   */\n  dup2\n    /* \"#utility.yul\":2173:2177   */\n  dup2\n    /* \"#utility.yul\":2169:2189   */\n  sub\n    /* \"#utility.yul\":2165:2166   */\n  0x00\n    /* \"#utility.yul\":2154:2163   */\n  dup4\n    /* \"#utility.yul\":2150:2167   */\n  add\n    /* \"#utility.yul\":2143:2190   */\n  mstore\n    /* \"#utility.yul\":2207:2338   */\n  tag_42\n    /* \"#utility.yul\":2333:2337   */\n  dup2\n    /* \"#utility.yul\":2207:2338   */\n  tag_19\n  jump\t// in\ntag_42:\n    /* \"#utility.yul\":2199:2338   */\n  swap1\n  pop\n    /* \"#utility.yul\":1926:2345   */\n  swap2\n  swap1\n  pop\n  jump\t// out\n    /* \"contracts/nftmarket.sol\":172:5334  contract Market {... */\ntag_9:\n  dataSize(sub_0)\n  dup1\n  dataOffset(sub_0)\n  0x00\n  codecopy\n  0x00\n  return\nstop\n\nsub_0: assembly {\n        /* \"contracts/nftmarket.sol\":172:5334  contract Market {... */\n      mstore(0x40, 0x80)\n      callvalue\n      dup1\n      iszero\n      tag_1\n      jumpi\n      0x00\n      dup1\n      revert\n    tag_1:\n      pop\n      jumpi(tag_2, lt(calldatasize, 0x04))\n      shr(0xe0, calldataload(0x00))\n      dup1\n      0x785e9e86\n      gt\n      tag_13\n      jumpi\n      dup1\n      0x785e9e86\n      eq\n      tag_8\n      jumpi\n      dup1\n      0x7fc27efd\n      eq\n      tag_9\n      jumpi\n      dup1\n      0xad05f1b4\n      eq\n      tag_10\n      jumpi\n      dup1\n      0xcce7ec13\n      eq\n      tag_11\n      jumpi\n      dup1\n      0xde6b8a2e\n      eq\n      tag_12\n      jumpi\n      jump(tag_2)\n    tag_13:\n      dup1\n      0x2917c145\n      eq\n      tag_3\n      jumpi\n      dup1\n      0x29c29e9d\n      eq\n      tag_4\n      jumpi\n      dup1\n      0x47d90b5c\n      eq\n      tag_5\n      jumpi\n      dup1\n      0x4e6fe8d8\n      eq\n      tag_6\n      jumpi\n      dup1\n      0x741cbae4\n      eq\n      tag_7\n      jumpi\n    tag_2:\n      0x00\n      dup1\n      revert\n        /* \"contracts/nftmarket.sol\":515:584  mapping(address => mapping(uint256 => uint256)) public tokenIdToIndex */\n    tag_3:\n      tag_14\n      0x04\n      dup1\n      calldatasize\n      sub\n      dup2\n      add\n      swap1\n      tag_15\n      swap2\n      swap1\n      tag_16\n      jump\t// in\n    tag_15:\n      tag_17\n      jump\t// in\n    tag_14:\n      mload(0x40)\n      tag_18\n      swap2\n      swap1\n      tag_19\n      jump\t// in\n    tag_18:\n      mload(0x40)\n      dup1\n      swap2\n      sub\n      swap1\n      return\n        /* \"contracts/nftmarket.sol\":442:509  mapping(address => mapping(uint256 => Order)) public orderOfTokenId */\n    tag_4:\n      tag_20\n      0x04\n      dup1\n      calldatasize\n      sub\n      dup2\n      add\n      swap1\n      tag_21\n      swap2\n      swap1\n      tag_16\n      jump\t// in\n    tag_21:\n      tag_22\n      jump\t// in\n    tag_20:\n      mload(0x40)\n      tag_23\n      swap5\n      swap4\n      swap3\n      swap2\n      swap1\n      tag_24\n      jump\t// in\n    tag_23:\n      mload(0x40)\n      dup1\n      swap2\n      sub\n      swap1\n      return\n        /* \"contracts/nftmarket.sol\":194:220  address public marketOwner */\n    tag_5:\n      tag_25\n      tag_26\n      jump\t// in\n    tag_25:\n      mload(0x40)\n      tag_27\n      swap2\n      swap1\n      tag_28\n      jump\t// in\n    tag_27:\n      mload(0x40)\n      dup1\n      swap2\n      sub\n      swap1\n      return\n        /* \"contracts/nftmarket.sol\":387:436  mapping(address => Order[]) public contractOrders */\n    tag_6:\n      tag_29\n      0x04\n      dup1\n      calldatasize\n      sub\n      dup2\n      add\n      swap1\n      tag_30\n      swap2\n      swap1\n      tag_16\n      jump\t// in\n    tag_30:\n      tag_31\n      jump\t// in\n    tag_29:\n      mload(0x40)\n      tag_32\n      swap5\n      swap4\n      swap3\n      swap2\n      swap1\n      tag_24\n      jump\t// in\n    tag_32:\n      mload(0x40)\n      dup1\n      swap2\n      sub\n      swap1\n      return\n        /* \"contracts/nftmarket.sol\":3456:4202  function changePrice(address _contractAddress, uint256 _tokenId, uint256 _price) public {... */\n    tag_7:\n      tag_33\n      0x04\n      dup1\n      calldatasize\n      sub\n      dup2\n      add\n      swap1\n      tag_34\n      swap2\n      swap1\n      tag_35\n      jump\t// in\n    tag_34:\n      tag_36\n      jump\t// in\n    tag_33:\n      stop\n        /* \"contracts/nftmarket.sol\":226:245  IERC20 public erc20 */\n    tag_8:\n      tag_37\n      tag_38\n      jump\t// in\n    tag_37:\n      mload(0x40)\n      tag_39\n      swap2\n      swap1\n      tag_40\n      jump\t// in\n    tag_39:\n      mload(0x40)\n      dup1\n      swap2\n      sub\n      swap1\n      return\n        /* \"contracts/nftmarket.sol\":2965:3450  function unlistNFT(address _contractAddress, uint256 _tokenId) public {... */\n    tag_9:\n      tag_41\n      0x04\n      dup1\n      calldatasize\n      sub\n      dup2\n      add\n      swap1\n      tag_42\n      swap2\n      swap1\n      tag_16\n      jump\t// in\n    tag_42:\n      tag_43\n      jump\t// in\n    tag_41:\n      stop\n        /* \"contracts/nftmarket.sol\":1422:2251  function listNFT(address _contractAddress, uint256 _tokenId, uint256 _price) public {... */\n    tag_10:\n      tag_44\n      0x04\n      dup1\n      calldatasize\n      sub\n      dup2\n      add\n      swap1\n      tag_45\n      swap2\n      swap1\n      tag_35\n      jump\t// in\n    tag_45:\n      tag_46\n      jump\t// in\n    tag_44:\n      stop\n        /* \"contracts/nftmarket.sol\":2257:2959  function buy(address _contractAddress, uint256 _tokenId) public {... */\n    tag_11:\n      tag_47\n      0x04\n      dup1\n      calldatasize\n      sub\n      dup2\n      add\n      swap1\n      tag_48\n      swap2\n      swap1\n      tag_16\n      jump\t// in\n    tag_48:\n      tag_49\n      jump\t// in\n    tag_47:\n      stop\n        /* \"contracts/nftmarket.sol\":4527:4671  function getOrderLength(address _contractAddress) external view returns(uint256) {... */\n    tag_12:\n      tag_50\n      0x04\n      dup1\n      calldatasize\n      sub\n      dup2\n      add\n      swap1\n      tag_51\n      swap2\n      swap1\n      tag_52\n      jump\t// in\n    tag_51:\n      tag_53\n      jump\t// in\n    tag_50:\n      mload(0x40)\n      tag_54\n      swap2\n      swap1\n      tag_19\n      jump\t// in\n    tag_54:\n      mload(0x40)\n      dup1\n      swap2\n      sub\n      swap1\n      return\n        /* \"contracts/nftmarket.sol\":515:584  mapping(address => mapping(uint256 => uint256)) public tokenIdToIndex */\n    tag_17:\n      mstore(0x20, 0x04)\n      dup2\n      0x00\n      mstore\n      mstore(0x20, keccak256(0x00, 0x40))\n      dup1\n      0x00\n      mstore\n      keccak256(0x00, 0x40)\n      0x00\n      swap2\n      pop\n      swap2\n      pop\n      pop\n      sload\n      dup2\n      jump\t// out\n        /* \"contracts/nftmarket.sol\":442:509  mapping(address => mapping(uint256 => Order)) public orderOfTokenId */\n    tag_22:\n      mstore(0x20, 0x03)\n      dup2\n      0x00\n      mstore\n      mstore(0x20, keccak256(0x00, 0x40))\n      dup1\n      0x00\n      mstore\n      keccak256(0x00, 0x40)\n      0x00\n      swap2\n      pop\n      swap2\n      pop\n      pop\n      dup1\n      0x00\n      add\n      0x00\n      swap1\n      sload\n      swap1\n      0x0100\n      exp\n      swap1\n      div\n      0xffffffffffffffffffffffffffffffffffffffff\n      and\n      swap1\n      dup1\n      0x01\n      add\n      sload\n      swap1\n      dup1\n      0x02\n      add\n      0x00\n      swap1\n      sload\n      swap1\n      0x0100\n      exp\n      swap1\n      div\n      0xffffffffffffffffffffffffffffffffffffffff\n      and\n      swap1\n      dup1\n      0x03\n      add\n      sload\n      swap1\n      pop\n      dup5\n      jump\t// out\n        /* \"contracts/nftmarket.sol\":194:220  address public marketOwner */\n    tag_26:\n      0x00\n      dup1\n      sload\n      swap1\n      0x0100\n      exp\n      swap1\n      div\n      0xffffffffffffffffffffffffffffffffffffffff\n      and\n      dup2\n      jump\t// out\n        /* \"contracts/nftmarket.sol\":387:436  mapping(address => Order[]) public contractOrders */\n    tag_31:\n      mstore(0x20, 0x02)\n      dup2\n      0x00\n      mstore\n      keccak256(0x00, 0x40)\n      dup2\n      dup2\n      sload\n      dup2\n      lt\n      tag_55\n      jumpi\n      0x00\n      dup1\n      revert\n    tag_55:\n      swap1\n      0x00\n      mstore\n      keccak256(0x00, 0x20)\n      swap1\n      0x04\n      mul\n      add\n      0x00\n      swap2\n      pop\n      swap2\n      pop\n      pop\n      dup1\n      0x00\n      add\n      0x00\n      swap1\n      sload\n      swap1\n      0x0100\n      exp\n      swap1\n      div\n      0xffffffffffffffffffffffffffffffffffffffff\n      and\n      swap1\n      dup1\n      0x01\n      add\n      sload\n      swap1\n      dup1\n      0x02\n      add\n      0x00\n      swap1\n      sload\n      swap1\n      0x0100\n      exp\n      swap1\n      div\n      0xffffffffffffffffffffffffffffffffffffffff\n      and\n      swap1\n      dup1\n      0x03\n      add\n      sload\n      swap1\n      pop\n      dup5\n      jump\t// out\n        /* \"contracts/nftmarket.sol\":3456:4202  function changePrice(address _contractAddress, uint256 _tokenId, uint256 _price) public {... */\n    tag_36:\n        /* \"contracts/nftmarket.sol\":3590:3591  0 */\n      0x00\n        /* \"contracts/nftmarket.sol\":3562:3592  _contractAddress != address(0) */\n      0xffffffffffffffffffffffffffffffffffffffff\n      and\n        /* \"contracts/nftmarket.sol\":3562:3578  _contractAddress */\n      dup4\n        /* \"contracts/nftmarket.sol\":3562:3592  _contractAddress != address(0) */\n      0xffffffffffffffffffffffffffffffffffffffff\n      and\n      sub\n        /* \"contracts/nftmarket.sol\":3554:3621  require(_contractAddress != address(0), \"contract address is zero\") */\n      tag_58\n      jumpi\n      mload(0x40)\n      0x08c379a000000000000000000000000000000000000000000000000000000000\n      dup2\n      mstore\n      0x04\n      add\n      tag_59\n      swap1\n      tag_60\n      jump\t// in\n    tag_59:\n      mload(0x40)\n      dup1\n      swap2\n      sub\n      swap1\n      revert\n    tag_58:\n        /* \"contracts/nftmarket.sol\":3631:3645  address seller */\n      0x00\n        /* \"contracts/nftmarket.sol\":3648:3662  orderOfTokenId */\n      0x03\n        /* \"contracts/nftmarket.sol\":3648:3680  orderOfTokenId[_contractAddress] */\n      0x00\n        /* \"contracts/nftmarket.sol\":3663:3679  _contractAddress */\n      dup6\n        /* \"contracts/nftmarket.sol\":3648:3680  orderOfTokenId[_contractAddress] */\n      0xffffffffffffffffffffffffffffffffffffffff\n      and\n      0xffffffffffffffffffffffffffffffffffffffff\n      and\n      dup2\n      mstore\n      0x20\n      add\n      swap1\n      dup2\n      mstore\n      0x20\n      add\n      0x00\n      keccak256\n        /* \"contracts/nftmarket.sol\":3648:3690  orderOfTokenId[_contractAddress][_tokenId] */\n      0x00\n        /* \"contracts/nftmarket.sol\":3681:3689  _tokenId */\n      dup5\n        /* \"contracts/nftmarket.sol\":3648:3690  orderOfTokenId[_contractAddress][_tokenId] */\n      dup2\n      mstore\n      0x20\n      add\n      swap1\n      dup2\n      mstore\n      0x20\n      add\n      0x00\n      keccak256\n        /* \"contracts/nftmarket.sol\":3648:3697  orderOfTokenId[_contractAddress][_tokenId].seller */\n      0x02\n      add\n      0x00\n      swap1\n      sload\n      swap1\n      0x0100\n      exp\n      swap1\n      div\n      0xffffffffffffffffffffffffffffffffffffffff\n      and\n        /* \"contracts/nftmarket.sol\":3631:3697  address seller = orderOfTokenId[_contractAddress][_tokenId].seller */\n      swap1\n      pop\n        /* \"contracts/nftmarket.sol\":3733:3734  0 */\n      0x00\n        /* \"contracts/nftmarket.sol\":3715:3735  seller != address(0) */\n      0xffffffffffffffffffffffffffffffffffffffff\n      and\n        /* \"contracts/nftmarket.sol\":3715:3721  seller */\n      dup2\n        /* \"contracts/nftmarket.sol\":3715:3735  seller != address(0) */\n      0xffffffffffffffffffffffffffffffffffffffff\n      and\n      sub\n        /* \"contracts/nftmarket.sol\":3707:3760  require(seller != address(0), \"token has not listed\") */\n      tag_61\n      jumpi\n      mload(0x40)\n      0x08c379a000000000000000000000000000000000000000000000000000000000\n      dup2\n      mstore\n      0x04\n      add\n      tag_62\n      swap1\n      tag_63\n      jump\t// in\n    tag_62:\n      mload(0x40)\n      dup1\n      swap2\n      sub\n      swap1\n      revert\n    tag_61:\n        /* \"contracts/nftmarket.sol\":3792:3798  seller */\n      dup1\n        /* \"contracts/nftmarket.sol\":3778:3798  msg.sender == seller */\n      0xffffffffffffffffffffffffffffffffffffffff\n      and\n        /* \"contracts/nftmarket.sol\":3778:3788  msg.sender */\n      caller\n        /* \"contracts/nftmarket.sol\":3778:3798  msg.sender == seller */\n      0xffffffffffffffffffffffffffffffffffffffff\n      and\n      eq\n        /* \"contracts/nftmarket.sol\":3770:3827  require(msg.sender == seller, \"msg sender is not seller\") */\n      tag_64\n      jumpi\n      mload(0x40)\n      0x08c379a000000000000000000000000000000000000000000000000000000000\n      dup2\n      mstore\n      0x04\n      add\n      tag_65\n      swap1\n      tag_66\n      jump\t// in\n    tag_65:\n      mload(0x40)\n      dup1\n      swap2\n      sub\n      swap1\n      revert\n    tag_64:\n        /* \"contracts/nftmarket.sol\":3838:3854  uint256 oldPrice */\n      0x00\n        /* \"contracts/nftmarket.sol\":3857:3871  orderOfTokenId */\n      0x03\n        /* \"contracts/nftmarket.sol\":3857:3889  orderOfTokenId[_contractAddress] */\n      0x00\n        /* \"contracts/nftmarket.sol\":3872:3888  _contractAddress */\n      dup7\n        /* \"contracts/nftmarket.sol\":3857:3889  orderOfTokenId[_contractAddress] */\n      0xffffffffffffffffffffffffffffffffffffffff\n      and\n      0xffffffffffffffffffffffffffffffffffffffff\n      and\n      dup2\n      mstore\n      0x20\n      add\n      swap1\n      dup2\n      mstore\n      0x20\n      add\n      0x00\n      keccak256\n        /* \"contracts/nftmarket.sol\":3857:3899  orderOfTokenId[_contractAddress][_tokenId] */\n      0x00\n        /* \"contracts/nftmarket.sol\":3890:3898  _tokenId */\n      dup6\n        /* \"contracts/nftmarket.sol\":3857:3899  orderOfTokenId[_contractAddress][_tokenId] */\n      dup2\n      mstore\n      0x20\n      add\n      swap1\n      dup2\n      mstore\n      0x20\n      add\n      0x00\n      keccak256\n        /* \"contracts/nftmarket.sol\":3857:3905  orderOfTokenId[_contractAddress][_tokenId].price */\n      0x03\n      add\n      sload\n        /* \"contracts/nftmarket.sol\":3838:3905  uint256 oldPrice = orderOfTokenId[_contractAddress][_tokenId].price */\n      swap1\n      pop\n        /* \"contracts/nftmarket.sol\":3966:3972  _price */\n      dup3\n        /* \"contracts/nftmarket.sol\":3915:3929  orderOfTokenId */\n      0x03\n        /* \"contracts/nftmarket.sol\":3915:3947  orderOfTokenId[_contractAddress] */\n      0x00\n        /* \"contracts/nftmarket.sol\":3930:3946  _contractAddress */\n      dup8\n        /* \"contracts/nftmarket.sol\":3915:3947  orderOfTokenId[_contractAddress] */\n      0xffffffffffffffffffffffffffffffffffffffff\n      and\n      0xffffffffffffffffffffffffffffffffffffffff\n      and\n      dup2\n      mstore\n      0x20\n      add\n      swap1\n      dup2\n      mstore\n      0x20\n      add\n      0x00\n      keccak256\n        /* \"contracts/nftmarket.sol\":3915:3957  orderOfTokenId[_contractAddress][_tokenId] */\n      0x00\n        /* \"contracts/nftmarket.sol\":3948:3956  _tokenId */\n      dup7\n        /* \"contracts/nftmarket.sol\":3915:3957  orderOfTokenId[_contractAddress][_tokenId] */\n      dup2\n      mstore\n      0x20\n      add\n      swap1\n      dup2\n      mstore\n      0x20\n      add\n      0x00\n      keccak256\n        /* \"contracts/nftmarket.sol\":3915:3963  orderOfTokenId[_contractAddress][_tokenId].price */\n      0x03\n      add\n        /* \"contracts/nftmarket.sol\":3915:3972  orderOfTokenId[_contractAddress][_tokenId].price = _price */\n      dup2\n      swap1\n      sstore\n      pop\n        /* \"contracts/nftmarket.sol\":3983:3996  uint256 index */\n      0x00\n        /* \"contracts/nftmarket.sol\":3999:4013  tokenIdToIndex */\n      0x04\n        /* \"contracts/nftmarket.sol\":3999:4031  tokenIdToIndex[_contractAddress] */\n      0x00\n        /* \"contracts/nftmarket.sol\":4014:4030  _contractAddress */\n      dup8\n        /* \"contracts/nftmarket.sol\":3999:4031  tokenIdToIndex[_contractAddress] */\n      0xffffffffffffffffffffffffffffffffffffffff\n      and\n      0xffffffffffffffffffffffffffffffffffffffff\n      and\n      dup2\n      mstore\n      0x20\n      add\n      swap1\n      dup2\n      mstore\n      0x20\n      add\n      0x00\n      keccak256\n        /* \"contracts/nftmarket.sol\":3999:4041  tokenIdToIndex[_contractAddress][_tokenId] */\n      0x00\n        /* \"contracts/nftmarket.sol\":4032:4040  _tokenId */\n      dup7\n        /* \"contracts/nftmarket.sol\":3999:4041  tokenIdToIndex[_contractAddress][_tokenId] */\n      dup2\n      mstore\n      0x20\n      add\n      swap1\n      dup2\n      mstore\n      0x20\n      add\n      0x00\n      keccak256\n      sload\n        /* \"contracts/nftmarket.sol\":3983:4041  uint256 index = tokenIdToIndex[_contractAddress][_tokenId] */\n      swap1\n      pop\n        /* \"contracts/nftmarket.sol\":4099:4105  _price */\n      dup4\n        /* \"contracts/nftmarket.sol\":4051:4065  contractOrders */\n      0x02\n        /* \"contracts/nftmarket.sol\":4051:4083  contractOrders[_contractAddress] */\n      0x00\n        /* \"contracts/nftmarket.sol\":4066:4082  _contractAddress */\n      dup9\n        /* \"contracts/nftmarket.sol\":4051:4083  contractOrders[_contractAddress] */\n      0xffffffffffffffffffffffffffffffffffffffff\n      and\n      0xffffffffffffffffffffffffffffffffffffffff\n      and\n      dup2\n      mstore\n      0x20\n      add\n      swap1\n      dup2\n      mstore\n      0x20\n      add\n      0x00\n      keccak256\n        /* \"contracts/nftmarket.sol\":4084:4089  index */\n      dup3\n        /* \"contracts/nftmarket.sol\":4051:4090  contractOrders[_contractAddress][index] */\n      dup2\n      sload\n      dup2\n      lt\n      tag_67\n      jumpi\n      tag_68\n      tag_69\n      jump\t// in\n    tag_68:\n    tag_67:\n      swap1\n      0x00\n      mstore\n      keccak256(0x00, 0x20)\n      swap1\n      0x04\n      mul\n      add\n        /* \"contracts/nftmarket.sol\":4051:4096  contractOrders[_contractAddress][index].price */\n      0x03\n      add\n        /* \"contracts/nftmarket.sol\":4051:4105  contractOrders[_contractAddress][index].price = _price */\n      dup2\n      swap1\n      sstore\n      pop\n        /* \"contracts/nftmarket.sol\":4168:4176  _tokenId */\n      dup5\n        /* \"contracts/nftmarket.sol\":4160:4166  seller */\n      dup4\n        /* \"contracts/nftmarket.sol\":4129:4195  PriceChanged(_contractAddress, seller, _tokenId, oldPrice, _price) */\n      0xffffffffffffffffffffffffffffffffffffffff\n      and\n        /* \"contracts/nftmarket.sol\":4142:4158  _contractAddress */\n      dup8\n        /* \"contracts/nftmarket.sol\":4129:4195  PriceChanged(_contractAddress, seller, _tokenId, oldPrice, _price) */\n      0xffffffffffffffffffffffffffffffffffffffff\n      and\n      0xbbdd274c8e6142e9cf1e5198bd2942fa0e315fa6a4a5d843949afde9f93a677f\n        /* \"contracts/nftmarket.sol\":4178:4186  oldPrice */\n      dup6\n        /* \"contracts/nftmarket.sol\":4188:4194  _price */\n      dup9\n        /* \"contracts/nftmarket.sol\":4129:4195  PriceChanged(_contractAddress, seller, _tokenId, oldPrice, _price) */\n      mload(0x40)\n      tag_71\n      swap3\n      swap2\n      swap1\n      tag_72\n      jump\t// in\n    tag_71:\n      mload(0x40)\n      dup1\n      swap2\n      sub\n      swap1\n      log4\n        /* \"contracts/nftmarket.sol\":3544:4202  {... */\n      pop\n      pop\n      pop\n        /* \"contracts/nftmarket.sol\":3456:4202  function changePrice(address _contractAddress, uint256 _tokenId, uint256 _price) public {... */\n      pop\n      pop\n      pop\n      jump\t// out\n        /* \"contracts/nftmarket.sol\":226:245  IERC20 public erc20 */\n    tag_38:\n      0x01\n      0x00\n      swap1\n      sload\n      swap1\n      0x0100\n      exp\n      swap1\n      div\n      0xffffffffffffffffffffffffffffffffffffffff\n      and\n      dup2\n      jump\t// out\n        /* \"contracts/nftmarket.sol\":2965:3450  function unlistNFT(address _contractAddress, uint256 _tokenId) public {... */\n    tag_43:\n        /* \"contracts/nftmarket.sol\":3081:3082  0 */\n      0x00\n        /* \"contracts/nftmarket.sol\":3053:3083  _contractAddress != address(0) */\n      0xffffffffffffffffffffffffffffffffffffffff\n      and\n        /* \"contracts/nftmarket.sol\":3053:3069  _contractAddress */\n      dup3\n        /* \"contracts/nftmarket.sol\":3053:3083  _contractAddress != address(0) */\n      0xffffffffffffffffffffffffffffffffffffffff\n      and\n      sub\n        /* \"contracts/nftmarket.sol\":3045:3112  require(_contractAddress != address(0), \"contract address is zero\") */\n      tag_74\n      jumpi\n      mload(0x40)\n      0x08c379a000000000000000000000000000000000000000000000000000000000\n      dup2\n      mstore\n      0x04\n      add\n      tag_75\n      swap1\n      tag_60\n      jump\t// in\n    tag_75:\n      mload(0x40)\n      dup1\n      swap2\n      sub\n      swap1\n      revert\n    tag_74:\n        /* \"contracts/nftmarket.sol\":3131:3145  address seller */\n      0x00\n        /* \"contracts/nftmarket.sol\":3148:3162  orderOfTokenId */\n      0x03\n        /* \"contracts/nftmarket.sol\":3148:3180  orderOfTokenId[_contractAddress] */\n      0x00\n        /* \"contracts/nftmarket.sol\":3163:3179  _contractAddress */\n      dup5\n        /* \"contracts/nftmarket.sol\":3148:3180  orderOfTokenId[_contractAddress] */\n      0xffffffffffffffffffffffffffffffffffffffff\n      and\n      0xffffffffffffffffffffffffffffffffffffffff\n      and\n      dup2\n      mstore\n      0x20\n      add\n      swap1\n      dup2\n      mstore\n      0x20\n      add\n      0x00\n      keccak256\n        /* \"contracts/nftmarket.sol\":3148:3190  orderOfTokenId[_contractAddress][_tokenId] */\n      0x00\n        /* \"contracts/nftmarket.sol\":3181:3189  _tokenId */\n      dup4\n        /* \"contracts/nftmarket.sol\":3148:3190  orderOfTokenId[_contractAddress][_tokenId] */\n      dup2\n      mstore\n      0x20\n      add\n      swap1\n      dup2\n      mstore\n      0x20\n      add\n      0x00\n      keccak256\n        /* \"contracts/nftmarket.sol\":3148:3197  orderOfTokenId[_contractAddress][_tokenId].seller */\n      0x02\n      add\n      0x00\n      swap1\n      sload\n      swap1\n      0x0100\n      exp\n      swap1\n      div\n      0xffffffffffffffffffffffffffffffffffffffff\n      and\n        /* \"contracts/nftmarket.sol\":3131:3197  address seller = orderOfTokenId[_contractAddress][_tokenId].seller */\n      swap1\n      pop\n        /* \"contracts/nftmarket.sol\":3233:3234  0 */\n      0x00\n        /* \"contracts/nftmarket.sol\":3215:3235  seller != address(0) */\n      0xffffffffffffffffffffffffffffffffffffffff\n      and\n        /* \"contracts/nftmarket.sol\":3215:3221  seller */\n      dup2\n        /* \"contracts/nftmarket.sol\":3215:3235  seller != address(0) */\n      0xffffffffffffffffffffffffffffffffffffffff\n      and\n      sub\n        /* \"contracts/nftmarket.sol\":3207:3260  require(seller != address(0), \"token has not listed\") */\n      tag_76\n      jumpi\n      mload(0x40)\n      0x08c379a000000000000000000000000000000000000000000000000000000000\n      dup2\n      mstore\n      0x04\n      add\n      tag_77\n      swap1\n      tag_63\n      jump\t// in\n    tag_77:\n      mload(0x40)\n      dup1\n      swap2\n      sub\n      swap1\n      revert\n    tag_76:\n        /* \"contracts/nftmarket.sol\":3292:3298  seller */\n      dup1\n        /* \"contracts/nftmarket.sol\":3278:3298  msg.sender == seller */\n      0xffffffffffffffffffffffffffffffffffffffff\n      and\n        /* \"contracts/nftmarket.sol\":3278:3288  msg.sender */\n      caller\n        /* \"contracts/nftmarket.sol\":3278:3298  msg.sender == seller */\n      0xffffffffffffffffffffffffffffffffffffffff\n      and\n      eq\n        /* \"contracts/nftmarket.sol\":3270:3327  require(msg.sender == seller, \"msg sender is not seller\") */\n      tag_78\n      jumpi\n      mload(0x40)\n      0x08c379a000000000000000000000000000000000000000000000000000000000\n      dup2\n      mstore\n      0x04\n      add\n      tag_79\n      swap1\n      tag_66\n      jump\t// in\n    tag_79:\n      mload(0x40)\n      dup1\n      swap2\n      sub\n      swap1\n      revert\n    tag_78:\n        /* \"contracts/nftmarket.sol\":3338:3378  _removeOrder(_contractAddress, _tokenId) */\n      tag_80\n        /* \"contracts/nftmarket.sol\":3351:3367  _contractAddress */\n      dup4\n        /* \"contracts/nftmarket.sol\":3369:3377  _tokenId */\n      dup4\n        /* \"contracts/nftmarket.sol\":3338:3350  _removeOrder */\n      tag_81\n        /* \"contracts/nftmarket.sol\":3338:3378  _removeOrder(_contractAddress, _tokenId) */\n      jump\t// in\n    tag_80:\n        /* \"contracts/nftmarket.sol\":3434:3442  _tokenId */\n      dup2\n        /* \"contracts/nftmarket.sol\":3426:3432  seller */\n      dup2\n        /* \"contracts/nftmarket.sol\":3394:3443  OrderCanceled(_contractAddress, seller, _tokenId) */\n      0xffffffffffffffffffffffffffffffffffffffff\n      and\n        /* \"contracts/nftmarket.sol\":3408:3424  _contractAddress */\n      dup5\n        /* \"contracts/nftmarket.sol\":3394:3443  OrderCanceled(_contractAddress, seller, _tokenId) */\n      0xffffffffffffffffffffffffffffffffffffffff\n      and\n      0xd8a931ba19eff049c3c5d3404648e3c0283462d3071e2d4157117069197a4a99\n      mload(0x40)\n      mload(0x40)\n      dup1\n      swap2\n      sub\n      swap1\n      log4\n        /* \"contracts/nftmarket.sol\":3035:3450  {... */\n      pop\n        /* \"contracts/nftmarket.sol\":2965:3450  function unlistNFT(address _contractAddress, uint256 _tokenId) public {... */\n      pop\n      pop\n      jump\t// out\n        /* \"contracts/nftmarket.sol\":1422:2251  function listNFT(address _contractAddress, uint256 _tokenId, uint256 _price) public {... */\n    tag_46:\n        /* \"contracts/nftmarket.sol\":1552:1553  0 */\n      0x00\n        /* \"contracts/nftmarket.sol\":1524:1554  _contractAddress != address(0) */\n      0xffffffffffffffffffffffffffffffffffffffff\n      and\n        /* \"contracts/nftmarket.sol\":1524:1540  _contractAddress */\n      dup4\n        /* \"contracts/nftmarket.sol\":1524:1554  _contractAddress != address(0) */\n      0xffffffffffffffffffffffffffffffffffffffff\n      and\n      sub\n        /* \"contracts/nftmarket.sol\":1516:1583  require(_contractAddress != address(0), \"contract address is zero\") */\n      tag_83\n      jumpi\n      mload(0x40)\n      0x08c379a000000000000000000000000000000000000000000000000000000000\n      dup2\n      mstore\n      0x04\n      add\n      tag_84\n      swap1\n      tag_60\n      jump\t// in\n    tag_84:\n      mload(0x40)\n      dup1\n      swap2\n      sub\n      swap1\n      revert\n    tag_83:\n        /* \"contracts/nftmarket.sol\":1594:1605  IERC721 nft */\n      0x00\n        /* \"contracts/nftmarket.sol\":1616:1632  _contractAddress */\n      dup4\n        /* \"contracts/nftmarket.sol\":1594:1633  IERC721 nft = IERC721(_contractAddress) */\n      swap1\n      pop\n        /* \"contracts/nftmarket.sol\":1643:1657  address seller */\n      0x00\n        /* \"contracts/nftmarket.sol\":1660:1670  msg.sender */\n      caller\n        /* \"contracts/nftmarket.sol\":1643:1670  address seller = msg.sender */\n      swap1\n      pop\n        /* \"contracts/nftmarket.sol\":1713:1719  seller */\n      dup1\n        /* \"contracts/nftmarket.sol\":1688:1719  nft.ownerOf(_tokenId) == seller */\n      0xffffffffffffffffffffffffffffffffffffffff\n      and\n        /* \"contracts/nftmarket.sol\":1688:1691  nft */\n      dup3\n        /* \"contracts/nftmarket.sol\":1688:1699  nft.ownerOf */\n      0xffffffffffffffffffffffffffffffffffffffff\n      and\n      0x6352211e\n        /* \"contracts/nftmarket.sol\":1700:1708  _tokenId */\n      dup7\n        /* \"contracts/nftmarket.sol\":1688:1709  nft.ownerOf(_tokenId) */\n      mload(0x40)\n      dup3\n      0xffffffff\n      and\n      0xe0\n      shl\n      dup2\n      mstore\n      0x04\n      add\n      tag_85\n      swap2\n      swap1\n      tag_19\n      jump\t// in\n    tag_85:\n      0x20\n      mload(0x40)\n      dup1\n      dup4\n      sub\n      dup2\n      dup7\n      gas\n      staticcall\n      iszero\n      dup1\n      iszero\n      tag_87\n      jumpi\n      returndatasize\n      0x00\n      dup1\n      returndatacopy\n      revert(0x00, returndatasize)\n    tag_87:\n      pop\n      pop\n      pop\n      pop\n      mload(0x40)\n      returndatasize\n      not(0x1f)\n      0x1f\n      dup3\n      add\n      and\n      dup3\n      add\n      dup1\n      0x40\n      mstore\n      pop\n      dup2\n      add\n      swap1\n      tag_88\n      swap2\n      swap1\n      tag_89\n      jump\t// in\n    tag_88:\n        /* \"contracts/nftmarket.sol\":1688:1719  nft.ownerOf(_tokenId) == seller */\n      0xffffffffffffffffffffffffffffffffffffffff\n      and\n      eq\n        /* \"contracts/nftmarket.sol\":1680:1755  require(nft.ownerOf(_tokenId) == seller, \"msg sender is not token's owner\") */\n      tag_90\n      jumpi\n      mload(0x40)\n      0x08c379a000000000000000000000000000000000000000000000000000000000\n      dup2\n      mstore\n      0x04\n      add\n      tag_91\n      swap1\n      tag_92\n      jump\t// in\n    tag_91:\n      mload(0x40)\n      dup1\n      swap2\n      sub\n      swap1\n      revert\n    tag_90:\n        /* \"contracts/nftmarket.sol\":1773:1776  nft */\n      dup2\n        /* \"contracts/nftmarket.sol\":1773:1793  nft.isApprovedForAll */\n      0xffffffffffffffffffffffffffffffffffffffff\n      and\n      0xe985e9c5\n        /* \"contracts/nftmarket.sol\":1794:1800  seller */\n      dup3\n        /* \"contracts/nftmarket.sol\":1810:1814  this */\n      address\n        /* \"contracts/nftmarket.sol\":1773:1816  nft.isApprovedForAll(seller, address(this)) */\n      mload(0x40)\n      dup4\n      0xffffffff\n      and\n      0xe0\n      shl\n      dup2\n      mstore\n      0x04\n      add\n      tag_93\n      swap3\n      swap2\n      swap1\n      tag_94\n      jump\t// in\n    tag_93:\n      0x20\n      mload(0x40)\n      dup1\n      dup4\n      sub\n      dup2\n      dup7\n      gas\n      staticcall\n      iszero\n      dup1\n      iszero\n      tag_96\n      jumpi\n      returndatasize\n      0x00\n      dup1\n      returndatacopy\n      revert(0x00, returndatasize)\n    tag_96:\n      pop\n      pop\n      pop\n      pop\n      mload(0x40)\n      returndatasize\n      not(0x1f)\n      0x1f\n      dup3\n      add\n      and\n      dup3\n      add\n      dup1\n      0x40\n      mstore\n      pop\n      dup2\n      add\n      swap1\n      tag_97\n      swap2\n      swap1\n      tag_98\n      jump\t// in\n    tag_97:\n        /* \"contracts/nftmarket.sol\":1765:1874  require(nft.isApprovedForAll(seller, address(this)), \"msg sender have not call setApprovedForAll for market\") */\n      tag_99\n      jumpi\n      mload(0x40)\n      0x08c379a000000000000000000000000000000000000000000000000000000000\n      dup2\n      mstore\n      0x04\n      add\n      tag_100\n      swap1\n      tag_101\n      jump\t// in\n    tag_100:\n      mload(0x40)\n      dup1\n      swap2\n      sub\n      swap1\n      revert\n    tag_99:\n        /* \"contracts/nftmarket.sol\":1885:1899  contractOrders */\n      0x02\n        /* \"contracts/nftmarket.sol\":1885:1917  contractOrders[_contractAddress] */\n      0x00\n        /* \"contracts/nftmarket.sol\":1900:1916  _contractAddress */\n      dup7\n        /* \"contracts/nftmarket.sol\":1885:1917  contractOrders[_contractAddress] */\n      0xffffffffffffffffffffffffffffffffffffffff\n      and\n      0xffffffffffffffffffffffffffffffffffffffff\n      and\n      dup2\n      mstore\n      0x20\n      add\n      swap1\n      dup2\n      mstore\n      0x20\n      add\n      0x00\n      keccak256\n        /* \"contracts/nftmarket.sol\":1923:1972  Order(_contractAddress, _tokenId, seller, _price) */\n      mload(0x40)\n      dup1\n      0x80\n      add\n      0x40\n      mstore\n      dup1\n        /* \"contracts/nftmarket.sol\":1929:1945  _contractAddress */\n      dup8\n        /* \"contracts/nftmarket.sol\":1923:1972  Order(_contractAddress, _tokenId, seller, _price) */\n      0xffffffffffffffffffffffffffffffffffffffff\n      and\n      dup2\n      mstore\n      0x20\n      add\n        /* \"contracts/nftmarket.sol\":1947:1955  _tokenId */\n      dup7\n        /* \"contracts/nftmarket.sol\":1923:1972  Order(_contractAddress, _tokenId, seller, _price) */\n      dup2\n      mstore\n      0x20\n      add\n        /* \"contracts/nftmarket.sol\":1957:1963  seller */\n      dup4\n        /* \"contracts/nftmarket.sol\":1923:1972  Order(_contractAddress, _tokenId, seller, _price) */\n      0xffffffffffffffffffffffffffffffffffffffff\n      and\n      dup2\n      mstore\n      0x20\n      add\n        /* \"contracts/nftmarket.sol\":1965:1971  _price */\n      dup6\n        /* \"contracts/nftmarket.sol\":1923:1972  Order(_contractAddress, _tokenId, seller, _price) */\n      dup2\n      mstore\n      pop\n        /* \"contracts/nftmarket.sol\":1885:1973  contractOrders[_contractAddress].push(Order(_contractAddress, _tokenId, seller, _price)) */\n      swap1\n      dup1\n      0x01\n      dup2\n      sload\n      add\n      dup1\n      dup3\n      sstore\n      dup1\n      swap2\n      pop\n      pop\n      0x01\n      swap1\n      sub\n      swap1\n      0x00\n      mstore\n      keccak256(0x00, 0x20)\n      swap1\n      0x04\n      mul\n      add\n      0x00\n      swap1\n      swap2\n      swap1\n      swap2\n      swap1\n      swap2\n      pop\n      0x00\n      dup3\n      add\n      mload\n      dup2\n      0x00\n      add\n      exp(0x0100, 0x00)\n      dup2\n      sload\n      dup2\n      0xffffffffffffffffffffffffffffffffffffffff\n      mul\n      not\n      and\n      swap1\n      dup4\n      0xffffffffffffffffffffffffffffffffffffffff\n      and\n      mul\n      or\n      swap1\n      sstore\n      pop\n      0x20\n      dup3\n      add\n      mload\n      dup2\n      0x01\n      add\n      sstore\n      0x40\n      dup3\n      add\n      mload\n      dup2\n      0x02\n      add\n      exp(0x0100, 0x00)\n      dup2\n      sload\n      dup2\n      0xffffffffffffffffffffffffffffffffffffffff\n      mul\n      not\n      and\n      swap1\n      dup4\n      0xffffffffffffffffffffffffffffffffffffffff\n      and\n      mul\n      or\n      swap1\n      sstore\n      pop\n      0x60\n      dup3\n      add\n      mload\n      dup2\n      0x03\n      add\n      sstore\n      pop\n      pop\n        /* \"contracts/nftmarket.sol\":2070:2071  1 */\n      0x01\n        /* \"contracts/nftmarket.sol\":2028:2042  contractOrders */\n      0x02\n        /* \"contracts/nftmarket.sol\":2028:2060  contractOrders[_contractAddress] */\n      0x00\n        /* \"contracts/nftmarket.sol\":2043:2059  _contractAddress */\n      dup8\n        /* \"contracts/nftmarket.sol\":2028:2060  contractOrders[_contractAddress] */\n      0xffffffffffffffffffffffffffffffffffffffff\n      and\n      0xffffffffffffffffffffffffffffffffffffffff\n      and\n      dup2\n      mstore\n      0x20\n      add\n      swap1\n      dup2\n      mstore\n      0x20\n      add\n      0x00\n      keccak256\n        /* \"contracts/nftmarket.sol\":2028:2067  contractOrders[_contractAddress].length */\n      dup1\n      sload\n      swap1\n      pop\n        /* \"contracts/nftmarket.sol\":2028:2071  contractOrders[_contractAddress].length - 1 */\n      tag_103\n      swap2\n      swap1\n      tag_104\n      jump\t// in\n    tag_103:\n        /* \"contracts/nftmarket.sol\":1983:1997  tokenIdToIndex */\n      0x04\n        /* \"contracts/nftmarket.sol\":1983:2015  tokenIdToIndex[_contractAddress] */\n      0x00\n        /* \"contracts/nftmarket.sol\":1998:2014  _contractAddress */\n      dup8\n        /* \"contracts/nftmarket.sol\":1983:2015  tokenIdToIndex[_contractAddress] */\n      0xffffffffffffffffffffffffffffffffffffffff\n      and\n      0xffffffffffffffffffffffffffffffffffffffff\n      and\n      dup2\n      mstore\n      0x20\n      add\n      swap1\n      dup2\n      mstore\n      0x20\n      add\n      0x00\n      keccak256\n        /* \"contracts/nftmarket.sol\":1983:2025  tokenIdToIndex[_contractAddress][_tokenId] */\n      0x00\n        /* \"contracts/nftmarket.sol\":2016:2024  _tokenId */\n      dup7\n        /* \"contracts/nftmarket.sol\":1983:2025  tokenIdToIndex[_contractAddress][_tokenId] */\n      dup2\n      mstore\n      0x20\n      add\n      swap1\n      dup2\n      mstore\n      0x20\n      add\n      0x00\n      keccak256\n        /* \"contracts/nftmarket.sol\":1983:2071  tokenIdToIndex[_contractAddress][_tokenId] = contractOrders[_contractAddress].length - 1 */\n      dup2\n      swap1\n      sstore\n      pop\n        /* \"contracts/nftmarket.sol\":2126:2175  Order(_contractAddress, _tokenId, seller, _price) */\n      mload(0x40)\n      dup1\n      0x80\n      add\n      0x40\n      mstore\n      dup1\n        /* \"contracts/nftmarket.sol\":2132:2148  _contractAddress */\n      dup7\n        /* \"contracts/nftmarket.sol\":2126:2175  Order(_contractAddress, _tokenId, seller, _price) */\n      0xffffffffffffffffffffffffffffffffffffffff\n      and\n      dup2\n      mstore\n      0x20\n      add\n        /* \"contracts/nftmarket.sol\":2150:2158  _tokenId */\n      dup6\n        /* \"contracts/nftmarket.sol\":2126:2175  Order(_contractAddress, _tokenId, seller, _price) */\n      dup2\n      mstore\n      0x20\n      add\n        /* \"contracts/nftmarket.sol\":2160:2166  seller */\n      dup3\n        /* \"contracts/nftmarket.sol\":2126:2175  Order(_contractAddress, _tokenId, seller, _price) */\n      0xffffffffffffffffffffffffffffffffffffffff\n      and\n      dup2\n      mstore\n      0x20\n      add\n        /* \"contracts/nftmarket.sol\":2168:2174  _price */\n      dup5\n        /* \"contracts/nftmarket.sol\":2126:2175  Order(_contractAddress, _tokenId, seller, _price) */\n      dup2\n      mstore\n      pop\n        /* \"contracts/nftmarket.sol\":2081:2095  orderOfTokenId */\n      0x03\n        /* \"contracts/nftmarket.sol\":2081:2113  orderOfTokenId[_contractAddress] */\n      0x00\n        /* \"contracts/nftmarket.sol\":2096:2112  _contractAddress */\n      dup8\n        /* \"contracts/nftmarket.sol\":2081:2113  orderOfTokenId[_contractAddress] */\n      0xffffffffffffffffffffffffffffffffffffffff\n      and\n      0xffffffffffffffffffffffffffffffffffffffff\n      and\n      dup2\n      mstore\n      0x20\n      add\n      swap1\n      dup2\n      mstore\n      0x20\n      add\n      0x00\n      keccak256\n        /* \"contracts/nftmarket.sol\":2081:2123  orderOfTokenId[_contractAddress][_tokenId] */\n      0x00\n        /* \"contracts/nftmarket.sol\":2114:2122  _tokenId */\n      dup7\n        /* \"contracts/nftmarket.sol\":2081:2123  orderOfTokenId[_contractAddress][_tokenId] */\n      dup2\n      mstore\n      0x20\n      add\n      swap1\n      dup2\n      mstore\n      0x20\n      add\n      0x00\n      keccak256\n        /* \"contracts/nftmarket.sol\":2081:2175  orderOfTokenId[_contractAddress][_tokenId] = Order(_contractAddress, _tokenId, seller, _price) */\n      0x00\n      dup3\n      add\n      mload\n      dup2\n      0x00\n      add\n      exp(0x0100, 0x00)\n      dup2\n      sload\n      dup2\n      0xffffffffffffffffffffffffffffffffffffffff\n      mul\n      not\n      and\n      swap1\n      dup4\n      0xffffffffffffffffffffffffffffffffffffffff\n      and\n      mul\n      or\n      swap1\n      sstore\n      pop\n      0x20\n      dup3\n      add\n      mload\n      dup2\n      0x01\n      add\n      sstore\n      0x40\n      dup3\n      add\n      mload\n      dup2\n      0x02\n      add\n      exp(0x0100, 0x00)\n      dup2\n      sload\n      dup2\n      0xffffffffffffffffffffffffffffffffffffffff\n      mul\n      not\n      and\n      swap1\n      dup4\n      0xffffffffffffffffffffffffffffffffffffffff\n      and\n      mul\n      or\n      swap1\n      sstore\n      pop\n      0x60\n      dup3\n      add\n      mload\n      dup2\n      0x03\n      add\n      sstore\n      swap1\n      pop\n      pop\n        /* \"contracts/nftmarket.sol\":2227:2235  _tokenId */\n      dup4\n        /* \"contracts/nftmarket.sol\":2219:2225  seller */\n      dup2\n        /* \"contracts/nftmarket.sol\":2192:2244  NewOrder(_contractAddress, seller, _tokenId, _price) */\n      0xffffffffffffffffffffffffffffffffffffffff\n      and\n        /* \"contracts/nftmarket.sol\":2201:2217  _contractAddress */\n      dup7\n        /* \"contracts/nftmarket.sol\":2192:2244  NewOrder(_contractAddress, seller, _tokenId, _price) */\n      0xffffffffffffffffffffffffffffffffffffffff\n      and\n      0x3348bbe3128f82fa60a003aca513985072cacb60f82331c91fb0322d84984b61\n        /* \"contracts/nftmarket.sol\":2237:2243  _price */\n      dup7\n        /* \"contracts/nftmarket.sol\":2192:2244  NewOrder(_contractAddress, seller, _tokenId, _price) */\n      mload(0x40)\n      tag_105\n      swap2\n      swap1\n      tag_19\n      jump\t// in\n    tag_105:\n      mload(0x40)\n      dup1\n      swap2\n      sub\n      swap1\n      log4\n        /* \"contracts/nftmarket.sol\":1506:2251  {... */\n      pop\n      pop\n        /* \"contracts/nftmarket.sol\":1422:2251  function listNFT(address _contractAddress, uint256 _tokenId, uint256 _price) public {... */\n      pop\n      pop\n      pop\n      jump\t// out\n        /* \"contracts/nftmarket.sol\":2257:2959  function buy(address _contractAddress, uint256 _tokenId) public {... */\n    tag_49:\n        /* \"contracts/nftmarket.sol\":2367:2368  0 */\n      0x00\n        /* \"contracts/nftmarket.sol\":2339:2369  _contractAddress != address(0) */\n      0xffffffffffffffffffffffffffffffffffffffff\n      and\n        /* \"contracts/nftmarket.sol\":2339:2355  _contractAddress */\n      dup3\n        /* \"contracts/nftmarket.sol\":2339:2369  _contractAddress != address(0) */\n      0xffffffffffffffffffffffffffffffffffffffff\n      and\n      sub\n        /* \"contracts/nftmarket.sol\":2331:2398  require(_contractAddress != address(0), \"contract address is zero\") */\n      tag_107\n      jumpi\n      mload(0x40)\n      0x08c379a000000000000000000000000000000000000000000000000000000000\n      dup2\n      mstore\n      0x04\n      add\n      tag_108\n      swap1\n      tag_60\n      jump\t// in\n    tag_108:\n      mload(0x40)\n      dup1\n      swap2\n      sub\n      swap1\n      revert\n    tag_107:\n        /* \"contracts/nftmarket.sol\":2409:2420  IERC721 nft */\n      0x00\n        /* \"contracts/nftmarket.sol\":2431:2447  _contractAddress */\n      dup3\n        /* \"contracts/nftmarket.sol\":2409:2448  IERC721 nft = IERC721(_contractAddress) */\n      swap1\n      pop\n        /* \"contracts/nftmarket.sol\":2458:2476  Order memory order */\n      0x00\n        /* \"contracts/nftmarket.sol\":2479:2493  orderOfTokenId */\n      0x03\n        /* \"contracts/nftmarket.sol\":2479:2511  orderOfTokenId[_contractAddress] */\n      0x00\n        /* \"contracts/nftmarket.sol\":2494:2510  _contractAddress */\n      dup6\n        /* \"contracts/nftmarket.sol\":2479:2511  orderOfTokenId[_contractAddress] */\n      0xffffffffffffffffffffffffffffffffffffffff\n      and\n      0xffffffffffffffffffffffffffffffffffffffff\n      and\n      dup2\n      mstore\n      0x20\n      add\n      swap1\n      dup2\n      mstore\n      0x20\n      add\n      0x00\n      keccak256\n        /* \"contracts/nftmarket.sol\":2479:2521  orderOfTokenId[_contractAddress][_tokenId] */\n      0x00\n        /* \"contracts/nftmarket.sol\":2512:2520  _tokenId */\n      dup5\n        /* \"contracts/nftmarket.sol\":2479:2521  orderOfTokenId[_contractAddress][_tokenId] */\n      dup2\n      mstore\n      0x20\n      add\n      swap1\n      dup2\n      mstore\n      0x20\n      add\n      0x00\n      keccak256\n        /* \"contracts/nftmarket.sol\":2458:2521  Order memory order = orderOfTokenId[_contractAddress][_tokenId] */\n      mload(0x40)\n      dup1\n      0x80\n      add\n      0x40\n      mstore\n      swap1\n      dup2\n      0x00\n      dup3\n      add\n      0x00\n      swap1\n      sload\n      swap1\n      0x0100\n      exp\n      swap1\n      div\n      0xffffffffffffffffffffffffffffffffffffffff\n      and\n      0xffffffffffffffffffffffffffffffffffffffff\n      and\n      0xffffffffffffffffffffffffffffffffffffffff\n      and\n      dup2\n      mstore\n      0x20\n      add\n      0x01\n      dup3\n      add\n      sload\n      dup2\n      mstore\n      0x20\n      add\n      0x02\n      dup3\n      add\n      0x00\n      swap1\n      sload\n      swap1\n      0x0100\n      exp\n      swap1\n      div\n      0xffffffffffffffffffffffffffffffffffffffff\n      and\n      0xffffffffffffffffffffffffffffffffffffffff\n      and\n      0xffffffffffffffffffffffffffffffffffffffff\n      and\n      dup2\n      mstore\n      0x20\n      add\n      0x03\n      dup3\n      add\n      sload\n      dup2\n      mstore\n      pop\n      pop\n      swap1\n      pop\n        /* \"contracts/nftmarket.sol\":2563:2564  0 */\n      0x00\n        /* \"contracts/nftmarket.sol\":2539:2565  order.seller != address(0) */\n      0xffffffffffffffffffffffffffffffffffffffff\n      and\n        /* \"contracts/nftmarket.sol\":2539:2544  order */\n      dup2\n        /* \"contracts/nftmarket.sol\":2539:2551  order.seller */\n      0x40\n      add\n      mload\n        /* \"contracts/nftmarket.sol\":2539:2565  order.seller != address(0) */\n      0xffffffffffffffffffffffffffffffffffffffff\n      and\n      sub\n        /* \"contracts/nftmarket.sol\":2531:2590  require(order.seller != address(0), \"token has not listed\") */\n      tag_109\n      jumpi\n      mload(0x40)\n      0x08c379a000000000000000000000000000000000000000000000000000000000\n      dup2\n      mstore\n      0x04\n      add\n      tag_110\n      swap1\n      tag_63\n      jump\t// in\n    tag_110:\n      mload(0x40)\n      dup1\n      swap2\n      sub\n      swap1\n      revert\n    tag_109:\n        /* \"contracts/nftmarket.sol\":2624:2634  msg.sender */\n      caller\n        /* \"contracts/nftmarket.sol\":2608:2634  order.seller != msg.sender */\n      0xffffffffffffffffffffffffffffffffffffffff\n      and\n        /* \"contracts/nftmarket.sol\":2608:2613  order */\n      dup2\n        /* \"contracts/nftmarket.sol\":2608:2620  order.seller */\n      0x40\n      add\n      mload\n        /* \"contracts/nftmarket.sol\":2608:2634  order.seller != msg.sender */\n      0xffffffffffffffffffffffffffffffffffffffff\n      and\n      sub\n        /* \"contracts/nftmarket.sol\":2600:2654  require(order.seller != msg.sender, \"buyer is seller\") */\n      tag_111\n      jumpi\n      mload(0x40)\n      0x08c379a000000000000000000000000000000000000000000000000000000000\n      dup2\n      mstore\n      0x04\n      add\n      tag_112\n      swap1\n      tag_113\n      jump\t// in\n    tag_112:\n      mload(0x40)\n      dup1\n      swap2\n      sub\n      swap1\n      revert\n    tag_111:\n        /* \"contracts/nftmarket.sol\":2681:2686  erc20 */\n      0x01\n      0x00\n      swap1\n      sload\n      swap1\n      0x0100\n      exp\n      swap1\n      div\n      0xffffffffffffffffffffffffffffffffffffffff\n      and\n        /* \"contracts/nftmarket.sol\":2681:2699  erc20.transferFrom */\n      0xffffffffffffffffffffffffffffffffffffffff\n      and\n      0x23b872dd\n        /* \"contracts/nftmarket.sol\":2700:2710  msg.sender */\n      caller\n        /* \"contracts/nftmarket.sol\":2712:2717  order */\n      dup4\n        /* \"contracts/nftmarket.sol\":2712:2724  order.seller */\n      0x40\n      add\n      mload\n        /* \"contracts/nftmarket.sol\":2726:2731  order */\n      dup5\n        /* \"contracts/nftmarket.sol\":2726:2737  order.price */\n      0x60\n      add\n      mload\n        /* \"contracts/nftmarket.sol\":2681:2738  erc20.transferFrom(msg.sender, order.seller, order.price) */\n      mload(0x40)\n      dup5\n      0xffffffff\n      and\n      0xe0\n      shl\n      dup2\n      mstore\n      0x04\n      add\n      tag_114\n      swap4\n      swap3\n      swap2\n      swap1\n      tag_115\n      jump\t// in\n    tag_114:\n      0x20\n      mload(0x40)\n      dup1\n      dup4\n      sub\n      dup2\n      0x00\n      dup8\n      gas\n      call\n      iszero\n      dup1\n      iszero\n      tag_117\n      jumpi\n      returndatasize\n      0x00\n      dup1\n      returndatacopy\n      revert(0x00, returndatasize)\n    tag_117:\n      pop\n      pop\n      pop\n      pop\n      mload(0x40)\n      returndatasize\n      not(0x1f)\n      0x1f\n      dup3\n      add\n      and\n      dup3\n      add\n      dup1\n      0x40\n      mstore\n      pop\n      dup2\n      add\n      swap1\n      tag_118\n      swap2\n      swap1\n      tag_98\n      jump\t// in\n    tag_118:\n        /* \"contracts/nftmarket.sol\":2673:2762  require(erc20.transferFrom(msg.sender, order.seller, order.price), \"transfer erc20 fail\") */\n      tag_119\n      jumpi\n      mload(0x40)\n      0x08c379a000000000000000000000000000000000000000000000000000000000\n      dup2\n      mstore\n      0x04\n      add\n      tag_120\n      swap1\n      tag_121\n      jump\t// in\n    tag_120:\n      mload(0x40)\n      dup1\n      swap2\n      sub\n      swap1\n      revert\n    tag_119:\n        /* \"contracts/nftmarket.sol\":2772:2775  nft */\n      dup2\n        /* \"contracts/nftmarket.sol\":2772:2792  nft.safeTransferFrom */\n      0xffffffffffffffffffffffffffffffffffffffff\n      and\n      0x42842e0e\n        /* \"contracts/nftmarket.sol\":2793:2798  order */\n      dup3\n        /* \"contracts/nftmarket.sol\":2793:2805  order.seller */\n      0x40\n      add\n      mload\n        /* \"contracts/nftmarket.sol\":2807:2817  msg.sender */\n      caller\n        /* \"contracts/nftmarket.sol\":2819:2827  _tokenId */\n      dup7\n        /* \"contracts/nftmarket.sol\":2772:2828  nft.safeTransferFrom(order.seller, msg.sender, _tokenId) */\n      mload(0x40)\n      dup5\n      0xffffffff\n      and\n      0xe0\n      shl\n      dup2\n      mstore\n      0x04\n      add\n      tag_122\n      swap4\n      swap3\n      swap2\n      swap1\n      tag_115\n      jump\t// in\n    tag_122:\n      0x00\n      mload(0x40)\n      dup1\n      dup4\n      sub\n      dup2\n      0x00\n      dup8\n      dup1\n      extcodesize\n      iszero\n      dup1\n      iszero\n      tag_123\n      jumpi\n      0x00\n      dup1\n      revert\n    tag_123:\n      pop\n      gas\n      call\n      iszero\n      dup1\n      iszero\n      tag_125\n      jumpi\n      returndatasize\n      0x00\n      dup1\n      returndatacopy\n      revert(0x00, returndatasize)\n    tag_125:\n      pop\n      pop\n      pop\n      pop\n        /* \"contracts/nftmarket.sol\":2839:2879  _removeOrder(_contractAddress, _tokenId) */\n      tag_126\n        /* \"contracts/nftmarket.sol\":2852:2868  _contractAddress */\n      dup5\n        /* \"contracts/nftmarket.sol\":2870:2878  _tokenId */\n      dup5\n        /* \"contracts/nftmarket.sol\":2839:2851  _removeOrder */\n      tag_81\n        /* \"contracts/nftmarket.sol\":2839:2879  _removeOrder(_contractAddress, _tokenId) */\n      jump\t// in\n    tag_126:\n        /* \"contracts/nftmarket.sol\":2930:2938  _tokenId */\n      dup3\n        /* \"contracts/nftmarket.sol\":2918:2928  msg.sender */\n      caller\n        /* \"contracts/nftmarket.sol\":2895:2952  Deal(_contractAddress, msg.sender, _tokenId, order.price) */\n      0xffffffffffffffffffffffffffffffffffffffff\n      and\n        /* \"contracts/nftmarket.sol\":2900:2916  _contractAddress */\n      dup6\n        /* \"contracts/nftmarket.sol\":2895:2952  Deal(_contractAddress, msg.sender, _tokenId, order.price) */\n      0xffffffffffffffffffffffffffffffffffffffff\n      and\n      0x424d5e5f0192c7dacdbe646ca31b00299146d883d76a95ef5cddbac7cd342eab\n        /* \"contracts/nftmarket.sol\":2940:2945  order */\n      dup5\n        /* \"contracts/nftmarket.sol\":2940:2951  order.price */\n      0x60\n      add\n      mload\n        /* \"contracts/nftmarket.sol\":2895:2952  Deal(_contractAddress, msg.sender, _tokenId, order.price) */\n      mload(0x40)\n      tag_127\n      swap2\n      swap1\n      tag_19\n      jump\t// in\n    tag_127:\n      mload(0x40)\n      dup1\n      swap2\n      sub\n      swap1\n      log4\n        /* \"contracts/nftmarket.sol\":2321:2959  {... */\n      pop\n      pop\n        /* \"contracts/nftmarket.sol\":2257:2959  function buy(address _contractAddress, uint256 _tokenId) public {... */\n      pop\n      pop\n      jump\t// out\n        /* \"contracts/nftmarket.sol\":4527:4671  function getOrderLength(address _contractAddress) external view returns(uint256) {... */\n    tag_53:\n        /* \"contracts/nftmarket.sol\":4599:4606  uint256 */\n      0x00\n        /* \"contracts/nftmarket.sol\":4625:4639  contractOrders */\n      0x02\n        /* \"contracts/nftmarket.sol\":4625:4657  contractOrders[_contractAddress] */\n      0x00\n        /* \"contracts/nftmarket.sol\":4640:4656  _contractAddress */\n      dup4\n        /* \"contracts/nftmarket.sol\":4625:4657  contractOrders[_contractAddress] */\n      0xffffffffffffffffffffffffffffffffffffffff\n      and\n      0xffffffffffffffffffffffffffffffffffffffff\n      and\n      dup2\n      mstore\n      0x20\n      add\n      swap1\n      dup2\n      mstore\n      0x20\n      add\n      0x00\n      keccak256\n        /* \"contracts/nftmarket.sol\":4625:4664  contractOrders[_contractAddress].length */\n      dup1\n      sload\n      swap1\n      pop\n        /* \"contracts/nftmarket.sol\":4618:4664  return contractOrders[_contractAddress].length */\n      swap1\n      pop\n        /* \"contracts/nftmarket.sol\":4527:4671  function getOrderLength(address _contractAddress) external view returns(uint256) {... */\n      swap2\n      swap1\n      pop\n      jump\t// out\n        /* \"contracts/nftmarket.sol\":4677:5330  function _removeOrder(address _contractAddress, uint256 _tokenId) internal {... */\n    tag_81:\n        /* \"contracts/nftmarket.sol\":4762:4775  uint256 index */\n      0x00\n        /* \"contracts/nftmarket.sol\":4778:4792  tokenIdToIndex */\n      0x04\n        /* \"contracts/nftmarket.sol\":4778:4810  tokenIdToIndex[_contractAddress] */\n      0x00\n        /* \"contracts/nftmarket.sol\":4793:4809  _contractAddress */\n      dup5\n        /* \"contracts/nftmarket.sol\":4778:4810  tokenIdToIndex[_contractAddress] */\n      0xffffffffffffffffffffffffffffffffffffffff\n      and\n      0xffffffffffffffffffffffffffffffffffffffff\n      and\n      dup2\n      mstore\n      0x20\n      add\n      swap1\n      dup2\n      mstore\n      0x20\n      add\n      0x00\n      keccak256\n        /* \"contracts/nftmarket.sol\":4778:4820  tokenIdToIndex[_contractAddress][_tokenId] */\n      0x00\n        /* \"contracts/nftmarket.sol\":4811:4819  _tokenId */\n      dup4\n        /* \"contracts/nftmarket.sol\":4778:4820  tokenIdToIndex[_contractAddress][_tokenId] */\n      dup2\n      mstore\n      0x20\n      add\n      swap1\n      dup2\n      mstore\n      0x20\n      add\n      0x00\n      keccak256\n      sload\n        /* \"contracts/nftmarket.sol\":4762:4820  uint256 index = tokenIdToIndex[_contractAddress][_tokenId] */\n      swap1\n      pop\n        /* \"contracts/nftmarket.sol\":4830:4847  uint256 lastIndex */\n      0x00\n        /* \"contracts/nftmarket.sol\":4892:4893  1 */\n      0x01\n        /* \"contracts/nftmarket.sol\":4850:4864  contractOrders */\n      0x02\n        /* \"contracts/nftmarket.sol\":4850:4882  contractOrders[_contractAddress] */\n      0x00\n        /* \"contracts/nftmarket.sol\":4865:4881  _contractAddress */\n      dup7\n        /* \"contracts/nftmarket.sol\":4850:4882  contractOrders[_contractAddress] */\n      0xffffffffffffffffffffffffffffffffffffffff\n      and\n      0xffffffffffffffffffffffffffffffffffffffff\n      and\n      dup2\n      mstore\n      0x20\n      add\n      swap1\n      dup2\n      mstore\n      0x20\n      add\n      0x00\n      keccak256\n        /* \"contracts/nftmarket.sol\":4850:4889  contractOrders[_contractAddress].length */\n      dup1\n      sload\n      swap1\n      pop\n        /* \"contracts/nftmarket.sol\":4850:4893  contractOrders[_contractAddress].length - 1 */\n      tag_130\n      swap2\n      swap1\n      tag_104\n      jump\t// in\n    tag_130:\n        /* \"contracts/nftmarket.sol\":4830:4893  uint256 lastIndex = contractOrders[_contractAddress].length - 1 */\n      swap1\n      pop\n        /* \"contracts/nftmarket.sol\":4915:4924  lastIndex */\n      dup1\n        /* \"contracts/nftmarket.sol\":4906:4911  index */\n      dup3\n        /* \"contracts/nftmarket.sol\":4906:4924  index != lastIndex */\n      eq\n        /* \"contracts/nftmarket.sol\":4903:5158  if(index != lastIndex) {... */\n      tag_131\n      jumpi\n        /* \"contracts/nftmarket.sol\":4940:4963  Order storage lastOrder */\n      0x00\n        /* \"contracts/nftmarket.sol\":4966:4980  contractOrders */\n      0x02\n        /* \"contracts/nftmarket.sol\":4966:4998  contractOrders[_contractAddress] */\n      0x00\n        /* \"contracts/nftmarket.sol\":4981:4997  _contractAddress */\n      dup7\n        /* \"contracts/nftmarket.sol\":4966:4998  contractOrders[_contractAddress] */\n      0xffffffffffffffffffffffffffffffffffffffff\n      and\n      0xffffffffffffffffffffffffffffffffffffffff\n      and\n      dup2\n      mstore\n      0x20\n      add\n      swap1\n      dup2\n      mstore\n      0x20\n      add\n      0x00\n      keccak256\n        /* \"contracts/nftmarket.sol\":4999:5008  lastIndex */\n      dup3\n        /* \"contracts/nftmarket.sol\":4966:5009  contractOrders[_contractAddress][lastIndex] */\n      dup2\n      sload\n      dup2\n      lt\n      tag_132\n      jumpi\n      tag_133\n      tag_69\n      jump\t// in\n    tag_133:\n    tag_132:\n      swap1\n      0x00\n      mstore\n      keccak256(0x00, 0x20)\n      swap1\n      0x04\n      mul\n      add\n        /* \"contracts/nftmarket.sol\":4940:5009  Order storage lastOrder = contractOrders[_contractAddress][lastIndex] */\n      swap1\n      pop\n        /* \"contracts/nftmarket.sol\":5065:5074  lastOrder */\n      dup1\n        /* \"contracts/nftmarket.sol\":5023:5037  contractOrders */\n      0x02\n        /* \"contracts/nftmarket.sol\":5023:5055  contractOrders[_contractAddress] */\n      0x00\n        /* \"contracts/nftmarket.sol\":5038:5054  _contractAddress */\n      dup8\n        /* \"contracts/nftmarket.sol\":5023:5055  contractOrders[_contractAddress] */\n      0xffffffffffffffffffffffffffffffffffffffff\n      and\n      0xffffffffffffffffffffffffffffffffffffffff\n      and\n      dup2\n      mstore\n      0x20\n      add\n      swap1\n      dup2\n      mstore\n      0x20\n      add\n      0x00\n      keccak256\n        /* \"contracts/nftmarket.sol\":5056:5061  index */\n      dup5\n        /* \"contracts/nftmarket.sol\":5023:5062  contractOrders[_contractAddress][index] */\n      dup2\n      sload\n      dup2\n      lt\n      tag_135\n      jumpi\n      tag_136\n      tag_69\n      jump\t// in\n    tag_136:\n    tag_135:\n      swap1\n      0x00\n      mstore\n      keccak256(0x00, 0x20)\n      swap1\n      0x04\n      mul\n      add\n        /* \"contracts/nftmarket.sol\":5023:5074  contractOrders[_contractAddress][index] = lastOrder */\n      0x00\n      dup3\n      add\n      0x00\n      swap1\n      sload\n      swap1\n      0x0100\n      exp\n      swap1\n      div\n      0xffffffffffffffffffffffffffffffffffffffff\n      and\n      dup2\n      0x00\n      add\n      exp(0x0100, 0x00)\n      dup2\n      sload\n      dup2\n      0xffffffffffffffffffffffffffffffffffffffff\n      mul\n      not\n      and\n      swap1\n      dup4\n      0xffffffffffffffffffffffffffffffffffffffff\n      and\n      mul\n      or\n      swap1\n      sstore\n      pop\n      0x01\n      dup3\n      add\n      sload\n      dup2\n      0x01\n      add\n      sstore\n      0x02\n      dup3\n      add\n      0x00\n      swap1\n      sload\n      swap1\n      0x0100\n      exp\n      swap1\n      div\n      0xffffffffffffffffffffffffffffffffffffffff\n      and\n      dup2\n      0x02\n      add\n      exp(0x0100, 0x00)\n      dup2\n      sload\n      dup2\n      0xffffffffffffffffffffffffffffffffffffffff\n      mul\n      not\n      and\n      swap1\n      dup4\n      0xffffffffffffffffffffffffffffffffffffffff\n      and\n      mul\n      or\n      swap1\n      sstore\n      pop\n      0x03\n      dup3\n      add\n      sload\n      dup2\n      0x03\n      add\n      sstore\n      swap1\n      pop\n      pop\n        /* \"contracts/nftmarket.sol\":5142:5147  index */\n      dup3\n        /* \"contracts/nftmarket.sol\":5088:5102  tokenIdToIndex */\n      0x04\n        /* \"contracts/nftmarket.sol\":5088:5120  tokenIdToIndex[_contractAddress] */\n      0x00\n        /* \"contracts/nftmarket.sol\":5103:5119  _contractAddress */\n      dup8\n        /* \"contracts/nftmarket.sol\":5088:5120  tokenIdToIndex[_contractAddress] */\n      0xffffffffffffffffffffffffffffffffffffffff\n      and\n      0xffffffffffffffffffffffffffffffffffffffff\n      and\n      dup2\n      mstore\n      0x20\n      add\n      swap1\n      dup2\n      mstore\n      0x20\n      add\n      0x00\n      keccak256\n        /* \"contracts/nftmarket.sol\":5088:5139  tokenIdToIndex[_contractAddress][lastOrder.tokenId] */\n      0x00\n        /* \"contracts/nftmarket.sol\":5121:5130  lastOrder */\n      dup4\n        /* \"contracts/nftmarket.sol\":5121:5138  lastOrder.tokenId */\n      0x01\n      add\n      sload\n        /* \"contracts/nftmarket.sol\":5088:5139  tokenIdToIndex[_contractAddress][lastOrder.tokenId] */\n      dup2\n      mstore\n      0x20\n      add\n      swap1\n      dup2\n      mstore\n      0x20\n      add\n      0x00\n      keccak256\n        /* \"contracts/nftmarket.sol\":5088:5147  tokenIdToIndex[_contractAddress][lastOrder.tokenId] = index */\n      dup2\n      swap1\n      sstore\n      pop\n        /* \"contracts/nftmarket.sol\":4926:5158  {... */\n      pop\n        /* \"contracts/nftmarket.sol\":4903:5158  if(index != lastIndex) {... */\n    tag_131:\n        /* \"contracts/nftmarket.sol\":5167:5181  contractOrders */\n      0x02\n        /* \"contracts/nftmarket.sol\":5167:5199  contractOrders[_contractAddress] */\n      0x00\n        /* \"contracts/nftmarket.sol\":5182:5198  _contractAddress */\n      dup6\n        /* \"contracts/nftmarket.sol\":5167:5199  contractOrders[_contractAddress] */\n      0xffffffffffffffffffffffffffffffffffffffff\n      and\n      0xffffffffffffffffffffffffffffffffffffffff\n      and\n      dup2\n      mstore\n      0x20\n      add\n      swap1\n      dup2\n      mstore\n      0x20\n      add\n      0x00\n      keccak256\n        /* \"contracts/nftmarket.sol\":5167:5205  contractOrders[_contractAddress].pop() */\n      dup1\n      sload\n      dup1\n      tag_138\n      jumpi\n      tag_139\n      tag_140\n      jump\t// in\n    tag_139:\n    tag_138:\n      0x01\n      swap1\n      sub\n      dup2\n      dup2\n      swap1\n      0x00\n      mstore\n      keccak256(0x00, 0x20)\n      swap1\n      0x04\n      mul\n      add\n      0x00\n      dup1\n      dup3\n      add\n      exp(0x0100, 0x00)\n      dup2\n      sload\n      swap1\n      0xffffffffffffffffffffffffffffffffffffffff\n      mul\n      not\n      and\n      swap1\n      sstore\n      0x01\n      dup3\n      add\n      0x00\n      swap1\n      sstore\n      0x02\n      dup3\n      add\n      exp(0x0100, 0x00)\n      dup2\n      sload\n      swap1\n      0xffffffffffffffffffffffffffffffffffffffff\n      mul\n      not\n      and\n      swap1\n      sstore\n      0x03\n      dup3\n      add\n      0x00\n      swap1\n      sstore\n      pop\n      pop\n      swap1\n      sstore\n        /* \"contracts/nftmarket.sol\":5222:5236  orderOfTokenId */\n      0x03\n        /* \"contracts/nftmarket.sol\":5222:5254  orderOfTokenId[_contractAddress] */\n      0x00\n        /* \"contracts/nftmarket.sol\":5237:5253  _contractAddress */\n      dup6\n        /* \"contracts/nftmarket.sol\":5222:5254  orderOfTokenId[_contractAddress] */\n      0xffffffffffffffffffffffffffffffffffffffff\n      and\n      0xffffffffffffffffffffffffffffffffffffffff\n      and\n      dup2\n      mstore\n      0x20\n      add\n      swap1\n      dup2\n      mstore\n      0x20\n      add\n      0x00\n      keccak256\n        /* \"contracts/nftmarket.sol\":5222:5264  orderOfTokenId[_contractAddress][_tokenId] */\n      0x00\n        /* \"contracts/nftmarket.sol\":5255:5263  _tokenId */\n      dup5\n        /* \"contracts/nftmarket.sol\":5222:5264  orderOfTokenId[_contractAddress][_tokenId] */\n      dup2\n      mstore\n      0x20\n      add\n      swap1\n      dup2\n      mstore\n      0x20\n      add\n      0x00\n      keccak256\n      0x00\n        /* \"contracts/nftmarket.sol\":5215:5264  delete orderOfTokenId[_contractAddress][_tokenId] */\n      dup1\n      dup3\n      add\n      exp(0x0100, 0x00)\n      dup2\n      sload\n      swap1\n      0xffffffffffffffffffffffffffffffffffffffff\n      mul\n      not\n      and\n      swap1\n      sstore\n      0x01\n      dup3\n      add\n      0x00\n      swap1\n      sstore\n      0x02\n      dup3\n      add\n      exp(0x0100, 0x00)\n      dup2\n      sload\n      swap1\n      0xffffffffffffffffffffffffffffffffffffffff\n      mul\n      not\n      and\n      swap1\n      sstore\n      0x03\n      dup3\n      add\n      0x00\n      swap1\n      sstore\n      pop\n      pop\n        /* \"contracts/nftmarket.sol\":5281:5295  tokenIdToIndex */\n      0x04\n        /* \"contracts/nftmarket.sol\":5281:5313  tokenIdToIndex[_contractAddress] */\n      0x00\n        /* \"contracts/nftmarket.sol\":5296:5312  _contractAddress */\n      dup6\n        /* \"contracts/nftmarket.sol\":5281:5313  tokenIdToIndex[_contractAddress] */\n      0xffffffffffffffffffffffffffffffffffffffff\n      and\n      0xffffffffffffffffffffffffffffffffffffffff\n      and\n      dup2\n      mstore\n      0x20\n      add\n      swap1\n      dup2\n      mstore\n      0x20\n      add\n      0x00\n      keccak256\n        /* \"contracts/nftmarket.sol\":5281:5323  tokenIdToIndex[_contractAddress][_tokenId] */\n      0x00\n        /* \"contracts/nftmarket.sol\":5314:5322  _tokenId */\n      dup5\n        /* \"contracts/nftmarket.sol\":5281:5323  tokenIdToIndex[_contractAddress][_tokenId] */\n      dup2\n      mstore\n      0x20\n      add\n      swap1\n      dup2\n      mstore\n      0x20\n      add\n      0x00\n      keccak256\n        /* \"contracts/nftmarket.sol\":5274:5323  delete tokenIdToIndex[_contractAddress][_tokenId] */\n      0x00\n      swap1\n      sstore\n        /* \"contracts/nftmarket.sol\":4752:5330  {... */\n      pop\n      pop\n        /* \"contracts/nftmarket.sol\":4677:5330  function _removeOrder(address _contractAddress, uint256 _tokenId) internal {... */\n      pop\n      pop\n      jump\t// out\n        /* \"#utility.yul\":88:205   */\n    tag_143:\n        /* \"#utility.yul\":197:198   */\n      0x00\n        /* \"#utility.yul\":194:195   */\n      dup1\n        /* \"#utility.yul\":187:199   */\n      revert\n        /* \"#utility.yul\":334:460   */\n    tag_145:\n        /* \"#utility.yul\":371:378   */\n      0x00\n        /* \"#utility.yul\":411:453   */\n      0xffffffffffffffffffffffffffffffffffffffff\n        /* \"#utility.yul\":404:409   */\n      dup3\n        /* \"#utility.yul\":400:454   */\n      and\n        /* \"#utility.yul\":389:454   */\n      swap1\n      pop\n        /* \"#utility.yul\":334:460   */\n      swap2\n      swap1\n      pop\n      jump\t// out\n        /* \"#utility.yul\":466:562   */\n    tag_146:\n        /* \"#utility.yul\":503:510   */\n      0x00\n        /* \"#utility.yul\":532:556   */\n      tag_185\n        /* \"#utility.yul\":550:555   */\n      dup3\n        /* \"#utility.yul\":532:556   */\n      tag_145\n      jump\t// in\n    tag_185:\n        /* \"#utility.yul\":521:556   */\n      swap1\n      pop\n        /* \"#utility.yul\":466:562   */\n      swap2\n      swap1\n      pop\n      jump\t// out\n        /* \"#utility.yul\":568:690   */\n    tag_147:\n        /* \"#utility.yul\":641:665   */\n      tag_187\n        /* \"#utility.yul\":659:664   */\n      dup2\n        /* \"#utility.yul\":641:665   */\n      tag_146\n      jump\t// in\n    tag_187:\n        /* \"#utility.yul\":634:639   */\n      dup2\n        /* \"#utility.yul\":631:666   */\n      eq\n        /* \"#utility.yul\":621:684   */\n      tag_188\n      jumpi\n        /* \"#utility.yul\":680:681   */\n      0x00\n        /* \"#utility.yul\":677:678   */\n      dup1\n        /* \"#utility.yul\":670:682   */\n      revert\n        /* \"#utility.yul\":621:684   */\n    tag_188:\n        /* \"#utility.yul\":568:690   */\n      pop\n      jump\t// out\n        /* \"#utility.yul\":696:835   */\n    tag_148:\n        /* \"#utility.yul\":742:747   */\n      0x00\n        /* \"#utility.yul\":780:786   */\n      dup2\n        /* \"#utility.yul\":767:787   */\n      calldataload\n        /* \"#utility.yul\":758:787   */\n      swap1\n      pop\n        /* \"#utility.yul\":796:829   */\n      tag_190\n        /* \"#utility.yul\":823:828   */\n      dup2\n        /* \"#utility.yul\":796:829   */\n      tag_147\n      jump\t// in\n    tag_190:\n        /* \"#utility.yul\":696:835   */\n      swap3\n      swap2\n      pop\n      pop\n      jump\t// out\n        /* \"#utility.yul\":841:918   */\n    tag_149:\n        /* \"#utility.yul\":878:885   */\n      0x00\n        /* \"#utility.yul\":907:912   */\n      dup2\n        /* \"#utility.yul\":896:912   */\n      swap1\n      pop\n        /* \"#utility.yul\":841:918   */\n      swap2\n      swap1\n      pop\n      jump\t// out\n        /* \"#utility.yul\":924:1046   */\n    tag_150:\n        /* \"#utility.yul\":997:1021   */\n      tag_193\n        /* \"#utility.yul\":1015:1020   */\n      dup2\n        /* \"#utility.yul\":997:1021   */\n      tag_149\n      jump\t// in\n    tag_193:\n        /* \"#utility.yul\":990:995   */\n      dup2\n        /* \"#utility.yul\":987:1022   */\n      eq\n        /* \"#utility.yul\":977:1040   */\n      tag_194\n      jumpi\n        /* \"#utility.yul\":1036:1037   */\n      0x00\n        /* \"#utility.yul\":1033:1034   */\n      dup1\n        /* \"#utility.yul\":1026:1038   */\n      revert\n        /* \"#utility.yul\":977:1040   */\n    tag_194:\n        /* \"#utility.yul\":924:1046   */\n      pop\n      jump\t// out\n        /* \"#utility.yul\":1052:1191   */\n    tag_151:\n        /* \"#utility.yul\":1098:1103   */\n      0x00\n        /* \"#utility.yul\":1136:1142   */\n      dup2\n        /* \"#utility.yul\":1123:1143   */\n      calldataload\n        /* \"#utility.yul\":1114:1143   */\n      swap1\n      pop\n        /* \"#utility.yul\":1152:1185   */\n      tag_196\n        /* \"#utility.yul\":1179:1184   */\n      dup2\n        /* \"#utility.yul\":1152:1185   */\n      tag_150\n      jump\t// in\n    tag_196:\n        /* \"#utility.yul\":1052:1191   */\n      swap3\n      swap2\n      pop\n      pop\n      jump\t// out\n        /* \"#utility.yul\":1197:1671   */\n    tag_16:\n        /* \"#utility.yul\":1265:1271   */\n      0x00\n        /* \"#utility.yul\":1273:1279   */\n      dup1\n        /* \"#utility.yul\":1322:1324   */\n      0x40\n        /* \"#utility.yul\":1310:1319   */\n      dup4\n        /* \"#utility.yul\":1301:1308   */\n      dup6\n        /* \"#utility.yul\":1297:1320   */\n      sub\n        /* \"#utility.yul\":1293:1325   */\n      slt\n        /* \"#utility.yul\":1290:1409   */\n      iszero\n      tag_198\n      jumpi\n        /* \"#utility.yul\":1328:1407   */\n      tag_199\n      tag_143\n      jump\t// in\n    tag_199:\n        /* \"#utility.yul\":1290:1409   */\n    tag_198:\n        /* \"#utility.yul\":1448:1449   */\n      0x00\n        /* \"#utility.yul\":1473:1526   */\n      tag_200\n        /* \"#utility.yul\":1518:1525   */\n      dup6\n        /* \"#utility.yul\":1509:1515   */\n      dup3\n        /* \"#utility.yul\":1498:1507   */\n      dup7\n        /* \"#utility.yul\":1494:1516   */\n      add\n        /* \"#utility.yul\":1473:1526   */\n      tag_148\n      jump\t// in\n    tag_200:\n        /* \"#utility.yul\":1463:1526   */\n      swap3\n      pop\n        /* \"#utility.yul\":1419:1536   */\n      pop\n        /* \"#utility.yul\":1575:1577   */\n      0x20\n        /* \"#utility.yul\":1601:1654   */\n      tag_201\n        /* \"#utility.yul\":1646:1653   */\n      dup6\n        /* \"#utility.yul\":1637:1643   */\n      dup3\n        /* \"#utility.yul\":1626:1635   */\n      dup7\n        /* \"#utility.yul\":1622:1644   */\n      add\n        /* \"#utility.yul\":1601:1654   */\n      tag_151\n      jump\t// in\n    tag_201:\n        /* \"#utility.yul\":1591:1654   */\n      swap2\n      pop\n        /* \"#utility.yul\":1546:1664   */\n      pop\n        /* \"#utility.yul\":1197:1671   */\n      swap3\n      pop\n      swap3\n      swap1\n      pop\n      jump\t// out\n        /* \"#utility.yul\":1677:1795   */\n    tag_152:\n        /* \"#utility.yul\":1764:1788   */\n      tag_203\n        /* \"#utility.yul\":1782:1787   */\n      dup2\n        /* \"#utility.yul\":1764:1788   */\n      tag_149\n      jump\t// in\n    tag_203:\n        /* \"#utility.yul\":1759:1762   */\n      dup3\n        /* \"#utility.yul\":1752:1789   */\n      mstore\n        /* \"#utility.yul\":1677:1795   */\n      pop\n      pop\n      jump\t// out\n        /* \"#utility.yul\":1801:2023   */\n    tag_19:\n        /* \"#utility.yul\":1894:1898   */\n      0x00\n        /* \"#utility.yul\":1932:1934   */\n      0x20\n        /* \"#utility.yul\":1921:1930   */\n      dup3\n        /* \"#utility.yul\":1917:1935   */\n      add\n        /* \"#utility.yul\":1909:1935   */\n      swap1\n      pop\n        /* \"#utility.yul\":1945:2016   */\n      tag_205\n        /* \"#utility.yul\":2013:2014   */\n      0x00\n        /* \"#utility.yul\":2002:2011   */\n      dup4\n        /* \"#utility.yul\":1998:2015   */\n      add\n        /* \"#utility.yul\":1989:1995   */\n      dup5\n        /* \"#utility.yul\":1945:2016   */\n      tag_152\n      jump\t// in\n    tag_205:\n        /* \"#utility.yul\":1801:2023   */\n      swap3\n      swap2\n      pop\n      pop\n      jump\t// out\n        /* \"#utility.yul\":2029:2147   */\n    tag_153:\n        /* \"#utility.yul\":2116:2140   */\n      tag_207\n        /* \"#utility.yul\":2134:2139   */\n      dup2\n        /* \"#utility.yul\":2116:2140   */\n      tag_146\n      jump\t// in\n    tag_207:\n        /* \"#utility.yul\":2111:2114   */\n      dup3\n        /* \"#utility.yul\":2104:2141   */\n      mstore\n        /* \"#utility.yul\":2029:2147   */\n      pop\n      pop\n      jump\t// out\n        /* \"#utility.yul\":2153:2706   */\n    tag_24:\n        /* \"#utility.yul\":2330:2334   */\n      0x00\n        /* \"#utility.yul\":2368:2371   */\n      0x80\n        /* \"#utility.yul\":2357:2366   */\n      dup3\n        /* \"#utility.yul\":2353:2372   */\n      add\n        /* \"#utility.yul\":2345:2372   */\n      swap1\n      pop\n        /* \"#utility.yul\":2382:2453   */\n      tag_209\n        /* \"#utility.yul\":2450:2451   */\n      0x00\n        /* \"#utility.yul\":2439:2448   */\n      dup4\n        /* \"#utility.yul\":2435:2452   */\n      add\n        /* \"#utility.yul\":2426:2432   */\n      dup8\n        /* \"#utility.yul\":2382:2453   */\n      tag_153\n      jump\t// in\n    tag_209:\n        /* \"#utility.yul\":2463:2535   */\n      tag_210\n        /* \"#utility.yul\":2531:2533   */\n      0x20\n        /* \"#utility.yul\":2520:2529   */\n      dup4\n        /* \"#utility.yul\":2516:2534   */\n      add\n        /* \"#utility.yul\":2507:2513   */\n      dup7\n        /* \"#utility.yul\":2463:2535   */\n      tag_152\n      jump\t// in\n    tag_210:\n        /* \"#utility.yul\":2545:2617   */\n      tag_211\n        /* \"#utility.yul\":2613:2615   */\n      0x40\n        /* \"#utility.yul\":2602:2611   */\n      dup4\n        /* \"#utility.yul\":2598:2616   */\n      add\n        /* \"#utility.yul\":2589:2595   */\n      dup6\n        /* \"#utility.yul\":2545:2617   */\n      tag_153\n      jump\t// in\n    tag_211:\n        /* \"#utility.yul\":2627:2699   */\n      tag_212\n        /* \"#utility.yul\":2695:2697   */\n      0x60\n        /* \"#utility.yul\":2684:2693   */\n      dup4\n        /* \"#utility.yul\":2680:2698   */\n      add\n        /* \"#utility.yul\":2671:2677   */\n      dup5\n        /* \"#utility.yul\":2627:2699   */\n      tag_152\n      jump\t// in\n    tag_212:\n        /* \"#utility.yul\":2153:2706   */\n      swap6\n      swap5\n      pop\n      pop\n      pop\n      pop\n      pop\n      jump\t// out\n        /* \"#utility.yul\":2712:2934   */\n    tag_28:\n        /* \"#utility.yul\":2805:2809   */\n      0x00\n        /* \"#utility.yul\":2843:2845   */\n      0x20\n        /* \"#utility.yul\":2832:2841   */\n      dup3\n        /* \"#utility.yul\":2828:2846   */\n      add\n        /* \"#utility.yul\":2820:2846   */\n      swap1\n      pop\n        /* \"#utility.yul\":2856:2927   */\n      tag_214\n        /* \"#utility.yul\":2924:2925   */\n      0x00\n        /* \"#utility.yul\":2913:2922   */\n      dup4\n        /* \"#utility.yul\":2909:2926   */\n      add\n        /* \"#utility.yul\":2900:2906   */\n      dup5\n        /* \"#utility.yul\":2856:2927   */\n      tag_153\n      jump\t// in\n    tag_214:\n        /* \"#utility.yul\":2712:2934   */\n      swap3\n      swap2\n      pop\n      pop\n      jump\t// out\n        /* \"#utility.yul\":2940:3559   */\n    tag_35:\n        /* \"#utility.yul\":3017:3023   */\n      0x00\n        /* \"#utility.yul\":3025:3031   */\n      dup1\n        /* \"#utility.yul\":3033:3039   */\n      0x00\n        /* \"#utility.yul\":3082:3084   */\n      0x60\n        /* \"#utility.yul\":3070:3079   */\n      dup5\n        /* \"#utility.yul\":3061:3068   */\n      dup7\n        /* \"#utility.yul\":3057:3080   */\n      sub\n        /* \"#utility.yul\":3053:3085   */\n      slt\n        /* \"#utility.yul\":3050:3169   */\n      iszero\n      tag_216\n      jumpi\n        /* \"#utility.yul\":3088:3167   */\n      tag_217\n      tag_143\n      jump\t// in\n    tag_217:\n        /* \"#utility.yul\":3050:3169   */\n    tag_216:\n        /* \"#utility.yul\":3208:3209   */\n      0x00\n        /* \"#utility.yul\":3233:3286   */\n      tag_218\n        /* \"#utility.yul\":3278:3285   */\n      dup7\n        /* \"#utility.yul\":3269:3275   */\n      dup3\n        /* \"#utility.yul\":3258:3267   */\n      dup8\n        /* \"#utility.yul\":3254:3276   */\n      add\n        /* \"#utility.yul\":3233:3286   */\n      tag_148\n      jump\t// in\n    tag_218:\n        /* \"#utility.yul\":3223:3286   */\n      swap4\n      pop\n        /* \"#utility.yul\":3179:3296   */\n      pop\n        /* \"#utility.yul\":3335:3337   */\n      0x20\n        /* \"#utility.yul\":3361:3414   */\n      tag_219\n        /* \"#utility.yul\":3406:3413   */\n      dup7\n        /* \"#utility.yul\":3397:3403   */\n      dup3\n        /* \"#utility.yul\":3386:3395   */\n      dup8\n        /* \"#utility.yul\":3382:3404   */\n      add\n        /* \"#utility.yul\":3361:3414   */\n      tag_151\n      jump\t// in\n    tag_219:\n        /* \"#utility.yul\":3351:3414   */\n      swap3\n      pop\n        /* \"#utility.yul\":3306:3424   */\n      pop\n        /* \"#utility.yul\":3463:3465   */\n      0x40\n        /* \"#utility.yul\":3489:3542   */\n      tag_220\n        /* \"#utility.yul\":3534:3541   */\n      dup7\n        /* \"#utility.yul\":3525:3531   */\n      dup3\n        /* \"#utility.yul\":3514:3523   */\n      dup8\n        /* \"#utility.yul\":3510:3532   */\n      add\n        /* \"#utility.yul\":3489:3542   */\n      tag_151\n      jump\t// in\n    tag_220:\n        /* \"#utility.yul\":3479:3542   */\n      swap2\n      pop\n        /* \"#utility.yul\":3434:3552   */\n      pop\n        /* \"#utility.yul\":2940:3559   */\n      swap3\n      pop\n      swap3\n      pop\n      swap3\n      jump\t// out\n        /* \"#utility.yul\":3565:3625   */\n    tag_154:\n        /* \"#utility.yul\":3593:3596   */\n      0x00\n        /* \"#utility.yul\":3614:3619   */\n      dup2\n        /* \"#utility.yul\":3607:3619   */\n      swap1\n      pop\n        /* \"#utility.yul\":3565:3625   */\n      swap2\n      swap1\n      pop\n      jump\t// out\n        /* \"#utility.yul\":3631:3773   */\n    tag_155:\n        /* \"#utility.yul\":3681:3690   */\n      0x00\n        /* \"#utility.yul\":3714:3767   */\n      tag_223\n        /* \"#utility.yul\":3732:3766   */\n      tag_224\n        /* \"#utility.yul\":3741:3765   */\n      tag_225\n        /* \"#utility.yul\":3759:3764   */\n      dup5\n        /* \"#utility.yul\":3741:3765   */\n      tag_145\n      jump\t// in\n    tag_225:\n        /* \"#utility.yul\":3732:3766   */\n      tag_154\n      jump\t// in\n    tag_224:\n        /* \"#utility.yul\":3714:3767   */\n      tag_145\n      jump\t// in\n    tag_223:\n        /* \"#utility.yul\":3701:3767   */\n      swap1\n      pop\n        /* \"#utility.yul\":3631:3773   */\n      swap2\n      swap1\n      pop\n      jump\t// out\n        /* \"#utility.yul\":3779:3905   */\n    tag_156:\n        /* \"#utility.yul\":3829:3838   */\n      0x00\n        /* \"#utility.yul\":3862:3899   */\n      tag_227\n        /* \"#utility.yul\":3893:3898   */\n      dup3\n        /* \"#utility.yul\":3862:3899   */\n      tag_155\n      jump\t// in\n    tag_227:\n        /* \"#utility.yul\":3849:3899   */\n      swap1\n      pop\n        /* \"#utility.yul\":3779:3905   */\n      swap2\n      swap1\n      pop\n      jump\t// out\n        /* \"#utility.yul\":3911:4050   */\n    tag_157:\n        /* \"#utility.yul\":3974:3983   */\n      0x00\n        /* \"#utility.yul\":4007:4044   */\n      tag_229\n        /* \"#utility.yul\":4038:4043   */\n      dup3\n        /* \"#utility.yul\":4007:4044   */\n      tag_156\n      jump\t// in\n    tag_229:\n        /* \"#utility.yul\":3994:4044   */\n      swap1\n      pop\n        /* \"#utility.yul\":3911:4050   */\n      swap2\n      swap1\n      pop\n      jump\t// out\n        /* \"#utility.yul\":4056:4213   */\n    tag_158:\n        /* \"#utility.yul\":4156:4206   */\n      tag_231\n        /* \"#utility.yul\":4200:4205   */\n      dup2\n        /* \"#utility.yul\":4156:4206   */\n      tag_157\n      jump\t// in\n    tag_231:\n        /* \"#utility.yul\":4151:4154   */\n      dup3\n        /* \"#utility.yul\":4144:4207   */\n      mstore\n        /* \"#utility.yul\":4056:4213   */\n      pop\n      pop\n      jump\t// out\n        /* \"#utility.yul\":4219:4467   */\n    tag_40:\n        /* \"#utility.yul\":4325:4329   */\n      0x00\n        /* \"#utility.yul\":4363:4365   */\n      0x20\n        /* \"#utility.yul\":4352:4361   */\n      dup3\n        /* \"#utility.yul\":4348:4366   */\n      add\n        /* \"#utility.yul\":4340:4366   */\n      swap1\n      pop\n        /* \"#utility.yul\":4376:4460   */\n      tag_233\n        /* \"#utility.yul\":4457:4458   */\n      0x00\n        /* \"#utility.yul\":4446:4455   */\n      dup4\n        /* \"#utility.yul\":4442:4459   */\n      add\n        /* \"#utility.yul\":4433:4439   */\n      dup5\n        /* \"#utility.yul\":4376:4460   */\n      tag_158\n      jump\t// in\n    tag_233:\n        /* \"#utility.yul\":4219:4467   */\n      swap3\n      swap2\n      pop\n      pop\n      jump\t// out\n        /* \"#utility.yul\":4473:4802   */\n    tag_52:\n        /* \"#utility.yul\":4532:4538   */\n      0x00\n        /* \"#utility.yul\":4581:4583   */\n      0x20\n        /* \"#utility.yul\":4569:4578   */\n      dup3\n        /* \"#utility.yul\":4560:4567   */\n      dup5\n        /* \"#utility.yul\":4556:4579   */\n      sub\n        /* \"#utility.yul\":4552:4584   */\n      slt\n        /* \"#utility.yul\":4549:4668   */\n      iszero\n      tag_235\n      jumpi\n        /* \"#utility.yul\":4587:4666   */\n      tag_236\n      tag_143\n      jump\t// in\n    tag_236:\n        /* \"#utility.yul\":4549:4668   */\n    tag_235:\n        /* \"#utility.yul\":4707:4708   */\n      0x00\n        /* \"#utility.yul\":4732:4785   */\n      tag_237\n        /* \"#utility.yul\":4777:4784   */\n      dup5\n        /* \"#utility.yul\":4768:4774   */\n      dup3\n        /* \"#utility.yul\":4757:4766   */\n      dup6\n        /* \"#utility.yul\":4753:4775   */\n      add\n        /* \"#utility.yul\":4732:4785   */\n      tag_148\n      jump\t// in\n    tag_237:\n        /* \"#utility.yul\":4722:4785   */\n      swap2\n      pop\n        /* \"#utility.yul\":4678:4795   */\n      pop\n        /* \"#utility.yul\":4473:4802   */\n      swap3\n      swap2\n      pop\n      pop\n      jump\t// out\n        /* \"#utility.yul\":4808:4977   */\n    tag_159:\n        /* \"#utility.yul\":4892:4903   */\n      0x00\n        /* \"#utility.yul\":4926:4932   */\n      dup3\n        /* \"#utility.yul\":4921:4924   */\n      dup3\n        /* \"#utility.yul\":4914:4933   */\n      mstore\n        /* \"#utility.yul\":4966:4970   */\n      0x20\n        /* \"#utility.yul\":4961:4964   */\n      dup3\n        /* \"#utility.yul\":4957:4971   */\n      add\n        /* \"#utility.yul\":4942:4971   */\n      swap1\n      pop\n        /* \"#utility.yul\":4808:4977   */\n      swap3\n      swap2\n      pop\n      pop\n      jump\t// out\n        /* \"#utility.yul\":4983:5157   */\n    tag_160:\n        /* \"#utility.yul\":5123:5149   */\n      0x636f6e74726163742061646472657373206973207a65726f0000000000000000\n        /* \"#utility.yul\":5119:5120   */\n      0x00\n        /* \"#utility.yul\":5111:5117   */\n      dup3\n        /* \"#utility.yul\":5107:5121   */\n      add\n        /* \"#utility.yul\":5100:5150   */\n      mstore\n        /* \"#utility.yul\":4983:5157   */\n      pop\n      jump\t// out\n        /* \"#utility.yul\":5163:5529   */\n    tag_161:\n        /* \"#utility.yul\":5305:5308   */\n      0x00\n        /* \"#utility.yul\":5326:5393   */\n      tag_241\n        /* \"#utility.yul\":5390:5392   */\n      0x18\n        /* \"#utility.yul\":5385:5388   */\n      dup4\n        /* \"#utility.yul\":5326:5393   */\n      tag_159\n      jump\t// in\n    tag_241:\n        /* \"#utility.yul\":5319:5393   */\n      swap2\n      pop\n        /* \"#utility.yul\":5402:5495   */\n      tag_242\n        /* \"#utility.yul\":5491:5494   */\n      dup3\n        /* \"#utility.yul\":5402:5495   */\n      tag_160\n      jump\t// in\n    tag_242:\n        /* \"#utility.yul\":5520:5522   */\n      0x20\n        /* \"#utility.yul\":5515:5518   */\n      dup3\n        /* \"#utility.yul\":5511:5523   */\n      add\n        /* \"#utility.yul\":5504:5523   */\n      swap1\n      pop\n        /* \"#utility.yul\":5163:5529   */\n      swap2\n      swap1\n      pop\n      jump\t// out\n        /* \"#utility.yul\":5535:5954   */\n    tag_60:\n        /* \"#utility.yul\":5701:5705   */\n      0x00\n        /* \"#utility.yul\":5739:5741   */\n      0x20\n        /* \"#utility.yul\":5728:5737   */\n      dup3\n        /* \"#utility.yul\":5724:5742   */\n      add\n        /* \"#utility.yul\":5716:5742   */\n      swap1\n      pop\n        /* \"#utility.yul\":5788:5797   */\n      dup2\n        /* \"#utility.yul\":5782:5786   */\n      dup2\n        /* \"#utility.yul\":5778:5798   */\n      sub\n        /* \"#utility.yul\":5774:5775   */\n      0x00\n        /* \"#utility.yul\":5763:5772   */\n      dup4\n        /* \"#utility.yul\":5759:5776   */\n      add\n        /* \"#utility.yul\":5752:5799   */\n      mstore\n        /* \"#utility.yul\":5816:5947   */\n      tag_244\n        /* \"#utility.yul\":5942:5946   */\n      dup2\n        /* \"#utility.yul\":5816:5947   */\n      tag_161\n      jump\t// in\n    tag_244:\n        /* \"#utility.yul\":5808:5947   */\n      swap1\n      pop\n        /* \"#utility.yul\":5535:5954   */\n      swap2\n      swap1\n      pop\n      jump\t// out\n        /* \"#utility.yul\":5960:6130   */\n    tag_162:\n        /* \"#utility.yul\":6100:6122   */\n      0x746f6b656e20686173206e6f74206c6973746564000000000000000000000000\n        /* \"#utility.yul\":6096:6097   */\n      0x00\n        /* \"#utility.yul\":6088:6094   */\n      dup3\n        /* \"#utility.yul\":6084:6098   */\n      add\n        /* \"#utility.yul\":6077:6123   */\n      mstore\n        /* \"#utility.yul\":5960:6130   */\n      pop\n      jump\t// out\n        /* \"#utility.yul\":6136:6502   */\n    tag_163:\n        /* \"#utility.yul\":6278:6281   */\n      0x00\n        /* \"#utility.yul\":6299:6366   */\n      tag_247\n        /* \"#utility.yul\":6363:6365   */\n      0x14\n        /* \"#utility.yul\":6358:6361   */\n      dup4\n        /* \"#utility.yul\":6299:6366   */\n      tag_159\n      jump\t// in\n    tag_247:\n        /* \"#utility.yul\":6292:6366   */\n      swap2\n      pop\n        /* \"#utility.yul\":6375:6468   */\n      tag_248\n        /* \"#utility.yul\":6464:6467   */\n      dup3\n        /* \"#utility.yul\":6375:6468   */\n      tag_162\n      jump\t// in\n    tag_248:\n        /* \"#utility.yul\":6493:6495   */\n      0x20\n        /* \"#utility.yul\":6488:6491   */\n      dup3\n        /* \"#utility.yul\":6484:6496   */\n      add\n        /* \"#utility.yul\":6477:6496   */\n      swap1\n      pop\n        /* \"#utility.yul\":6136:6502   */\n      swap2\n      swap1\n      pop\n      jump\t// out\n        /* \"#utility.yul\":6508:6927   */\n    tag_63:\n        /* \"#utility.yul\":6674:6678   */\n      0x00\n        /* \"#utility.yul\":6712:6714   */\n      0x20\n        /* \"#utility.yul\":6701:6710   */\n      dup3\n        /* \"#utility.yul\":6697:6715   */\n      add\n        /* \"#utility.yul\":6689:6715   */\n      swap1\n      pop\n        /* \"#utility.yul\":6761:6770   */\n      dup2\n        /* \"#utility.yul\":6755:6759   */\n      dup2\n        /* \"#utility.yul\":6751:6771   */\n      sub\n        /* \"#utility.yul\":6747:6748   */\n      0x00\n        /* \"#utility.yul\":6736:6745   */\n      dup4\n        /* \"#utility.yul\":6732:6749   */\n      add\n        /* \"#utility.yul\":6725:6772   */\n      mstore\n        /* \"#utility.yul\":6789:6920   */\n      tag_250\n        /* \"#utility.yul\":6915:6919   */\n      dup2\n        /* \"#utility.yul\":6789:6920   */\n      tag_163\n      jump\t// in\n    tag_250:\n        /* \"#utility.yul\":6781:6920   */\n      swap1\n      pop\n        /* \"#utility.yul\":6508:6927   */\n      swap2\n      swap1\n      pop\n      jump\t// out\n        /* \"#utility.yul\":6933:7107   */\n    tag_164:\n        /* \"#utility.yul\":7073:7099   */\n      0x6d73672073656e646572206973206e6f742073656c6c65720000000000000000\n        /* \"#utility.yul\":7069:7070   */\n      0x00\n        /* \"#utility.yul\":7061:7067   */\n      dup3\n        /* \"#utility.yul\":7057:7071   */\n      add\n        /* \"#utility.yul\":7050:7100   */\n      mstore\n        /* \"#utility.yul\":6933:7107   */\n      pop\n      jump\t// out\n        /* \"#utility.yul\":7113:7479   */\n    tag_165:\n        /* \"#utility.yul\":7255:7258   */\n      0x00\n        /* \"#utility.yul\":7276:7343   */\n      tag_253\n        /* \"#utility.yul\":7340:7342   */\n      0x18\n        /* \"#utility.yul\":7335:7338   */\n      dup4\n        /* \"#utility.yul\":7276:7343   */\n      tag_159\n      jump\t// in\n    tag_253:\n        /* \"#utility.yul\":7269:7343   */\n      swap2\n      pop\n        /* \"#utility.yul\":7352:7445   */\n      tag_254\n        /* \"#utility.yul\":7441:7444   */\n      dup3\n        /* \"#utility.yul\":7352:7445   */\n      tag_164\n      jump\t// in\n    tag_254:\n        /* \"#utility.yul\":7470:7472   */\n      0x20\n        /* \"#utility.yul\":7465:7468   */\n      dup3\n        /* \"#utility.yul\":7461:7473   */\n      add\n        /* \"#utility.yul\":7454:7473   */\n      swap1\n      pop\n        /* \"#utility.yul\":7113:7479   */\n      swap2\n      swap1\n      pop\n      jump\t// out\n        /* \"#utility.yul\":7485:7904   */\n    tag_66:\n        /* \"#utility.yul\":7651:7655   */\n      0x00\n        /* \"#utility.yul\":7689:7691   */\n      0x20\n        /* \"#utility.yul\":7678:7687   */\n      dup3\n        /* \"#utility.yul\":7674:7692   */\n      add\n        /* \"#utility.yul\":7666:7692   */\n      swap1\n      pop\n        /* \"#utility.yul\":7738:7747   */\n      dup2\n        /* \"#utility.yul\":7732:7736   */\n      dup2\n        /* \"#utility.yul\":7728:7748   */\n      sub\n        /* \"#utility.yul\":7724:7725   */\n      0x00\n        /* \"#utility.yul\":7713:7722   */\n      dup4\n        /* \"#utility.yul\":7709:7726   */\n      add\n        /* \"#utility.yul\":7702:7749   */\n      mstore\n        /* \"#utility.yul\":7766:7897   */\n      tag_256\n        /* \"#utility.yul\":7892:7896   */\n      dup2\n        /* \"#utility.yul\":7766:7897   */\n      tag_165\n      jump\t// in\n    tag_256:\n        /* \"#utility.yul\":7758:7897   */\n      swap1\n      pop\n        /* \"#utility.yul\":7485:7904   */\n      swap2\n      swap1\n      pop\n      jump\t// out\n        /* \"#utility.yul\":7910:8090   */\n    tag_69:\n        /* \"#utility.yul\":7958:8035   */\n      0x4e487b7100000000000000000000000000000000000000000000000000000000\n        /* \"#utility.yul\":7955:7956   */\n      0x00\n        /* \"#utility.yul\":7948:8036   */\n      mstore\n        /* \"#utility.yul\":8055:8059   */\n      0x32\n        /* \"#utility.yul\":8052:8053   */\n      0x04\n        /* \"#utility.yul\":8045:8060   */\n      mstore\n        /* \"#utility.yul\":8079:8083   */\n      0x24\n        /* \"#utility.yul\":8076:8077   */\n      0x00\n        /* \"#utility.yul\":8069:8084   */\n      revert\n        /* \"#utility.yul\":8096:8428   */\n    tag_72:\n        /* \"#utility.yul\":8217:8221   */\n      0x00\n        /* \"#utility.yul\":8255:8257   */\n      0x40\n        /* \"#utility.yul\":8244:8253   */\n      dup3\n        /* \"#utility.yul\":8240:8258   */\n      add\n        /* \"#utility.yul\":8232:8258   */\n      swap1\n      pop\n        /* \"#utility.yul\":8268:8339   */\n      tag_259\n        /* \"#utility.yul\":8336:8337   */\n      0x00\n        /* \"#utility.yul\":8325:8334   */\n      dup4\n        /* \"#utility.yul\":8321:8338   */\n      add\n        /* \"#utility.yul\":8312:8318   */\n      dup6\n        /* \"#utility.yul\":8268:8339   */\n      tag_152\n      jump\t// in\n    tag_259:\n        /* \"#utility.yul\":8349:8421   */\n      tag_260\n        /* \"#utility.yul\":8417:8419   */\n      0x20\n        /* \"#utility.yul\":8406:8415   */\n      dup4\n        /* \"#utility.yul\":8402:8420   */\n      add\n        /* \"#utility.yul\":8393:8399   */\n      dup5\n        /* \"#utility.yul\":8349:8421   */\n      tag_152\n      jump\t// in\n    tag_260:\n        /* \"#utility.yul\":8096:8428   */\n      swap4\n      swap3\n      pop\n      pop\n      pop\n      jump\t// out\n        /* \"#utility.yul\":8434:8577   */\n    tag_166:\n        /* \"#utility.yul\":8491:8496   */\n      0x00\n        /* \"#utility.yul\":8522:8528   */\n      dup2\n        /* \"#utility.yul\":8516:8529   */\n      mload\n        /* \"#utility.yul\":8507:8529   */\n      swap1\n      pop\n        /* \"#utility.yul\":8538:8571   */\n      tag_262\n        /* \"#utility.yul\":8565:8570   */\n      dup2\n        /* \"#utility.yul\":8538:8571   */\n      tag_147\n      jump\t// in\n    tag_262:\n        /* \"#utility.yul\":8434:8577   */\n      swap3\n      swap2\n      pop\n      pop\n      jump\t// out\n        /* \"#utility.yul\":8583:8934   */\n    tag_89:\n        /* \"#utility.yul\":8653:8659   */\n      0x00\n        /* \"#utility.yul\":8702:8704   */\n      0x20\n        /* \"#utility.yul\":8690:8699   */\n      dup3\n        /* \"#utility.yul\":8681:8688   */\n      dup5\n        /* \"#utility.yul\":8677:8700   */\n      sub\n        /* \"#utility.yul\":8673:8705   */\n      slt\n        /* \"#utility.yul\":8670:8789   */\n      iszero\n      tag_264\n      jumpi\n        /* \"#utility.yul\":8708:8787   */\n      tag_265\n      tag_143\n      jump\t// in\n    tag_265:\n        /* \"#utility.yul\":8670:8789   */\n    tag_264:\n        /* \"#utility.yul\":8828:8829   */\n      0x00\n        /* \"#utility.yul\":8853:8917   */\n      tag_266\n        /* \"#utility.yul\":8909:8916   */\n      dup5\n        /* \"#utility.yul\":8900:8906   */\n      dup3\n        /* \"#utility.yul\":8889:8898   */\n      dup6\n        /* \"#utility.yul\":8885:8907   */\n      add\n        /* \"#utility.yul\":8853:8917   */\n      tag_166\n      jump\t// in\n    tag_266:\n        /* \"#utility.yul\":8843:8917   */\n      swap2\n      pop\n        /* \"#utility.yul\":8799:8927   */\n      pop\n        /* \"#utility.yul\":8583:8934   */\n      swap3\n      swap2\n      pop\n      pop\n      jump\t// out\n        /* \"#utility.yul\":8940:9121   */\n    tag_167:\n        /* \"#utility.yul\":9080:9113   */\n      0x6d73672073656e646572206973206e6f7420746f6b656e2773206f776e657200\n        /* \"#utility.yul\":9076:9077   */\n      0x00\n        /* \"#utility.yul\":9068:9074   */\n      dup3\n        /* \"#utility.yul\":9064:9078   */\n      add\n        /* \"#utility.yul\":9057:9114   */\n      mstore\n        /* \"#utility.yul\":8940:9121   */\n      pop\n      jump\t// out\n        /* \"#utility.yul\":9127:9493   */\n    tag_168:\n        /* \"#utility.yul\":9269:9272   */\n      0x00\n        /* \"#utility.yul\":9290:9357   */\n      tag_269\n        /* \"#utility.yul\":9354:9356   */\n      0x1f\n        /* \"#utility.yul\":9349:9352   */\n      dup4\n        /* \"#utility.yul\":9290:9357   */\n      tag_159\n      jump\t// in\n    tag_269:\n        /* \"#utility.yul\":9283:9357   */\n      swap2\n      pop\n        /* \"#utility.yul\":9366:9459   */\n      tag_270\n        /* \"#utility.yul\":9455:9458   */\n      dup3\n        /* \"#utility.yul\":9366:9459   */\n      tag_167\n      jump\t// in\n    tag_270:\n        /* \"#utility.yul\":9484:9486   */\n      0x20\n        /* \"#utility.yul\":9479:9482   */\n      dup3\n        /* \"#utility.yul\":9475:9487   */\n      add\n        /* \"#utility.yul\":9468:9487   */\n      swap1\n      pop\n        /* \"#utility.yul\":9127:9493   */\n      swap2\n      swap1\n      pop\n      jump\t// out\n        /* \"#utility.yul\":9499:9918   */\n    tag_92:\n        /* \"#utility.yul\":9665:9669   */\n      0x00\n        /* \"#utility.yul\":9703:9705   */\n      0x20\n        /* \"#utility.yul\":9692:9701   */\n      dup3\n        /* \"#utility.yul\":9688:9706   */\n      add\n        /* \"#utility.yul\":9680:9706   */\n      swap1\n      pop\n        /* \"#utility.yul\":9752:9761   */\n      dup2\n        /* \"#utility.yul\":9746:9750   */\n      dup2\n        /* \"#utility.yul\":9742:9762   */\n      sub\n        /* \"#utility.yul\":9738:9739   */\n      0x00\n        /* \"#utility.yul\":9727:9736   */\n      dup4\n        /* \"#utility.yul\":9723:9740   */\n      add\n        /* \"#utility.yul\":9716:9763   */\n      mstore\n        /* \"#utility.yul\":9780:9911   */\n      tag_272\n        /* \"#utility.yul\":9906:9910   */\n      dup2\n        /* \"#utility.yul\":9780:9911   */\n      tag_168\n      jump\t// in\n    tag_272:\n        /* \"#utility.yul\":9772:9911   */\n      swap1\n      pop\n        /* \"#utility.yul\":9499:9918   */\n      swap2\n      swap1\n      pop\n      jump\t// out\n        /* \"#utility.yul\":9924:10256   */\n    tag_94:\n        /* \"#utility.yul\":10045:10049   */\n      0x00\n        /* \"#utility.yul\":10083:10085   */\n      0x40\n        /* \"#utility.yul\":10072:10081   */\n      dup3\n        /* \"#utility.yul\":10068:10086   */\n      add\n        /* \"#utility.yul\":10060:10086   */\n      swap1\n      pop\n        /* \"#utility.yul\":10096:10167   */\n      tag_274\n        /* \"#utility.yul\":10164:10165   */\n      0x00\n        /* \"#utility.yul\":10153:10162   */\n      dup4\n        /* \"#utility.yul\":10149:10166   */\n      add\n        /* \"#utility.yul\":10140:10146   */\n      dup6\n        /* \"#utility.yul\":10096:10167   */\n      tag_153\n      jump\t// in\n    tag_274:\n        /* \"#utility.yul\":10177:10249   */\n      tag_275\n        /* \"#utility.yul\":10245:10247   */\n      0x20\n        /* \"#utility.yul\":10234:10243   */\n      dup4\n        /* \"#utility.yul\":10230:10248   */\n      add\n        /* \"#utility.yul\":10221:10227   */\n      dup5\n        /* \"#utility.yul\":10177:10249   */\n      tag_153\n      jump\t// in\n    tag_275:\n        /* \"#utility.yul\":9924:10256   */\n      swap4\n      swap3\n      pop\n      pop\n      pop\n      jump\t// out\n        /* \"#utility.yul\":10262:10352   */\n    tag_169:\n        /* \"#utility.yul\":10296:10303   */\n      0x00\n        /* \"#utility.yul\":10339:10344   */\n      dup2\n        /* \"#utility.yul\":10332:10345   */\n      iszero\n        /* \"#utility.yul\":10325:10346   */\n      iszero\n        /* \"#utility.yul\":10314:10346   */\n      swap1\n      pop\n        /* \"#utility.yul\":10262:10352   */\n      swap2\n      swap1\n      pop\n      jump\t// out\n        /* \"#utility.yul\":10358:10474   */\n    tag_170:\n        /* \"#utility.yul\":10428:10449   */\n      tag_278\n        /* \"#utility.yul\":10443:10448   */\n      dup2\n        /* \"#utility.yul\":10428:10449   */\n      tag_169\n      jump\t// in\n    tag_278:\n        /* \"#utility.yul\":10421:10426   */\n      dup2\n        /* \"#utility.yul\":10418:10450   */\n      eq\n        /* \"#utility.yul\":10408:10468   */\n      tag_279\n      jumpi\n        /* \"#utility.yul\":10464:10465   */\n      0x00\n        /* \"#utility.yul\":10461:10462   */\n      dup1\n        /* \"#utility.yul\":10454:10466   */\n      revert\n        /* \"#utility.yul\":10408:10468   */\n    tag_279:\n        /* \"#utility.yul\":10358:10474   */\n      pop\n      jump\t// out\n        /* \"#utility.yul\":10480:10617   */\n    tag_171:\n        /* \"#utility.yul\":10534:10539   */\n      0x00\n        /* \"#utility.yul\":10565:10571   */\n      dup2\n        /* \"#utility.yul\":10559:10572   */\n      mload\n        /* \"#utility.yul\":10550:10572   */\n      swap1\n      pop\n        /* \"#utility.yul\":10581:10611   */\n      tag_281\n        /* \"#utility.yul\":10605:10610   */\n      dup2\n        /* \"#utility.yul\":10581:10611   */\n      tag_170\n      jump\t// in\n    tag_281:\n        /* \"#utility.yul\":10480:10617   */\n      swap3\n      swap2\n      pop\n      pop\n      jump\t// out\n        /* \"#utility.yul\":10623:10968   */\n    tag_98:\n        /* \"#utility.yul\":10690:10696   */\n      0x00\n        /* \"#utility.yul\":10739:10741   */\n      0x20\n        /* \"#utility.yul\":10727:10736   */\n      dup3\n        /* \"#utility.yul\":10718:10725   */\n      dup5\n        /* \"#utility.yul\":10714:10737   */\n      sub\n        /* \"#utility.yul\":10710:10742   */\n      slt\n        /* \"#utility.yul\":10707:10826   */\n      iszero\n      tag_283\n      jumpi\n        /* \"#utility.yul\":10745:10824   */\n      tag_284\n      tag_143\n      jump\t// in\n    tag_284:\n        /* \"#utility.yul\":10707:10826   */\n    tag_283:\n        /* \"#utility.yul\":10865:10866   */\n      0x00\n        /* \"#utility.yul\":10890:10951   */\n      tag_285\n        /* \"#utility.yul\":10943:10950   */\n      dup5\n        /* \"#utility.yul\":10934:10940   */\n      dup3\n        /* \"#utility.yul\":10923:10932   */\n      dup6\n        /* \"#utility.yul\":10919:10941   */\n      add\n        /* \"#utility.yul\":10890:10951   */\n      tag_171\n      jump\t// in\n    tag_285:\n        /* \"#utility.yul\":10880:10951   */\n      swap2\n      pop\n        /* \"#utility.yul\":10836:10961   */\n      pop\n        /* \"#utility.yul\":10623:10968   */\n      swap3\n      swap2\n      pop\n      pop\n      jump\t// out\n        /* \"#utility.yul\":10974:11214   */\n    tag_172:\n        /* \"#utility.yul\":11114:11148   */\n      0x6d73672073656e6465722068617665206e6f742063616c6c2073657441707072\n        /* \"#utility.yul\":11110:11111   */\n      0x00\n        /* \"#utility.yul\":11102:11108   */\n      dup3\n        /* \"#utility.yul\":11098:11112   */\n      add\n        /* \"#utility.yul\":11091:11149   */\n      mstore\n        /* \"#utility.yul\":11183:11206   */\n      0x6f766564466f72416c6c20666f72206d61726b65740000000000000000000000\n        /* \"#utility.yul\":11178:11180   */\n      0x20\n        /* \"#utility.yul\":11170:11176   */\n      dup3\n        /* \"#utility.yul\":11166:11181   */\n      add\n        /* \"#utility.yul\":11159:11207   */\n      mstore\n        /* \"#utility.yul\":10974:11214   */\n      pop\n      jump\t// out\n        /* \"#utility.yul\":11220:11586   */\n    tag_173:\n        /* \"#utility.yul\":11362:11365   */\n      0x00\n        /* \"#utility.yul\":11383:11450   */\n      tag_288\n        /* \"#utility.yul\":11447:11449   */\n      0x35\n        /* \"#utility.yul\":11442:11445   */\n      dup4\n        /* \"#utility.yul\":11383:11450   */\n      tag_159\n      jump\t// in\n    tag_288:\n        /* \"#utility.yul\":11376:11450   */\n      swap2\n      pop\n        /* \"#utility.yul\":11459:11552   */\n      tag_289\n        /* \"#utility.yul\":11548:11551   */\n      dup3\n        /* \"#utility.yul\":11459:11552   */\n      tag_172\n      jump\t// in\n    tag_289:\n        /* \"#utility.yul\":11577:11579   */\n      0x40\n        /* \"#utility.yul\":11572:11575   */\n      dup3\n        /* \"#utility.yul\":11568:11580   */\n      add\n        /* \"#utility.yul\":11561:11580   */\n      swap1\n      pop\n        /* \"#utility.yul\":11220:11586   */\n      swap2\n      swap1\n      pop\n      jump\t// out\n        /* \"#utility.yul\":11592:12011   */\n    tag_101:\n        /* \"#utility.yul\":11758:11762   */\n      0x00\n        /* \"#utility.yul\":11796:11798   */\n      0x20\n        /* \"#utility.yul\":11785:11794   */\n      dup3\n        /* \"#utility.yul\":11781:11799   */\n      add\n        /* \"#utility.yul\":11773:11799   */\n      swap1\n      pop\n        /* \"#utility.yul\":11845:11854   */\n      dup2\n        /* \"#utility.yul\":11839:11843   */\n      dup2\n        /* \"#utility.yul\":11835:11855   */\n      sub\n        /* \"#utility.yul\":11831:11832   */\n      0x00\n        /* \"#utility.yul\":11820:11829   */\n      dup4\n        /* \"#utility.yul\":11816:11833   */\n      add\n        /* \"#utility.yul\":11809:11856   */\n      mstore\n        /* \"#utility.yul\":11873:12004   */\n      tag_291\n        /* \"#utility.yul\":11999:12003   */\n      dup2\n        /* \"#utility.yul\":11873:12004   */\n      tag_173\n      jump\t// in\n    tag_291:\n        /* \"#utility.yul\":11865:12004   */\n      swap1\n      pop\n        /* \"#utility.yul\":11592:12011   */\n      swap2\n      swap1\n      pop\n      jump\t// out\n        /* \"#utility.yul\":12017:12197   */\n    tag_174:\n        /* \"#utility.yul\":12065:12142   */\n      0x4e487b7100000000000000000000000000000000000000000000000000000000\n        /* \"#utility.yul\":12062:12063   */\n      0x00\n        /* \"#utility.yul\":12055:12143   */\n      mstore\n        /* \"#utility.yul\":12162:12166   */\n      0x11\n        /* \"#utility.yul\":12159:12160   */\n      0x04\n        /* \"#utility.yul\":12152:12167   */\n      mstore\n        /* \"#utility.yul\":12186:12190   */\n      0x24\n        /* \"#utility.yul\":12183:12184   */\n      0x00\n        /* \"#utility.yul\":12176:12191   */\n      revert\n        /* \"#utility.yul\":12203:12397   */\n    tag_104:\n        /* \"#utility.yul\":12243:12247   */\n      0x00\n        /* \"#utility.yul\":12263:12283   */\n      tag_294\n        /* \"#utility.yul\":12281:12282   */\n      dup3\n        /* \"#utility.yul\":12263:12283   */\n      tag_149\n      jump\t// in\n    tag_294:\n        /* \"#utility.yul\":12258:12283   */\n      swap2\n      pop\n        /* \"#utility.yul\":12297:12317   */\n      tag_295\n        /* \"#utility.yul\":12315:12316   */\n      dup4\n        /* \"#utility.yul\":12297:12317   */\n      tag_149\n      jump\t// in\n    tag_295:\n        /* \"#utility.yul\":12292:12317   */\n      swap3\n      pop\n        /* \"#utility.yul\":12341:12342   */\n      dup3\n        /* \"#utility.yul\":12338:12339   */\n      dup3\n        /* \"#utility.yul\":12334:12343   */\n      sub\n        /* \"#utility.yul\":12326:12343   */\n      swap1\n      pop\n        /* \"#utility.yul\":12365:12366   */\n      dup2\n        /* \"#utility.yul\":12359:12363   */\n      dup2\n        /* \"#utility.yul\":12356:12367   */\n      gt\n        /* \"#utility.yul\":12353:12390   */\n      iszero\n      tag_296\n      jumpi\n        /* \"#utility.yul\":12370:12388   */\n      tag_297\n      tag_174\n      jump\t// in\n    tag_297:\n        /* \"#utility.yul\":12353:12390   */\n    tag_296:\n        /* \"#utility.yul\":12203:12397   */\n      swap3\n      swap2\n      pop\n      pop\n      jump\t// out\n        /* \"#utility.yul\":12403:12568   */\n    tag_175:\n        /* \"#utility.yul\":12543:12560   */\n      0x62757965722069732073656c6c65720000000000000000000000000000000000\n        /* \"#utility.yul\":12539:12540   */\n      0x00\n        /* \"#utility.yul\":12531:12537   */\n      dup3\n        /* \"#utility.yul\":12527:12541   */\n      add\n        /* \"#utility.yul\":12520:12561   */\n      mstore\n        /* \"#utility.yul\":12403:12568   */\n      pop\n      jump\t// out\n        /* \"#utility.yul\":12574:12940   */\n    tag_176:\n        /* \"#utility.yul\":12716:12719   */\n      0x00\n        /* \"#utility.yul\":12737:12804   */\n      tag_300\n        /* \"#utility.yul\":12801:12803   */\n      0x0f\n        /* \"#utility.yul\":12796:12799   */\n      dup4\n        /* \"#utility.yul\":12737:12804   */\n      tag_159\n      jump\t// in\n    tag_300:\n        /* \"#utility.yul\":12730:12804   */\n      swap2\n      pop\n        /* \"#utility.yul\":12813:12906   */\n      tag_301\n        /* \"#utility.yul\":12902:12905   */\n      dup3\n        /* \"#utility.yul\":12813:12906   */\n      tag_175\n      jump\t// in\n    tag_301:\n        /* \"#utility.yul\":12931:12933   */\n      0x20\n        /* \"#utility.yul\":12926:12929   */\n      dup3\n        /* \"#utility.yul\":12922:12934   */\n      add\n        /* \"#utility.yul\":12915:12934   */\n      swap1\n      pop\n        /* \"#utility.yul\":12574:12940   */\n      swap2\n      swap1\n      pop\n      jump\t// out\n        /* \"#utility.yul\":12946:13365   */\n    tag_113:\n        /* \"#utility.yul\":13112:13116   */\n      0x00\n        /* \"#utility.yul\":13150:13152   */\n      0x20\n        /* \"#utility.yul\":13139:13148   */\n      dup3\n        /* \"#utility.yul\":13135:13153   */\n      add\n        /* \"#utility.yul\":13127:13153   */\n      swap1\n      pop\n        /* \"#utility.yul\":13199:13208   */\n      dup2\n        /* \"#utility.yul\":13193:13197   */\n      dup2\n        /* \"#utility.yul\":13189:13209   */\n      sub\n        /* \"#utility.yul\":13185:13186   */\n      0x00\n        /* \"#utility.yul\":13174:13183   */\n      dup4\n        /* \"#utility.yul\":13170:13187   */\n      add\n        /* \"#utility.yul\":13163:13210   */\n      mstore\n        /* \"#utility.yul\":13227:13358   */\n      tag_303\n        /* \"#utility.yul\":13353:13357   */\n      dup2\n        /* \"#utility.yul\":13227:13358   */\n      tag_176\n      jump\t// in\n    tag_303:\n        /* \"#utility.yul\":13219:13358   */\n      swap1\n      pop\n        /* \"#utility.yul\":12946:13365   */\n      swap2\n      swap1\n      pop\n      jump\t// out\n        /* \"#utility.yul\":13371:13813   */\n    tag_115:\n        /* \"#utility.yul\":13520:13524   */\n      0x00\n        /* \"#utility.yul\":13558:13560   */\n      0x60\n        /* \"#utility.yul\":13547:13556   */\n      dup3\n        /* \"#utility.yul\":13543:13561   */\n      add\n        /* \"#utility.yul\":13535:13561   */\n      swap1\n      pop\n        /* \"#utility.yul\":13571:13642   */\n      tag_305\n        /* \"#utility.yul\":13639:13640   */\n      0x00\n        /* \"#utility.yul\":13628:13637   */\n      dup4\n        /* \"#utility.yul\":13624:13641   */\n      add\n        /* \"#utility.yul\":13615:13621   */\n      dup7\n        /* \"#utility.yul\":13571:13642   */\n      tag_153\n      jump\t// in\n    tag_305:\n        /* \"#utility.yul\":13652:13724   */\n      tag_306\n        /* \"#utility.yul\":13720:13722   */\n      0x20\n        /* \"#utility.yul\":13709:13718   */\n      dup4\n        /* \"#utility.yul\":13705:13723   */\n      add\n        /* \"#utility.yul\":13696:13702   */\n      dup6\n        /* \"#utility.yul\":13652:13724   */\n      tag_153\n      jump\t// in\n    tag_306:\n        /* \"#utility.yul\":13734:13806   */\n      tag_307\n        /* \"#utility.yul\":13802:13804   */\n      0x40\n        /* \"#utility.yul\":13791:13800   */\n      dup4\n        /* \"#utility.yul\":13787:13805   */\n      add\n        /* \"#utility.yul\":13778:13784   */\n      dup5\n        /* \"#utility.yul\":13734:13806   */\n      tag_152\n      jump\t// in\n    tag_307:\n        /* \"#utility.yul\":13371:13813   */\n      swap5\n      swap4\n      pop\n      pop\n      pop\n      pop\n      jump\t// out\n        /* \"#utility.yul\":13819:13988   */\n    tag_177:\n        /* \"#utility.yul\":13959:13980   */\n      0x7472616e73666572206572633230206661696c00000000000000000000000000\n        /* \"#utility.yul\":13955:13956   */\n      0x00\n        /* \"#utility.yul\":13947:13953   */\n      dup3\n        /* \"#utility.yul\":13943:13957   */\n      add\n        /* \"#utility.yul\":13936:13981   */\n      mstore\n        /* \"#utility.yul\":13819:13988   */\n      pop\n      jump\t// out\n        /* \"#utility.yul\":13994:14360   */\n    tag_178:\n        /* \"#utility.yul\":14136:14139   */\n      0x00\n        /* \"#utility.yul\":14157:14224   */\n      tag_310\n        /* \"#utility.yul\":14221:14223   */\n      0x13\n        /* \"#utility.yul\":14216:14219   */\n      dup4\n        /* \"#utility.yul\":14157:14224   */\n      tag_159\n      jump\t// in\n    tag_310:\n        /* \"#utility.yul\":14150:14224   */\n      swap2\n      pop\n        /* \"#utility.yul\":14233:14326   */\n      tag_311\n        /* \"#utility.yul\":14322:14325   */\n      dup3\n        /* \"#utility.yul\":14233:14326   */\n      tag_177\n      jump\t// in\n    tag_311:\n        /* \"#utility.yul\":14351:14353   */\n      0x20\n        /* \"#utility.yul\":14346:14349   */\n      dup3\n        /* \"#utility.yul\":14342:14354   */\n      add\n        /* \"#utility.yul\":14335:14354   */\n      swap1\n      pop\n        /* \"#utility.yul\":13994:14360   */\n      swap2\n      swap1\n      pop\n      jump\t// out\n        /* \"#utility.yul\":14366:14785   */\n    tag_121:\n        /* \"#utility.yul\":14532:14536   */\n      0x00\n        /* \"#utility.yul\":14570:14572   */\n      0x20\n        /* \"#utility.yul\":14559:14568   */\n      dup3\n        /* \"#utility.yul\":14555:14573   */\n      add\n        /* \"#utility.yul\":14547:14573   */\n      swap1\n      pop\n        /* \"#utility.yul\":14619:14628   */\n      dup2\n        /* \"#utility.yul\":14613:14617   */\n      dup2\n        /* \"#utility.yul\":14609:14629   */\n      sub\n        /* \"#utility.yul\":14605:14606   */\n      0x00\n        /* \"#utility.yul\":14594:14603   */\n      dup4\n        /* \"#utility.yul\":14590:14607   */\n      add\n        /* \"#utility.yul\":14583:14630   */\n      mstore\n        /* \"#utility.yul\":14647:14778   */\n      tag_313\n        /* \"#utility.yul\":14773:14777   */\n      dup2\n        /* \"#utility.yul\":14647:14778   */\n      tag_178\n      jump\t// in\n    tag_313:\n        /* \"#utility.yul\":14639:14778   */\n      swap1\n      pop\n        /* \"#utility.yul\":14366:14785   */\n      swap2\n      swap1\n      pop\n      jump\t// out\n        /* \"#utility.yul\":14791:14971   */\n    tag_140:\n        /* \"#utility.yul\":14839:14916   */\n      0x4e487b7100000000000000000000000000000000000000000000000000000000\n        /* \"#utility.yul\":14836:14837   */\n      0x00\n        /* \"#utility.yul\":14829:14917   */\n      mstore\n        /* \"#utility.yul\":14936:14940   */\n      0x31\n        /* \"#utility.yul\":14933:14934   */\n      0x04\n        /* \"#utility.yul\":14926:14941   */\n      mstore\n        /* \"#utility.yul\":14960:14964   */\n      0x24\n        /* \"#utility.yul\":14957:14958   */\n      0x00\n        /* \"#utility.yul\":14950:14965   */\n      revert\n\n    auxdata: 0xa26469706673582212207a2b3d5f659db83b28edc571f7286434d958679a0d232051d8fe93d8f762321264736f6c634300081a0033\n}\n",
				"bytecode": {
					"linkReferences": {},
					"object": "608060405234801561000f575f80fd5b5060405161213e38038061213e83398181016040528101906100319190610182565b5f73ffffffffffffffffffffffffffffffffffffffff168173ffffffffffffffffffffffffffffffffffffffff160361009f576040517f08c379a000000000000000000000000000000000000000000000000000000000815260040161009690610207565b60405180910390fd5b335f806101000a81548173ffffffffffffffffffffffffffffffffffffffff021916908373ffffffffffffffffffffffffffffffffffffffff1602179055508060015f6101000a81548173ffffffffffffffffffffffffffffffffffffffff021916908373ffffffffffffffffffffffffffffffffffffffff16021790555050610225565b5f80fd5b5f73ffffffffffffffffffffffffffffffffffffffff82169050919050565b5f61015182610128565b9050919050565b61016181610147565b811461016b575f80fd5b50565b5f8151905061017c81610158565b92915050565b5f6020828403121561019757610196610124565b5b5f6101a48482850161016e565b91505092915050565b5f82825260208201905092915050565b7f65726332302061646472657373206973207a65726f00000000000000000000005f82015250565b5f6101f16015836101ad565b91506101fc826101bd565b602082019050919050565b5f6020820190508181035f83015261021e816101e5565b9050919050565b611f0c806102325f395ff3fe608060405234801561000f575f80fd5b506004361061009c575f3560e01c8063785e9e8611610064578063785e9e86146101705780637fc27efd1461018e578063ad05f1b4146101aa578063cce7ec13146101c6578063de6b8a2e146101e25761009c565b80632917c145146100a057806329c29e9d146100d057806347d90b5c146101035780634e6fe8d814610121578063741cbae414610154575b5f80fd5b6100ba60048036038101906100b5919061182c565b610212565b6040516100c79190611879565b60405180910390f35b6100ea60048036038101906100e5919061182c565b610232565b6040516100fa94939291906118a1565b60405180910390f35b61010b6102a7565b60405161011891906118e4565b60405180910390f35b61013b6004803603810190610136919061182c565b6102ca565b60405161014b94939291906118a1565b60405180910390f35b61016e600480360381019061016991906118fd565b61034e565b005b6101786106d4565b60405161018591906119a8565b60405180910390f35b6101a860048036038101906101a3919061182c565b6106f9565b005b6101c460048036038101906101bf91906118fd565b61091f565b005b6101e060048036038101906101db919061182c565b610ec7565b005b6101fc60048036038101906101f791906119c1565b611301565b6040516102099190611879565b60405180910390f35b6004602052815f5260405f20602052805f5260405f205f91509150505481565b6003602052815f5260405f20602052805f5260405f205f9150915050805f015f9054906101000a900473ffffffffffffffffffffffffffffffffffffffff1690806001015490806002015f9054906101000a900473ffffffffffffffffffffffffffffffffffffffff16908060030154905084565b5f8054906101000a900473ffffffffffffffffffffffffffffffffffffffff1681565b6002602052815f5260405f2081815481106102e3575f80fd5b905f5260205f2090600402015f9150915050805f015f9054906101000a900473ffffffffffffffffffffffffffffffffffffffff1690806001015490806002015f9054906101000a900473ffffffffffffffffffffffffffffffffffffffff16908060030154905084565b5f73ffffffffffffffffffffffffffffffffffffffff168373ffffffffffffffffffffffffffffffffffffffff16036103bc576040517f08c379a00000000000000000000000000000000000000000000000000000000081526004016103b390611a46565b60405180910390fd5b5f60035f8573ffffffffffffffffffffffffffffffffffffffff1673ffffffffffffffffffffffffffffffffffffffff1681526020019081526020015f205f8481526020019081526020015f206002015f9054906101000a900473ffffffffffffffffffffffffffffffffffffffff1690505f73ffffffffffffffffffffffffffffffffffffffff168173ffffffffffffffffffffffffffffffffffffffff160361049c576040517f08c379a000000000000000000000000000000000000000000000000000000000815260040161049390611aae565b60405180910390fd5b8073ffffffffffffffffffffffffffffffffffffffff163373ffffffffffffffffffffffffffffffffffffffff161461050a576040517f08c379a000000000000000000000000000000000000000000000000000000000815260040161050190611b16565b60405180910390fd5b5f60035f8673ffffffffffffffffffffffffffffffffffffffff1673ffffffffffffffffffffffffffffffffffffffff1681526020019081526020015f205f8581526020019081526020015f206003015490508260035f8773ffffffffffffffffffffffffffffffffffffffff1673ffffffffffffffffffffffffffffffffffffffff1681526020019081526020015f205f8681526020019081526020015f20600301819055505f60045f8773ffffffffffffffffffffffffffffffffffffffff1673ffffffffffffffffffffffffffffffffffffffff1681526020019081526020015f205f8681526020019081526020015f205490508360025f8873ffffffffffffffffffffffffffffffffffffffff1673ffffffffffffffffffffffffffffffffffffffff1681526020019081526020015f20828154811061065157610650611b34565b5b905f5260205f20906004020160030181905550848373ffffffffffffffffffffffffffffffffffffffff168773ffffffffffffffffffffffffffffffffffffffff167fbbdd274c8e6142e9cf1e5198bd2942fa0e315fa6a4a5d843949afde9f93a677f85886040516106c4929190611b61565b60405180910390a4505050505050565b60015f9054906101000a900473ffffffffffffffffffffffffffffffffffffffff1681565b5f73ffffffffffffffffffffffffffffffffffffffff168273ffffffffffffffffffffffffffffffffffffffff1603610767576040517f08c379a000000000000000000000000000000000000000000000000000000000815260040161075e90611a46565b60405180910390fd5b5f60035f8473ffffffffffffffffffffffffffffffffffffffff1673ffffffffffffffffffffffffffffffffffffffff1681526020019081526020015f205f8381526020019081526020015f206002015f9054906101000a900473ffffffffffffffffffffffffffffffffffffffff1690505f73ffffffffffffffffffffffffffffffffffffffff168173ffffffffffffffffffffffffffffffffffffffff1603610847576040517f08c379a000000000000000000000000000000000000000000000000000000000815260040161083e90611aae565b60405180910390fd5b8073ffffffffffffffffffffffffffffffffffffffff163373ffffffffffffffffffffffffffffffffffffffff16146108b5576040517f08c379a00000000000000000000000000000000000000000000000000000000081526004016108ac90611b16565b60405180910390fd5b6108bf838361134a565b818173ffffffffffffffffffffffffffffffffffffffff168473ffffffffffffffffffffffffffffffffffffffff167fd8a931ba19eff049c3c5d3404648e3c0283462d3071e2d4157117069197a4a9960405160405180910390a4505050565b5f73ffffffffffffffffffffffffffffffffffffffff168373ffffffffffffffffffffffffffffffffffffffff160361098d576040517f08c379a000000000000000000000000000000000000000000000000000000000815260040161098490611a46565b60405180910390fd5b5f8390505f3390508073ffffffffffffffffffffffffffffffffffffffff168273ffffffffffffffffffffffffffffffffffffffff16636352211e866040518263ffffffff1660e01b81526004016109e59190611879565b602060405180830381865afa158015610a00573d5f803e3d5ffd5b505050506040513d601f19601f82011682018060405250810190610a249190611b9c565b73ffffffffffffffffffffffffffffffffffffffff1614610a7a576040517f08c379a0000000000000000000000000000000000000000000000000000000008152600401610a7190611c11565b60405180910390fd5b8173ffffffffffffffffffffffffffffffffffffffff1663e985e9c582306040518363ffffffff1660e01b8152600401610ab5929190611c2f565b602060405180830381865afa158015610ad0573d5f803e3d5ffd5b505050506040513d601f19601f82011682018060405250810190610af49190611c8b565b610b33576040517f08c379a0000000000000000000000000000000000000000000000000000000008152600401610b2a90611d26565b60405180910390fd5b60025f8673ffffffffffffffffffffffffffffffffffffffff1673ffffffffffffffffffffffffffffffffffffffff1681526020019081526020015f2060405180608001604052808773ffffffffffffffffffffffffffffffffffffffff1681526020018681526020018373ffffffffffffffffffffffffffffffffffffffff16815260200185815250908060018154018082558091505060019003905f5260205f2090600402015f909190919091505f820151815f015f6101000a81548173ffffffffffffffffffffffffffffffffffffffff021916908373ffffffffffffffffffffffffffffffffffffffff160217905550602082015181600101556040820151816002015f6101000a81548173ffffffffffffffffffffffffffffffffffffffff021916908373ffffffffffffffffffffffffffffffffffffffff160217905550606082015181600301555050600160025f8773ffffffffffffffffffffffffffffffffffffffff1673ffffffffffffffffffffffffffffffffffffffff1681526020019081526020015f2080549050610cd09190611d71565b60045f8773ffffffffffffffffffffffffffffffffffffffff1673ffffffffffffffffffffffffffffffffffffffff1681526020019081526020015f205f8681526020019081526020015f208190555060405180608001604052808673ffffffffffffffffffffffffffffffffffffffff1681526020018581526020018273ffffffffffffffffffffffffffffffffffffffff1681526020018481525060035f8773ffffffffffffffffffffffffffffffffffffffff1673ffffffffffffffffffffffffffffffffffffffff1681526020019081526020015f205f8681526020019081526020015f205f820151815f015f6101000a81548173ffffffffffffffffffffffffffffffffffffffff021916908373ffffffffffffffffffffffffffffffffffffffff160217905550602082015181600101556040820151816002015f6101000a81548173ffffffffffffffffffffffffffffffffffffffff021916908373ffffffffffffffffffffffffffffffffffffffff16021790555060608201518160030155905050838173ffffffffffffffffffffffffffffffffffffffff168673ffffffffffffffffffffffffffffffffffffffff167f3348bbe3128f82fa60a003aca513985072cacb60f82331c91fb0322d84984b6186604051610eb89190611879565b60405180910390a45050505050565b5f73ffffffffffffffffffffffffffffffffffffffff168273ffffffffffffffffffffffffffffffffffffffff1603610f35576040517f08c379a0000000000000000000000000000000000000000000000000000000008152600401610f2c90611a46565b60405180910390fd5b5f8290505f60035f8573ffffffffffffffffffffffffffffffffffffffff1673ffffffffffffffffffffffffffffffffffffffff1681526020019081526020015f205f8481526020019081526020015f206040518060800160405290815f82015f9054906101000a900473ffffffffffffffffffffffffffffffffffffffff1673ffffffffffffffffffffffffffffffffffffffff1673ffffffffffffffffffffffffffffffffffffffff16815260200160018201548152602001600282015f9054906101000a900473ffffffffffffffffffffffffffffffffffffffff1673ffffffffffffffffffffffffffffffffffffffff1673ffffffffffffffffffffffffffffffffffffffff16815260200160038201548152505090505f73ffffffffffffffffffffffffffffffffffffffff16816040015173ffffffffffffffffffffffffffffffffffffffff16036110c2576040517f08c379a00000000000000000000000000000000000000000000000000000000081526004016110b990611aae565b60405180910390fd5b3373ffffffffffffffffffffffffffffffffffffffff16816040015173ffffffffffffffffffffffffffffffffffffffff1603611134576040517f08c379a000000000000000000000000000000000000000000000000000000000815260040161112b90611dee565b60405180910390fd5b60015f9054906101000a900473ffffffffffffffffffffffffffffffffffffffff1673ffffffffffffffffffffffffffffffffffffffff166323b872dd33836040015184606001516040518463ffffffff1660e01b815260040161119a93929190611e0c565b6020604051808303815f875af11580156111b6573d5f803e3d5ffd5b505050506040513d601f19601f820116820180604052508101906111da9190611c8b565b611219576040517f08c379a000000000000000000000000000000000000000000000000000000000815260040161121090611e8b565b60405180910390fd5b8173ffffffffffffffffffffffffffffffffffffffff166342842e0e826040015133866040518463ffffffff1660e01b815260040161125a93929190611e0c565b5f604051808303815f87803b158015611271575f80fd5b505af1158015611283573d5f803e3d5ffd5b50505050611291848461134a565b823373ffffffffffffffffffffffffffffffffffffffff168573ffffffffffffffffffffffffffffffffffffffff167f424d5e5f0192c7dacdbe646ca31b00299146d883d76a95ef5cddbac7cd342eab84606001516040516112f39190611879565b60405180910390a450505050565b5f60025f8373ffffffffffffffffffffffffffffffffffffffff1673ffffffffffffffffffffffffffffffffffffffff1681526020019081526020015f20805490509050919050565b5f60045f8473ffffffffffffffffffffffffffffffffffffffff1673ffffffffffffffffffffffffffffffffffffffff1681526020019081526020015f205f8381526020019081526020015f205490505f600160025f8673ffffffffffffffffffffffffffffffffffffffff1673ffffffffffffffffffffffffffffffffffffffff1681526020019081526020015f20805490506113e89190611d71565b90508082146115e1575f60025f8673ffffffffffffffffffffffffffffffffffffffff1673ffffffffffffffffffffffffffffffffffffffff1681526020019081526020015f20828154811061144157611440611b34565b5b905f5260205f20906004020190508060025f8773ffffffffffffffffffffffffffffffffffffffff1673ffffffffffffffffffffffffffffffffffffffff1681526020019081526020015f20848154811061149f5761149e611b34565b5b905f5260205f2090600402015f82015f9054906101000a900473ffffffffffffffffffffffffffffffffffffffff16815f015f6101000a81548173ffffffffffffffffffffffffffffffffffffffff021916908373ffffffffffffffffffffffffffffffffffffffff16021790555060018201548160010155600282015f9054906101000a900473ffffffffffffffffffffffffffffffffffffffff16816002015f6101000a81548173ffffffffffffffffffffffffffffffffffffffff021916908373ffffffffffffffffffffffffffffffffffffffff160217905550600382015481600301559050508260045f8773ffffffffffffffffffffffffffffffffffffffff1673ffffffffffffffffffffffffffffffffffffffff1681526020019081526020015f205f836001015481526020019081526020015f2081905550505b60025f8573ffffffffffffffffffffffffffffffffffffffff1673ffffffffffffffffffffffffffffffffffffffff1681526020019081526020015f2080548061162e5761162d611ea9565b5b600190038181905f5260205f2090600402015f8082015f6101000a81549073ffffffffffffffffffffffffffffffffffffffff0219169055600182015f9055600282015f6101000a81549073ffffffffffffffffffffffffffffffffffffffff0219169055600382015f90555050905560035f8573ffffffffffffffffffffffffffffffffffffffff1673ffffffffffffffffffffffffffffffffffffffff1681526020019081526020015f205f8481526020019081526020015f205f8082015f6101000a81549073ffffffffffffffffffffffffffffffffffffffff0219169055600182015f9055600282015f6101000a81549073ffffffffffffffffffffffffffffffffffffffff0219169055600382015f9055505060045f8573ffffffffffffffffffffffffffffffffffffffff1673ffffffffffffffffffffffffffffffffffffffff1681526020019081526020015f205f8481526020019081526020015f205f905550505050565b5f80fd5b5f73ffffffffffffffffffffffffffffffffffffffff82169050919050565b5f6117c88261179f565b9050919050565b6117d8816117be565b81146117e2575f80fd5b50565b5f813590506117f3816117cf565b92915050565b5f819050919050565b61180b816117f9565b8114611815575f80fd5b50565b5f8135905061182681611802565b92915050565b5f80604083850312156118425761184161179b565b5b5f61184f858286016117e5565b925050602061186085828601611818565b9150509250929050565b611873816117f9565b82525050565b5f60208201905061188c5f83018461186a565b92915050565b61189b816117be565b82525050565b5f6080820190506118b45f830187611892565b6118c1602083018661186a565b6118ce6040830185611892565b6118db606083018461186a565b95945050505050565b5f6020820190506118f75f830184611892565b92915050565b5f805f606084860312156119145761191361179b565b5b5f611921868287016117e5565b935050602061193286828701611818565b925050604061194386828701611818565b9150509250925092565b5f819050919050565b5f61197061196b6119668461179f565b61194d565b61179f565b9050919050565b5f61198182611956565b9050919050565b5f61199282611977565b9050919050565b6119a281611988565b82525050565b5f6020820190506119bb5f830184611999565b92915050565b5f602082840312156119d6576119d561179b565b5b5f6119e3848285016117e5565b91505092915050565b5f82825260208201905092915050565b7f636f6e74726163742061646472657373206973207a65726f00000000000000005f82015250565b5f611a306018836119ec565b9150611a3b826119fc565b602082019050919050565b5f6020820190508181035f830152611a5d81611a24565b9050919050565b7f746f6b656e20686173206e6f74206c69737465640000000000000000000000005f82015250565b5f611a986014836119ec565b9150611aa382611a64565b602082019050919050565b5f6020820190508181035f830152611ac581611a8c565b9050919050565b7f6d73672073656e646572206973206e6f742073656c6c657200000000000000005f82015250565b5f611b006018836119ec565b9150611b0b82611acc565b602082019050919050565b5f6020820190508181035f830152611b2d81611af4565b9050919050565b7f4e487b71000000000000000000000000000000000000000000000000000000005f52603260045260245ffd5b5f604082019050611b745f83018561186a565b611b81602083018461186a565b9392505050565b5f81519050611b96816117cf565b92915050565b5f60208284031215611bb157611bb061179b565b5b5f611bbe84828501611b88565b91505092915050565b7f6d73672073656e646572206973206e6f7420746f6b656e2773206f776e6572005f82015250565b5f611bfb601f836119ec565b9150611c0682611bc7565b602082019050919050565b5f6020820190508181035f830152611c2881611bef565b9050919050565b5f604082019050611c425f830185611892565b611c4f6020830184611892565b9392505050565b5f8115159050919050565b611c6a81611c56565b8114611c74575f80fd5b50565b5f81519050611c8581611c61565b92915050565b5f60208284031215611ca057611c9f61179b565b5b5f611cad84828501611c77565b91505092915050565b7f6d73672073656e6465722068617665206e6f742063616c6c20736574417070725f8201527f6f766564466f72416c6c20666f72206d61726b65740000000000000000000000602082015250565b5f611d106035836119ec565b9150611d1b82611cb6565b604082019050919050565b5f6020820190508181035f830152611d3d81611d04565b9050919050565b7f4e487b71000000000000000000000000000000000000000000000000000000005f52601160045260245ffd5b5f611d7b826117f9565b9150611d86836117f9565b9250828203905081811115611d9e57611d9d611d44565b5b92915050565b7f62757965722069732073656c6c657200000000000000000000000000000000005f82015250565b5f611dd8600f836119ec565b9150611de382611da4565b602082019050919050565b5f6020820190508181035f830152611e0581611dcc565b9050919050565b5f606082019050611e1f5f830186611892565b611e2c6020830185611892565b611e39604083018461186a565b949350505050565b7f7472616e73666572206572633230206661696c000000000000000000000000005f82015250565b5f611e756013836119ec565b9150611e8082611e41565b602082019050919050565b5f6020820190508181035f830152611ea281611e69565b9050919050565b7f4e487b71000000000000000000000000000000000000000000000000000000005f52603160045260245ffdfea26469706673582212207a2b3d5f659db83b28edc571f7286434d958679a0d232051d8fe93d8f762321264736f6c634300081a0033",
					"opcodes": "PUSH1 0x80 PUSH1 0x40 MSTORE CALLVALUE DUP1 ISZERO PUSH2 0xF JUMPI PUSH0 DUP1 REVERT JUMPDEST POP PUSH1 0x40 MLOAD PUSH2 0x213E CODESIZE SUB DUP1 PUSH2 0x213E DUP4 CODECOPY DUP2 DUP2 ADD PUSH1 0x40 MSTORE DUP2 ADD SWAP1 PUSH2 0x31 SWAP2 SWAP1 PUSH2 0x182 JUMP JUMPDEST PUSH0 PUSH20 0xFFFFFFFFFFFFFFFFFFFFFFFFFFFFFFFFFFFFFFFF AND DUP2 PUSH20 0xFFFFFFFFFFFFFFFFFFFFFFFFFFFFFFFFFFFFFFFF AND SUB PUSH2 0x9F JUMPI PUSH1 0x40 MLOAD PUSH32 0x8C379A000000000000000000000000000000000000000000000000000000000 DUP2 MSTORE PUSH1 0x4 ADD PUSH2 0x96 SWAP1 PUSH2 0x207 JUMP JUMPDEST PUSH1 0x40 MLOAD DUP1 SWAP2 SUB SWAP1 REVERT JUMPDEST CALLER PUSH0 DUP1 PUSH2 0x100 EXP DUP2 SLOAD DUP2 PUSH20 0xFFFFFFFFFFFFFFFFFFFFFFFFFFFFFFFFFFFFFFFF MUL NOT AND SWAP1 DUP4 PUSH20 0xFFFFFFFFFFFFFFFFFFFFFFFFFFFFFFFFFFFFFFFF AND MUL OR SWAP1 SSTORE POP DUP1 PUSH1 0x1 PUSH0 PUSH2 0x100 EXP DUP2 SLOAD DUP2 PUSH20 0xFFFFFFFFFFFFFFFFFFFFFFFFFFFFFFFFFFFFFFFF MUL NOT AND SWAP1 DUP4 PUSH20 0xFFFFFFFFFFFFFFFFFFFFFFFFFFFFFFFFFFFFFFFF AND MUL OR SWAP1 SSTORE POP POP PUSH2 0x225 JUMP JUMPDEST PUSH0 DUP1 REVERT JUMPDEST PUSH0 PUSH20 0xFFFFFFFFFFFFFFFFFFFFFFFFFFFFFFFFFFFFFFFF DUP3 AND SWAP1 POP SWAP2 SWAP1 POP JUMP JUMPDEST PUSH0 PUSH2 0x151 DUP3 PUSH2 0x128 JUMP JUMPDEST SWAP1 POP SWAP2 SWAP1 POP JUMP JUMPDEST PUSH2 0x161 DUP2 PUSH2 0x147 JUMP JUMPDEST DUP2 EQ PUSH2 0x16B JUMPI PUSH0 DUP1 REVERT JUMPDEST POP JUMP JUMPDEST PUSH0 DUP2 MLOAD SWAP1 POP PUSH2 0x17C DUP2 PUSH2 0x158 JUMP JUMPDEST SWAP3 SWAP2 POP POP JUMP JUMPDEST PUSH0 PUSH1 0x20 DUP3 DUP5 SUB SLT ISZERO PUSH2 0x197 JUMPI PUSH2 0x196 PUSH2 0x124 JUMP JUMPDEST JUMPDEST PUSH0 PUSH2 0x1A4 DUP5 DUP3 DUP6 ADD PUSH2 0x16E JUMP JUMPDEST SWAP2 POP POP SWAP3 SWAP2 POP POP JUMP JUMPDEST PUSH0 DUP3 DUP3 MSTORE PUSH1 0x20 DUP3 ADD SWAP1 POP SWAP3 SWAP2 POP POP JUMP JUMPDEST PUSH32 0x65726332302061646472657373206973207A65726F0000000000000000000000 PUSH0 DUP3 ADD MSTORE POP JUMP JUMPDEST PUSH0 PUSH2 0x1F1 PUSH1 0x15 DUP4 PUSH2 0x1AD JUMP JUMPDEST SWAP2 POP PUSH2 0x1FC DUP3 PUSH2 0x1BD JUMP JUMPDEST PUSH1 0x20 DUP3 ADD SWAP1 POP SWAP2 SWAP1 POP JUMP JUMPDEST PUSH0 PUSH1 0x20 DUP3 ADD SWAP1 POP DUP2 DUP2 SUB PUSH0 DUP4 ADD MSTORE PUSH2 0x21E DUP2 PUSH2 0x1E5 JUMP JUMPDEST SWAP1 POP SWAP2 SWAP1 POP JUMP JUMPDEST PUSH2 0x1F0C DUP1 PUSH2 0x232 PUSH0 CODECOPY PUSH0 RETURN INVALID PUSH1 0x80 PUSH1 0x40 MSTORE CALLVALUE DUP1 ISZERO PUSH2 0xF JUMPI PUSH0 DUP1 REVERT JUMPDEST POP PUSH1 0x4 CALLDATASIZE LT PUSH2 0x9C JUMPI PUSH0 CALLDATALOAD PUSH1 0xE0 SHR DUP1 PUSH4 0x785E9E86 GT PUSH2 0x64 JUMPI DUP1 PUSH4 0x785E9E86 EQ PUSH2 0x170 JUMPI DUP1 PUSH4 0x7FC27EFD EQ PUSH2 0x18E JUMPI DUP1 PUSH4 0xAD05F1B4 EQ PUSH2 0x1AA JUMPI DUP1 PUSH4 0xCCE7EC13 EQ PUSH2 0x1C6 JUMPI DUP1 PUSH4 0xDE6B8A2E EQ PUSH2 0x1E2 JUMPI PUSH2 0x9C JUMP JUMPDEST DUP1 PUSH4 0x2917C145 EQ PUSH2 0xA0 JUMPI DUP1 PUSH4 0x29C29E9D EQ PUSH2 0xD0 JUMPI DUP1 PUSH4 0x47D90B5C EQ PUSH2 0x103 JUMPI DUP1 PUSH4 0x4E6FE8D8 EQ PUSH2 0x121 JUMPI DUP1 PUSH4 0x741CBAE4 EQ PUSH2 0x154 JUMPI JUMPDEST PUSH0 DUP1 REVERT JUMPDEST PUSH2 0xBA PUSH1 0x4 DUP1 CALLDATASIZE SUB DUP2 ADD SWAP1 PUSH2 0xB5 SWAP2 SWAP1 PUSH2 0x182C JUMP JUMPDEST PUSH2 0x212 JUMP JUMPDEST PUSH1 0x40 MLOAD PUSH2 0xC7 SWAP2 SWAP1 PUSH2 0x1879 JUMP JUMPDEST PUSH1 0x40 MLOAD DUP1 SWAP2 SUB SWAP1 RETURN JUMPDEST PUSH2 0xEA PUSH1 0x4 DUP1 CALLDATASIZE SUB DUP2 ADD SWAP1 PUSH2 0xE5 SWAP2 SWAP1 PUSH2 0x182C JUMP JUMPDEST PUSH2 0x232 JUMP JUMPDEST PUSH1 0x40 MLOAD PUSH2 0xFA SWAP5 SWAP4 SWAP3 SWAP2 SWAP1 PUSH2 0x18A1 JUMP JUMPDEST PUSH1 0x40 MLOAD DUP1 SWAP2 SUB SWAP1 RETURN JUMPDEST PUSH2 0x10B PUSH2 0x2A7 JUMP JUMPDEST PUSH1 0x40 MLOAD PUSH2 0x118 SWAP2 SWAP1 PUSH2 0x18E4 JUMP JUMPDEST PUSH1 0x40 MLOAD DUP1 SWAP2 SUB SWAP1 RETURN JUMPDEST PUSH2 0x13B PUSH1 0x4 DUP1 CALLDATASIZE SUB DUP2 ADD SWAP1 PUSH2 0x136 SWAP2 SWAP1 PUSH2 0x182C JUMP JUMPDEST PUSH2 0x2CA JUMP JUMPDEST PUSH1 0x40 MLOAD PUSH2 0x14B SWAP5 SWAP4 SWAP3 SWAP2 SWAP1 PUSH2 0x18A1 JUMP JUMPDEST PUSH1 0x40 MLOAD DUP1 SWAP2 SUB SWAP1 RETURN JUMPDEST PUSH2 0x16E PUSH1 0x4 DUP1 CALLDATASIZE SUB DUP2 ADD SWAP1 PUSH2 0x169 SWAP2 SWAP1 PUSH2 0x18FD JUMP JUMPDEST PUSH2 0x34E JUMP JUMPDEST STOP JUMPDEST PUSH2 0x178 PUSH2 0x6D4 JUMP JUMPDEST PUSH1 0x40 MLOAD PUSH2 0x185 SWAP2 SWAP1 PUSH2 0x19A8 JUMP JUMPDEST PUSH1 0x40 MLOAD DUP1 SWAP2 SUB SWAP1 RETURN JUMPDEST PUSH2 0x1A8 PUSH1 0x4 DUP1 CALLDATASIZE SUB DUP2 ADD SWAP1 PUSH2 0x1A3 SWAP2 SWAP1 PUSH2 0x182C JUMP JUMPDEST PUSH2 0x6F9 JUMP JUMPDEST STOP JUMPDEST PUSH2 0x1C4 PUSH1 0x4 DUP1 CALLDATASIZE SUB DUP2 ADD SWAP1 PUSH2 0x1BF SWAP2 SWAP1 PUSH2 0x18FD JUMP JUMPDEST PUSH2 0x91F JUMP JUMPDEST STOP JUMPDEST PUSH2 0x1E0 PUSH1 0x4 DUP1 CALLDATASIZE SUB DUP2 ADD SWAP1 PUSH2 0x1DB SWAP2 SWAP1 PUSH2 0x182C JUMP JUMPDEST PUSH2 0xEC7 JUMP JUMPDEST STOP JUMPDEST PUSH2 0x1FC PUSH1 0x4 DUP1 CALLDATASIZE SUB DUP2 ADD SWAP1 PUSH2 0x1F7 SWAP2 SWAP1 PUSH2 0x19C1 JUMP JUMPDEST PUSH2 0x1301 JUMP JUMPDEST PUSH1 0x40 MLOAD PUSH2 0x209 SWAP2 SWAP1 PUSH2 0x1879 JUMP JUMPDEST PUSH1 0x40 MLOAD DUP1 SWAP2 SUB SWAP1 RETURN JUMPDEST PUSH1 0x4 PUSH1 0x20 MSTORE DUP2 PUSH0 MSTORE PUSH1 0x40 PUSH0 KECCAK256 PUSH1 0x20 MSTORE DUP1 PUSH0 MSTORE PUSH1 0x40 PUSH0 KECCAK256 PUSH0 SWAP2 POP SWAP2 POP POP SLOAD DUP2 JUMP JUMPDEST PUSH1 0x3 PUSH1 0x20 MSTORE DUP2 PUSH0 MSTORE PUSH1 0x40 PUSH0 KECCAK256 PUSH1 0x20 MSTORE DUP1 PUSH0 MSTORE PUSH1 0x40 PUSH0 KECCAK256 PUSH0 SWAP2 POP SWAP2 POP POP DUP1 PUSH0 ADD PUSH0 SWAP1 SLOAD SWAP1 PUSH2 0x100 EXP SWAP1 DIV PUSH20 0xFFFFFFFFFFFFFFFFFFFFFFFFFFFFFFFFFFFFFFFF AND SWAP1 DUP1 PUSH1 0x1 ADD SLOAD SWAP1 DUP1 PUSH1 0x2 ADD PUSH0 SWAP1 SLOAD SWAP1 PUSH2 0x100 EXP SWAP1 DIV PUSH20 0xFFFFFFFFFFFFFFFFFFFFFFFFFFFFFFFFFFFFFFFF AND SWAP1 DUP1 PUSH1 0x3 ADD SLOAD SWAP1 POP DUP5 JUMP JUMPDEST PUSH0 DUP1 SLOAD SWAP1 PUSH2 0x100 EXP SWAP1 DIV PUSH20 0xFFFFFFFFFFFFFFFFFFFFFFFFFFFFFFFFFFFFFFFF AND DUP2 JUMP JUMPDEST PUSH1 0x2 PUSH1 0x20 MSTORE DUP2 PUSH0 MSTORE PUSH1 0x40 PUSH0 KECCAK256 DUP2 DUP2 SLOAD DUP2 LT PUSH2 0x2E3 JUMPI PUSH0 DUP1 REVERT JUMPDEST SWAP1 PUSH0 MSTORE PUSH1 0x20 PUSH0 KECCAK256 SWAP1 PUSH1 0x4 MUL ADD PUSH0 SWAP2 POP SWAP2 POP POP DUP1 PUSH0 ADD PUSH0 SWAP1 SLOAD SWAP1 PUSH2 0x100 EXP SWAP1 DIV PUSH20 0xFFFFFFFFFFFFFFFFFFFFFFFFFFFFFFFFFFFFFFFF AND SWAP1 DUP1 PUSH1 0x1 ADD SLOAD SWAP1 DUP1 PUSH1 0x2 ADD PUSH0 SWAP1 SLOAD SWAP1 PUSH2 0x100 EXP SWAP1 DIV PUSH20 0xFFFFFFFFFFFFFFFFFFFFFFFFFFFFFFFFFFFFFFFF AND SWAP1 DUP1 PUSH1 0x3 ADD SLOAD SWAP1 POP DUP5 JUMP JUMPDEST PUSH0 PUSH20 0xFFFFFFFFFFFFFFFFFFFFFFFFFFFFFFFFFFFFFFFF AND DUP4 PUSH20 0xFFFFFFFFFFFFFFFFFFFFFFFFFFFFFFFFFFFFFFFF AND SUB PUSH2 0x3BC JUMPI PUSH1 0x40 MLOAD PUSH32 0x8C379A000000000000000000000000000000000000000000000000000000000 DUP2 MSTORE PUSH1 0x4 ADD PUSH2 0x3B3 SWAP1 PUSH2 0x1A46 JUMP JUMPDEST PUSH1 0x40 MLOAD DUP1 SWAP2 SUB SWAP1 REVERT JUMPDEST PUSH0 PUSH1 0x3 PUSH0 DUP6 PUSH20 0xFFFFFFFFFFFFFFFFFFFFFFFFFFFFFFFFFFFFFFFF AND PUSH20 0xFFFFFFFFFFFFFFFFFFFFFFFFFFFFFFFFFFFFFFFF AND DUP2 MSTORE PUSH1 0x20 ADD SWAP1 DUP2 MSTORE PUSH1 0x20 ADD PUSH0 KECCAK256 PUSH0 DUP5 DUP2 MSTORE PUSH1 0x20 ADD SWAP1 DUP2 MSTORE PUSH1 0x20 ADD PUSH0 KECCAK256 PUSH1 0x2 ADD PUSH0 SWAP1 SLOAD SWAP1 PUSH2 0x100 EXP SWAP1 DIV PUSH20 0xFFFFFFFFFFFFFFFFFFFFFFFFFFFFFFFFFFFFFFFF AND SWAP1 POP PUSH0 PUSH20 0xFFFFFFFFFFFFFFFFFFFFFFFFFFFFFFFFFFFFFFFF AND DUP2 PUSH20 0xFFFFFFFFFFFFFFFFFFFFFFFFFFFFFFFFFFFFFFFF AND SUB PUSH2 0x49C JUMPI PUSH1 0x40 MLOAD PUSH32 0x8C379A000000000000000000000000000000000000000000000000000000000 DUP2 MSTORE PUSH1 0x4 ADD PUSH2 0x493 SWAP1 PUSH2 0x1AAE JUMP JUMPDEST PUSH1 0x40 MLOAD DUP1 SWAP2 SUB SWAP1 REVERT JUMPDEST DUP1 PUSH20 0xFFFFFFFFFFFFFFFFFFFFFFFFFFFFFFFFFFFFFFFF AND CALLER PUSH20 0xFFFFFFFFFFFFFFFFFFFFFFFFFFFFFFFFFFFFFFFF AND EQ PUSH2 0x50A JUMPI PUSH1 0x40 MLOAD PUSH32 0x8C379A000000000000000000000000000000000000000000000000000000000 DUP2 MSTORE PUSH1 0x4 ADD PUSH2 0x501 SWAP1 PUSH2 0x1B16 JUMP JUMPDEST PUSH1 0x40 MLOAD DUP1 SWAP2 SUB SWAP1 REVERT JUMPDEST PUSH0 PUSH1 0x3 PUSH0 DUP7 PUSH20 0xFFFFFFFFFFFFFFFFFFFFFFFFFFFFFFFFFFFFFFFF AND PUSH20 0xFFFFFFFFFFFFFFFFFFFFFFFFFFFFFFFFFFFFFFFF AND DUP2 MSTORE PUSH1 0x20 ADD SWAP1 DUP2 MSTORE PUSH1 0x20 ADD PUSH0 KECCAK256 PUSH0 DUP6 DUP2 MSTORE PUSH1 0x20 ADD SWAP1 DUP2 MSTORE PUSH1 0x20 ADD PUSH0 KECCAK256 PUSH1 0x3 ADD SLOAD SWAP1 POP DUP3 PUSH1 0x3 PUSH0 DUP8 PUSH20 0xFFFFFFFFFFFFFFFFFFFFFFFFFFFFFFFFFFFFFFFF AND PUSH20 0xFFFFFFFFFFFFFFFFFFFFFFFFFFFFFFFFFFFFFFFF AND DUP2 MSTORE PUSH1 0x20 ADD SWAP1 DUP2 MSTORE PUSH1 0x20 ADD PUSH0 KECCAK256 PUSH0 DUP7 DUP2 MSTORE PUSH1 0x20 ADD SWAP1 DUP2 MSTORE PUSH1 0x20 ADD PUSH0 KECCAK256 PUSH1 0x3 ADD DUP2 SWAP1 SSTORE POP PUSH0 PUSH1 0x4 PUSH0 DUP8 PUSH20 0xFFFFFFFFFFFFFFFFFFFFFFFFFFFFFFFFFFFFFFFF AND PUSH20 0xFFFFFFFFFFFFFFFFFFFFFFFFFFFFFFFFFFFFFFFF AND DUP2 MSTORE PUSH1 0x20 ADD SWAP1 DUP2 MSTORE PUSH1 0x20 ADD PUSH0 KECCAK256 PUSH0 DUP7 DUP2 MSTORE PUSH1 0x20 ADD SWAP1 DUP2 MSTORE PUSH1 0x20 ADD PUSH0 KECCAK256 SLOAD SWAP1 POP DUP4 PUSH1 0x2 PUSH0 DUP9 PUSH20 0xFFFFFFFFFFFFFFFFFFFFFFFFFFFFFFFFFFFFFFFF AND PUSH20 0xFFFFFFFFFFFFFFFFFFFFFFFFFFFFFFFFFFFFFFFF AND DUP2 MSTORE PUSH1 0x20 ADD SWAP1 DUP2 MSTORE PUSH1 0x20 ADD PUSH0 KECCAK256 DUP3 DUP2 SLOAD DUP2 LT PUSH2 0x651 JUMPI PUSH2 0x650 PUSH2 0x1B34 JUMP JUMPDEST JUMPDEST SWAP1 PUSH0 MSTORE PUSH1 0x20 PUSH0 KECCAK256 SWAP1 PUSH1 0x4 MUL ADD PUSH1 0x3 ADD DUP2 SWAP1 SSTORE POP DUP5 DUP4 PUSH20 0xFFFFFFFFFFFFFFFFFFFFFFFFFFFFFFFFFFFFFFFF AND DUP8 PUSH20 0xFFFFFFFFFFFFFFFFFFFFFFFFFFFFFFFFFFFFFFFF AND PUSH32 0xBBDD274C8E6142E9CF1E5198BD2942FA0E315FA6A4A5D843949AFDE9F93A677F DUP6 DUP9 PUSH1 0x40 MLOAD PUSH2 0x6C4 SWAP3 SWAP2 SWAP1 PUSH2 0x1B61 JUMP JUMPDEST PUSH1 0x40 MLOAD DUP1 SWAP2 SUB SWAP1 LOG4 POP POP POP POP POP POP JUMP JUMPDEST PUSH1 0x1 PUSH0 SWAP1 SLOAD SWAP1 PUSH2 0x100 EXP SWAP1 DIV PUSH20 0xFFFFFFFFFFFFFFFFFFFFFFFFFFFFFFFFFFFFFFFF AND DUP2 JUMP JUMPDEST PUSH0 PUSH20 0xFFFFFFFFFFFFFFFFFFFFFFFFFFFFFFFFFFFFFFFF AND DUP3 PUSH20 0xFFFFFFFFFFFFFFFFFFFFFFFFFFFFFFFFFFFFFFFF AND SUB PUSH2 0x767 JUMPI PUSH1 0x40 MLOAD PUSH32 0x8C379A000000000000000000000000000000000000000000000000000000000 DUP2 MSTORE PUSH1 0x4 ADD PUSH2 0x75E SWAP1 PUSH2 0x1A46 JUMP JUMPDEST PUSH1 0x40 MLOAD DUP1 SWAP2 SUB SWAP1 REVERT JUMPDEST PUSH0 PUSH1 0x3 PUSH0 DUP5 PUSH20 0xFFFFFFFFFFFFFFFFFFFFFFFFFFFFFFFFFFFFFFFF AND PUSH20 0xFFFFFFFFFFFFFFFFFFFFFFFFFFFFFFFFFFFFFFFF AND DUP2 MSTORE PUSH1 0x20 ADD SWAP1 DUP2 MSTORE PUSH1 0x20 ADD PUSH0 KECCAK256 PUSH0 DUP4 DUP2 MSTORE PUSH1 0x20 ADD SWAP1 DUP2 MSTORE PUSH1 0x20 ADD PUSH0 KECCAK256 PUSH1 0x2 ADD PUSH0 SWAP1 SLOAD SWAP1 PUSH2 0x100 EXP SWAP1 DIV PUSH20 0xFFFFFFFFFFFFFFFFFFFFFFFFFFFFFFFFFFFFFFFF AND SWAP1 POP PUSH0 PUSH20 0xFFFFFFFFFFFFFFFFFFFFFFFFFFFFFFFFFFFFFFFF AND DUP2 PUSH20 0xFFFFFFFFFFFFFFFFFFFFFFFFFFFFFFFFFFFFFFFF AND SUB PUSH2 0x847 JUMPI PUSH1 0x40 MLOAD PUSH32 0x8C379A000000000000000000000000000000000000000000000000000000000 DUP2 MSTORE PUSH1 0x4 ADD PUSH2 0x83E SWAP1 PUSH2 0x1AAE JUMP JUMPDEST PUSH1 0x40 MLOAD DUP1 SWAP2 SUB SWAP1 REVERT JUMPDEST DUP1 PUSH20 0xFFFFFFFFFFFFFFFFFFFFFFFFFFFFFFFFFFFFFFFF AND CALLER PUSH20 0xFFFFFFFFFFFFFFFFFFFFFFFFFFFFFFFFFFFFFFFF AND EQ PUSH2 0x8B5 JUMPI PUSH1 0x40 MLOAD PUSH32 0x8C379A000000000000000000000000000000000000000000000000000000000 DUP2 MSTORE PUSH1 0x4 ADD PUSH2 0x8AC SWAP1 PUSH2 0x1B16 JUMP JUMPDEST PUSH1 0x40 MLOAD DUP1 SWAP2 SUB SWAP1 REVERT JUMPDEST PUSH2 0x8BF DUP4 DUP4 PUSH2 0x134A JUMP JUMPDEST DUP2 DUP2 PUSH20 0xFFFFFFFFFFFFFFFFFFFFFFFFFFFFFFFFFFFFFFFF AND DUP5 PUSH20 0xFFFFFFFFFFFFFFFFFFFFFFFFFFFFFFFFFFFFFFFF AND PUSH32 0xD8A931BA19EFF049C3C5D3404648E3C0283462D3071E2D4157117069197A4A99 PUSH1 0x40 MLOAD PUSH1 0x40 MLOAD DUP1 SWAP2 SUB SWAP1 LOG4 POP POP POP JUMP JUMPDEST PUSH0 PUSH20 0xFFFFFFFFFFFFFFFFFFFFFFFFFFFFFFFFFFFFFFFF AND DUP4 PUSH20 0xFFFFFFFFFFFFFFFFFFFFFFFFFFFFFFFFFFFFFFFF AND SUB PUSH2 0x98D JUMPI PUSH1 0x40 MLOAD PUSH32 0x8C379A000000000000000000000000000000000000000000000000000000000 DUP2 MSTORE PUSH1 0x4 ADD PUSH2 0x984 SWAP1 PUSH2 0x1A46 JUMP JUMPDEST PUSH1 0x40 MLOAD DUP1 SWAP2 SUB SWAP1 REVERT JUMPDEST PUSH0 DUP4 SWAP1 POP PUSH0 CALLER SWAP1 POP DUP1 PUSH20 0xFFFFFFFFFFFFFFFFFFFFFFFFFFFFFFFFFFFFFFFF AND DUP3 PUSH20 0xFFFFFFFFFFFFFFFFFFFFFFFFFFFFFFFFFFFFFFFF AND PUSH4 0x6352211E DUP7 PUSH1 0x40 MLOAD DUP3 PUSH4 0xFFFFFFFF AND PUSH1 0xE0 SHL DUP2 MSTORE PUSH1 0x4 ADD PUSH2 0x9E5 SWAP2 SWAP1 PUSH2 0x1879 JUMP JUMPDEST PUSH1 0x20 PUSH1 0x40 MLOAD DUP1 DUP4 SUB DUP2 DUP7 GAS STATICCALL ISZERO DUP1 ISZERO PUSH2 0xA00 JUMPI RETURNDATASIZE PUSH0 DUP1 RETURNDATACOPY RETURNDATASIZE PUSH0 REVERT JUMPDEST POP POP POP POP PUSH1 0x40 MLOAD RETURNDATASIZE PUSH1 0x1F NOT PUSH1 0x1F DUP3 ADD AND DUP3 ADD DUP1 PUSH1 0x40 MSTORE POP DUP2 ADD SWAP1 PUSH2 0xA24 SWAP2 SWAP1 PUSH2 0x1B9C JUMP JUMPDEST PUSH20 0xFFFFFFFFFFFFFFFFFFFFFFFFFFFFFFFFFFFFFFFF AND EQ PUSH2 0xA7A JUMPI PUSH1 0x40 MLOAD PUSH32 0x8C379A000000000000000000000000000000000000000000000000000000000 DUP2 MSTORE PUSH1 0x4 ADD PUSH2 0xA71 SWAP1 PUSH2 0x1C11 JUMP JUMPDEST PUSH1 0x40 MLOAD DUP1 SWAP2 SUB SWAP1 REVERT JUMPDEST DUP2 PUSH20 0xFFFFFFFFFFFFFFFFFFFFFFFFFFFFFFFFFFFFFFFF AND PUSH4 0xE985E9C5 DUP3 ADDRESS PUSH1 0x40 MLOAD DUP4 PUSH4 0xFFFFFFFF AND PUSH1 0xE0 SHL DUP2 MSTORE PUSH1 0x4 ADD PUSH2 0xAB5 SWAP3 SWAP2 SWAP1 PUSH2 0x1C2F JUMP JUMPDEST PUSH1 0x20 PUSH1 0x40 MLOAD DUP1 DUP4 SUB DUP2 DUP7 GAS STATICCALL ISZERO DUP1 ISZERO PUSH2 0xAD0 JUMPI RETURNDATASIZE PUSH0 DUP1 RETURNDATACOPY RETURNDATASIZE PUSH0 REVERT JUMPDEST POP POP POP POP PUSH1 0x40 MLOAD RETURNDATASIZE PUSH1 0x1F NOT PUSH1 0x1F DUP3 ADD AND DUP3 ADD DUP1 PUSH1 0x40 MSTORE POP DUP2 ADD SWAP1 PUSH2 0xAF4 SWAP2 SWAP1 PUSH2 0x1C8B JUMP JUMPDEST PUSH2 0xB33 JUMPI PUSH1 0x40 MLOAD PUSH32 0x8C379A000000000000000000000000000000000000000000000000000000000 DUP2 MSTORE PUSH1 0x4 ADD PUSH2 0xB2A SWAP1 PUSH2 0x1D26 JUMP JUMPDEST PUSH1 0x40 MLOAD DUP1 SWAP2 SUB SWAP1 REVERT JUMPDEST PUSH1 0x2 PUSH0 DUP7 PUSH20 0xFFFFFFFFFFFFFFFFFFFFFFFFFFFFFFFFFFFFFFFF AND PUSH20 0xFFFFFFFFFFFFFFFFFFFFFFFFFFFFFFFFFFFFFFFF AND DUP2 MSTORE PUSH1 0x20 ADD SWAP1 DUP2 MSTORE PUSH1 0x20 ADD PUSH0 KECCAK256 PUSH1 0x40 MLOAD DUP1 PUSH1 0x80 ADD PUSH1 0x40 MSTORE DUP1 DUP8 PUSH20 0xFFFFFFFFFFFFFFFFFFFFFFFFFFFFFFFFFFFFFFFF AND DUP2 MSTORE PUSH1 0x20 ADD DUP7 DUP2 MSTORE PUSH1 0x20 ADD DUP4 PUSH20 0xFFFFFFFFFFFFFFFFFFFFFFFFFFFFFFFFFFFFFFFF AND DUP2 MSTORE PUSH1 0x20 ADD DUP6 DUP2 MSTORE POP SWAP1 DUP1 PUSH1 0x1 DUP2 SLOAD ADD DUP1 DUP3 SSTORE DUP1 SWAP2 POP POP PUSH1 0x1 SWAP1 SUB SWAP1 PUSH0 MSTORE PUSH1 0x20 PUSH0 KECCAK256 SWAP1 PUSH1 0x4 MUL ADD PUSH0 SWAP1 SWAP2 SWAP1 SWAP2 SWAP1 SWAP2 POP PUSH0 DUP3 ADD MLOAD DUP2 PUSH0 ADD PUSH0 PUSH2 0x100 EXP DUP2 SLOAD DUP2 PUSH20 0xFFFFFFFFFFFFFFFFFFFFFFFFFFFFFFFFFFFFFFFF MUL NOT AND SWAP1 DUP4 PUSH20 0xFFFFFFFFFFFFFFFFFFFFFFFFFFFFFFFFFFFFFFFF AND MUL OR SWAP1 SSTORE POP PUSH1 0x20 DUP3 ADD MLOAD DUP2 PUSH1 0x1 ADD SSTORE PUSH1 0x40 DUP3 ADD MLOAD DUP2 PUSH1 0x2 ADD PUSH0 PUSH2 0x100 EXP DUP2 SLOAD DUP2 PUSH20 0xFFFFFFFFFFFFFFFFFFFFFFFFFFFFFFFFFFFFFFFF MUL NOT AND SWAP1 DUP4 PUSH20 0xFFFFFFFFFFFFFFFFFFFFFFFFFFFFFFFFFFFFFFFF AND MUL OR SWAP1 SSTORE POP PUSH1 0x60 DUP3 ADD MLOAD DUP2 PUSH1 0x3 ADD SSTORE POP POP PUSH1 0x1 PUSH1 0x2 PUSH0 DUP8 PUSH20 0xFFFFFFFFFFFFFFFFFFFFFFFFFFFFFFFFFFFFFFFF AND PUSH20 0xFFFFFFFFFFFFFFFFFFFFFFFFFFFFFFFFFFFFFFFF AND DUP2 MSTORE PUSH1 0x20 ADD SWAP1 DUP2 MSTORE PUSH1 0x20 ADD PUSH0 KECCAK256 DUP1 SLOAD SWAP1 POP PUSH2 0xCD0 SWAP2 SWAP1 PUSH2 0x1D71 JUMP JUMPDEST PUSH1 0x4 PUSH0 DUP8 PUSH20 0xFFFFFFFFFFFFFFFFFFFFFFFFFFFFFFFFFFFFFFFF AND PUSH20 0xFFFFFFFFFFFFFFFFFFFFFFFFFFFFFFFFFFFFFFFF AND DUP2 MSTORE PUSH1 0x20 ADD SWAP1 DUP2 MSTORE PUSH1 0x20 ADD PUSH0 KECCAK256 PUSH0 DUP7 DUP2 MSTORE PUSH1 0x20 ADD SWAP1 DUP2 MSTORE PUSH1 0x20 ADD PUSH0 KECCAK256 DUP2 SWAP1 SSTORE POP PUSH1 0x40 MLOAD DUP1 PUSH1 0x80 ADD PUSH1 0x40 MSTORE DUP1 DUP7 PUSH20 0xFFFFFFFFFFFFFFFFFFFFFFFFFFFFFFFFFFFFFFFF AND DUP2 MSTORE PUSH1 0x20 ADD DUP6 DUP2 MSTORE PUSH1 0x20 ADD DUP3 PUSH20 0xFFFFFFFFFFFFFFFFFFFFFFFFFFFFFFFFFFFFFFFF AND DUP2 MSTORE PUSH1 0x20 ADD DUP5 DUP2 MSTORE POP PUSH1 0x3 PUSH0 DUP8 PUSH20 0xFFFFFFFFFFFFFFFFFFFFFFFFFFFFFFFFFFFFFFFF AND PUSH20 0xFFFFFFFFFFFFFFFFFFFFFFFFFFFFFFFFFFFFFFFF AND DUP2 MSTORE PUSH1 0x20 ADD SWAP1 DUP2 MSTORE PUSH1 0x20 ADD PUSH0 KECCAK256 PUSH0 DUP7 DUP2 MSTORE PUSH1 0x20 ADD SWAP1 DUP2 MSTORE PUSH1 0x20 ADD PUSH0 KECCAK256 PUSH0 DUP3 ADD MLOAD DUP2 PUSH0 ADD PUSH0 PUSH2 0x100 EXP DUP2 SLOAD DUP2 PUSH20 0xFFFFFFFFFFFFFFFFFFFFFFFFFFFFFFFFFFFFFFFF MUL NOT AND SWAP1 DUP4 PUSH20 0xFFFFFFFFFFFFFFFFFFFFFFFFFFFFFFFFFFFFFFFF AND MUL OR SWAP1 SSTORE POP PUSH1 0x20 DUP3 ADD MLOAD DUP2 PUSH1 0x1 ADD SSTORE PUSH1 0x40 DUP3 ADD MLOAD DUP2 PUSH1 0x2 ADD PUSH0 PUSH2 0x100 EXP DUP2 SLOAD DUP2 PUSH20 0xFFFFFFFFFFFFFFFFFFFFFFFFFFFFFFFFFFFFFFFF MUL NOT AND SWAP1 DUP4 PUSH20 0xFFFFFFFFFFFFFFFFFFFFFFFFFFFFFFFFFFFFFFFF AND MUL OR SWAP1 SSTORE POP PUSH1 0x60 DUP3 ADD MLOAD DUP2 PUSH1 0x3 ADD SSTORE SWAP1 POP POP DUP4 DUP2 PUSH20 0xFFFFFFFFFFFFFFFFFFFFFFFFFFFFFFFFFFFFFFFF AND DUP7 PUSH20 0xFFFFFFFFFFFFFFFFFFFFFFFFFFFFFFFFFFFFFFFF AND PUSH32 0x3348BBE3128F82FA60A003ACA513985072CACB60F82331C91FB0322D84984B61 DUP7 PUSH1 0x40 MLOAD PUSH2 0xEB8 SWAP2 SWAP1 PUSH2 0x1879 JUMP JUMPDEST PUSH1 0x40 MLOAD DUP1 SWAP2 SUB SWAP1 LOG4 POP POP POP POP POP JUMP JUMPDEST PUSH0 PUSH20 0xFFFFFFFFFFFFFFFFFFFFFFFFFFFFFFFFFFFFFFFF AND DUP3 PUSH20 0xFFFFFFFFFFFFFFFFFFFFFFFFFFFFFFFFFFFFFFFF AND SUB PUSH2 0xF35 JUMPI PUSH1 0x40 MLOAD PUSH32 0x8C379A000000000000000000000000000000000000000000000000000000000 DUP2 MSTORE PUSH1 0x4 ADD PUSH2 0xF2C SWAP1 PUSH2 0x1A46 JUMP JUMPDEST PUSH1 0x40 MLOAD DUP1 SWAP2 SUB SWAP1 REVERT JUMPDEST PUSH0 DUP3 SWAP1 POP PUSH0 PUSH1 0x3 PUSH0 DUP6 PUSH20 0xFFFFFFFFFFFFFFFFFFFFFFFFFFFFFFFFFFFFFFFF AND PUSH20 0xFFFFFFFFFFFFFFFFFFFFFFFFFFFFFFFFFFFFFFFF AND DUP2 MSTORE PUSH1 0x20 ADD SWAP1 DUP2 MSTORE PUSH1 0x20 ADD PUSH0 KECCAK256 PUSH0 DUP5 DUP2 MSTORE PUSH1 0x20 ADD SWAP1 DUP2 MSTORE PUSH1 0x20 ADD PUSH0 KECCAK256 PUSH1 0x40 MLOAD DUP1 PUSH1 0x80 ADD PUSH1 0x40 MSTORE SWAP1 DUP2 PUSH0 DUP3 ADD PUSH0 SWAP1 SLOAD SWAP1 PUSH2 0x100 EXP SWAP1 DIV PUSH20 0xFFFFFFFFFFFFFFFFFFFFFFFFFFFFFFFFFFFFFFFF AND PUSH20 0xFFFFFFFFFFFFFFFFFFFFFFFFFFFFFFFFFFFFFFFF AND PUSH20 0xFFFFFFFFFFFFFFFFFFFFFFFFFFFFFFFFFFFFFFFF AND DUP2 MSTORE PUSH1 0x20 ADD PUSH1 0x1 DUP3 ADD SLOAD DUP2 MSTORE PUSH1 0x20 ADD PUSH1 0x2 DUP3 ADD PUSH0 SWAP1 SLOAD SWAP1 PUSH2 0x100 EXP SWAP1 DIV PUSH20 0xFFFFFFFFFFFFFFFFFFFFFFFFFFFFFFFFFFFFFFFF AND PUSH20 0xFFFFFFFFFFFFFFFFFFFFFFFFFFFFFFFFFFFFFFFF AND PUSH20 0xFFFFFFFFFFFFFFFFFFFFFFFFFFFFFFFFFFFFFFFF AND DUP2 MSTORE PUSH1 0x20 ADD PUSH1 0x3 DUP3 ADD SLOAD DUP2 MSTORE POP POP SWAP1 POP PUSH0 PUSH20 0xFFFFFFFFFFFFFFFFFFFFFFFFFFFFFFFFFFFFFFFF AND DUP2 PUSH1 0x40 ADD MLOAD PUSH20 0xFFFFFFFFFFFFFFFFFFFFFFFFFFFFFFFFFFFFFFFF AND SUB PUSH2 0x10C2 JUMPI PUSH1 0x40 MLOAD PUSH32 0x8C379A000000000000000000000000000000000000000000000000000000000 DUP2 MSTORE PUSH1 0x4 ADD PUSH2 0x10B9 SWAP1 PUSH2 0x1AAE JUMP JUMPDEST PUSH1 0x40 MLOAD DUP1 SWAP2 SUB SWAP1 REVERT JUMPDEST CALLER PUSH20 0xFFFFFFFFFFFFFFFFFFFFFFFFFFFFFFFFFFFFFFFF AND DUP2 PUSH1 0x40 ADD MLOAD PUSH20 0xFFFFFFFFFFFFFFFFFFFFFFFFFFFFFFFFFFFFFFFF AND SUB PUSH2 0x1134 JUMPI PUSH1 0x40 MLOAD PUSH32 0x8C379A000000000000000000000000000000000000000000000000000000000 DUP2 MSTORE PUSH1 0x4 ADD PUSH2 0x112B SWAP1 PUSH2 0x1DEE JUMP JUMPDEST PUSH1 0x40 MLOAD DUP1 SWAP2 SUB SWAP1 REVERT JUMPDEST PUSH1 0x1 PUSH0 SWAP1 SLOAD SWAP1 PUSH2 0x100 EXP SWAP1 DIV PUSH20 0xFFFFFFFFFFFFFFFFFFFFFFFFFFFFFFFFFFFFFFFF AND PUSH20 0xFFFFFFFFFFFFFFFFFFFFFFFFFFFFFFFFFFFFFFFF AND PUSH4 0x23B872DD CALLER DUP4 PUSH1 0x40 ADD MLOAD DUP5 PUSH1 0x60 ADD MLOAD PUSH1 0x40 MLOAD DUP5 PUSH4 0xFFFFFFFF AND PUSH1 0xE0 SHL DUP2 MSTORE PUSH1 0x4 ADD PUSH2 0x119A SWAP4 SWAP3 SWAP2 SWAP1 PUSH2 0x1E0C JUMP JUMPDEST PUSH1 0x20 PUSH1 0x40 MLOAD DUP1 DUP4 SUB DUP2 PUSH0 DUP8 GAS CALL ISZERO DUP1 ISZERO PUSH2 0x11B6 JUMPI RETURNDATASIZE PUSH0 DUP1 RETURNDATACOPY RETURNDATASIZE PUSH0 REVERT JUMPDEST POP POP POP POP PUSH1 0x40 MLOAD RETURNDATASIZE PUSH1 0x1F NOT PUSH1 0x1F DUP3 ADD AND DUP3 ADD DUP1 PUSH1 0x40 MSTORE POP DUP2 ADD SWAP1 PUSH2 0x11DA SWAP2 SWAP1 PUSH2 0x1C8B JUMP JUMPDEST PUSH2 0x1219 JUMPI PUSH1 0x40 MLOAD PUSH32 0x8C379A000000000000000000000000000000000000000000000000000000000 DUP2 MSTORE PUSH1 0x4 ADD PUSH2 0x1210 SWAP1 PUSH2 0x1E8B JUMP JUMPDEST PUSH1 0x40 MLOAD DUP1 SWAP2 SUB SWAP1 REVERT JUMPDEST DUP2 PUSH20 0xFFFFFFFFFFFFFFFFFFFFFFFFFFFFFFFFFFFFFFFF AND PUSH4 0x42842E0E DUP3 PUSH1 0x40 ADD MLOAD CALLER DUP7 PUSH1 0x40 MLOAD DUP5 PUSH4 0xFFFFFFFF AND PUSH1 0xE0 SHL DUP2 MSTORE PUSH1 0x4 ADD PUSH2 0x125A SWAP4 SWAP3 SWAP2 SWAP1 PUSH2 0x1E0C JUMP JUMPDEST PUSH0 PUSH1 0x40 MLOAD DUP1 DUP4 SUB DUP2 PUSH0 DUP8 DUP1 EXTCODESIZE ISZERO DUP1 ISZERO PUSH2 0x1271 JUMPI PUSH0 DUP1 REVERT JUMPDEST POP GAS CALL ISZERO DUP1 ISZERO PUSH2 0x1283 JUMPI RETURNDATASIZE PUSH0 DUP1 RETURNDATACOPY RETURNDATASIZE PUSH0 REVERT JUMPDEST POP POP POP POP PUSH2 0x1291 DUP5 DUP5 PUSH2 0x134A JUMP JUMPDEST DUP3 CALLER PUSH20 0xFFFFFFFFFFFFFFFFFFFFFFFFFFFFFFFFFFFFFFFF AND DUP6 PUSH20 0xFFFFFFFFFFFFFFFFFFFFFFFFFFFFFFFFFFFFFFFF AND PUSH32 0x424D5E5F0192C7DACDBE646CA31B00299146D883D76A95EF5CDDBAC7CD342EAB DUP5 PUSH1 0x60 ADD MLOAD PUSH1 0x40 MLOAD PUSH2 0x12F3 SWAP2 SWAP1 PUSH2 0x1879 JUMP JUMPDEST PUSH1 0x40 MLOAD DUP1 SWAP2 SUB SWAP1 LOG4 POP POP POP POP JUMP JUMPDEST PUSH0 PUSH1 0x2 PUSH0 DUP4 PUSH20 0xFFFFFFFFFFFFFFFFFFFFFFFFFFFFFFFFFFFFFFFF AND PUSH20 0xFFFFFFFFFFFFFFFFFFFFFFFFFFFFFFFFFFFFFFFF AND DUP2 MSTORE PUSH1 0x20 ADD SWAP1 DUP2 MSTORE PUSH1 0x20 ADD PUSH0 KECCAK256 DUP1 SLOAD SWAP1 POP SWAP1 POP SWAP2 SWAP1 POP JUMP JUMPDEST PUSH0 PUSH1 0x4 PUSH0 DUP5 PUSH20 0xFFFFFFFFFFFFFFFFFFFFFFFFFFFFFFFFFFFFFFFF AND PUSH20 0xFFFFFFFFFFFFFFFFFFFFFFFFFFFFFFFFFFFFFFFF AND DUP2 MSTORE PUSH1 0x20 ADD SWAP1 DUP2 MSTORE PUSH1 0x20 ADD PUSH0 KECCAK256 PUSH0 DUP4 DUP2 MSTORE PUSH1 0x20 ADD SWAP1 DUP2 MSTORE PUSH1 0x20 ADD PUSH0 KECCAK256 SLOAD SWAP1 POP PUSH0 PUSH1 0x1 PUSH1 0x2 PUSH0 DUP7 PUSH20 0xFFFFFFFFFFFFFFFFFFFFFFFFFFFFFFFFFFFFFFFF AND PUSH20 0xFFFFFFFFFFFFFFFFFFFFFFFFFFFFFFFFFFFFFFFF AND DUP2 MSTORE PUSH1 0x20 ADD SWAP1 DUP2 MSTORE PUSH1 0x20 ADD PUSH0 KECCAK256 DUP1 SLOAD SWAP1 POP PUSH2 0x13E8 SWAP2 SWAP1 PUSH2 0x1D71 JUMP JUMPDEST SWAP1 POP DUP1 DUP3 EQ PUSH2 0x15E1 JUMPI PUSH0 PUSH1 0x2 PUSH0 DUP7 PUSH20 0xFFFFFFFFFFFFFFFFFFFFFFFFFFFFFFFFFFFFFFFF AND PUSH20 0xFFFFFFFFFFFFFFFFFFFFFFFFFFFFFFFFFFFFFFFF AND DUP2 MSTORE PUSH1 0x20 ADD SWAP1 DUP2 MSTORE PUSH1 0x20 ADD PUSH0 KECCAK256 DUP3 DUP2 SLOAD DUP2 LT PUSH2 0x1441 JUMPI PUSH2 0x1440 PUSH2 0x1B34 JUMP JUMPDEST JUMPDEST SWAP1 PUSH0 MSTORE PUSH1 0x20 PUSH0 KECCAK256 SWAP1 PUSH1 0x4 MUL ADD SWAP1 POP DUP1 PUSH1 0x2 PUSH0 DUP8 PUSH20 0xFFFFFFFFFFFFFFFFFFFFFFFFFFFFFFFFFFFFFFFF AND PUSH20 0xFFFFFFFFFFFFFFFFFFFFFFFFFFFFFFFFFFFFFFFF AND DUP2 MSTORE PUSH1 0x20 ADD SWAP1 DUP2 MSTORE PUSH1 0x20 ADD PUSH0 KECCAK256 DUP5 DUP2 SLOAD DUP2 LT PUSH2 0x149F JUMPI PUSH2 0x149E PUSH2 0x1B34 JUMP JUMPDEST JUMPDEST SWAP1 PUSH0 MSTORE PUSH1 0x20 PUSH0 KECCAK256 SWAP1 PUSH1 0x4 MUL ADD PUSH0 DUP3 ADD PUSH0 SWAP1 SLOAD SWAP1 PUSH2 0x100 EXP SWAP1 DIV PUSH20 0xFFFFFFFFFFFFFFFFFFFFFFFFFFFFFFFFFFFFFFFF AND DUP2 PUSH0 ADD PUSH0 PUSH2 0x100 EXP DUP2 SLOAD DUP2 PUSH20 0xFFFFFFFFFFFFFFFFFFFFFFFFFFFFFFFFFFFFFFFF MUL NOT AND SWAP1 DUP4 PUSH20 0xFFFFFFFFFFFFFFFFFFFFFFFFFFFFFFFFFFFFFFFF AND MUL OR SWAP1 SSTORE POP PUSH1 0x1 DUP3 ADD SLOAD DUP2 PUSH1 0x1 ADD SSTORE PUSH1 0x2 DUP3 ADD PUSH0 SWAP1 SLOAD SWAP1 PUSH2 0x100 EXP SWAP1 DIV PUSH20 0xFFFFFFFFFFFFFFFFFFFFFFFFFFFFFFFFFFFFFFFF AND DUP2 PUSH1 0x2 ADD PUSH0 PUSH2 0x100 EXP DUP2 SLOAD DUP2 PUSH20 0xFFFFFFFFFFFFFFFFFFFFFFFFFFFFFFFFFFFFFFFF MUL NOT AND SWAP1 DUP4 PUSH20 0xFFFFFFFFFFFFFFFFFFFFFFFFFFFFFFFFFFFFFFFF AND MUL OR SWAP1 SSTORE POP PUSH1 0x3 DUP3 ADD SLOAD DUP2 PUSH1 0x3 ADD SSTORE SWAP1 POP POP DUP3 PUSH1 0x4 PUSH0 DUP8 PUSH20 0xFFFFFFFFFFFFFFFFFFFFFFFFFFFFFFFFFFFFFFFF AND PUSH20 0xFFFFFFFFFFFFFFFFFFFFFFFFFFFFFFFFFFFFFFFF AND DUP2 MSTORE PUSH1 0x20 ADD SWAP1 DUP2 MSTORE PUSH1 0x20 ADD PUSH0 KECCAK256 PUSH0 DUP4 PUSH1 0x1 ADD SLOAD DUP2 MSTORE PUSH1 0x20 ADD SWAP1 DUP2 MSTORE PUSH1 0x20 ADD PUSH0 KECCAK256 DUP2 SWAP1 SSTORE POP POP JUMPDEST PUSH1 0x2 PUSH0 DUP6 PUSH20 0xFFFFFFFFFFFFFFFFFFFFFFFFFFFFFFFFFFFFFFFF AND PUSH20 0xFFFFFFFFFFFFFFFFFFFFFFFFFFFFFFFFFFFFFFFF AND DUP2 MSTORE PUSH1 0x20 ADD SWAP1 DUP2 MSTORE PUSH1 0x20 ADD PUSH0 KECCAK256 DUP1 SLOAD DUP1 PUSH2 0x162E JUMPI PUSH2 0x162D PUSH2 0x1EA9 JUMP JUMPDEST JUMPDEST PUSH1 0x1 SWAP1 SUB DUP2 DUP2 SWAP1 PUSH0 MSTORE PUSH1 0x20 PUSH0 KECCAK256 SWAP1 PUSH1 0x4 MUL ADD PUSH0 DUP1 DUP3 ADD PUSH0 PUSH2 0x100 EXP DUP2 SLOAD SWAP1 PUSH20 0xFFFFFFFFFFFFFFFFFFFFFFFFFFFFFFFFFFFFFFFF MUL NOT AND SWAP1 SSTORE PUSH1 0x1 DUP3 ADD PUSH0 SWAP1 SSTORE PUSH1 0x2 DUP3 ADD PUSH0 PUSH2 0x100 EXP DUP2 SLOAD SWAP1 PUSH20 0xFFFFFFFFFFFFFFFFFFFFFFFFFFFFFFFFFFFFFFFF MUL NOT AND SWAP1 SSTORE PUSH1 0x3 DUP3 ADD PUSH0 SWAP1 SSTORE POP POP SWAP1 SSTORE PUSH1 0x3 PUSH0 DUP6 PUSH20 0xFFFFFFFFFFFFFFFFFFFFFFFFFFFFFFFFFFFFFFFF AND PUSH20 0xFFFFFFFFFFFFFFFFFFFFFFFFFFFFFFFFFFFFFFFF AND DUP2 MSTORE PUSH1 0x20 ADD SWAP1 DUP2 MSTORE PUSH1 0x20 ADD PUSH0 KECCAK256 PUSH0 DUP5 DUP2 MSTORE PUSH1 0x20 ADD SWAP1 DUP2 MSTORE PUSH1 0x20 ADD PUSH0 KECCAK256 PUSH0 DUP1 DUP3 ADD PUSH0 PUSH2 0x100 EXP DUP2 SLOAD SWAP1 PUSH20 0xFFFFFFFFFFFFFFFFFFFFFFFFFFFFFFFFFFFFFFFF MUL NOT AND SWAP1 SSTORE PUSH1 0x1 DUP3 ADD PUSH0 SWAP1 SSTORE PUSH1 0x2 DUP3 ADD PUSH0 PUSH2 0x100 EXP DUP2 SLOAD SWAP1 PUSH20 0xFFFFFFFFFFFFFFFFFFFFFFFFFFFFFFFFFFFFFFFF MUL NOT AND SWAP1 SSTORE PUSH1 0x3 DUP3 ADD PUSH0 SWAP1 SSTORE POP POP PUSH1 0x4 PUSH0 DUP6 PUSH20 0xFFFFFFFFFFFFFFFFFFFFFFFFFFFFFFFFFFFFFFFF AND PUSH20 0xFFFFFFFFFFFFFFFFFFFFFFFFFFFFFFFFFFFFFFFF AND DUP2 MSTORE PUSH1 0x20 ADD SWAP1 DUP2 MSTORE PUSH1 0x20 ADD PUSH0 KECCAK256 PUSH0 DUP5 DUP2 MSTORE PUSH1 0x20 ADD SWAP1 DUP2 MSTORE PUSH1 0x20 ADD PUSH0 KECCAK256 PUSH0 SWAP1 SSTORE POP POP POP POP JUMP JUMPDEST PUSH0 DUP1 REVERT JUMPDEST PUSH0 PUSH20 0xFFFFFFFFFFFFFFFFFFFFFFFFFFFFFFFFFFFFFFFF DUP3 AND SWAP1 POP SWAP2 SWAP1 POP JUMP JUMPDEST PUSH0 PUSH2 0x17C8 DUP3 PUSH2 0x179F JUMP JUMPDEST SWAP1 POP SWAP2 SWAP1 POP JUMP JUMPDEST PUSH2 0x17D8 DUP2 PUSH2 0x17BE JUMP JUMPDEST DUP2 EQ PUSH2 0x17E2 JUMPI PUSH0 DUP1 REVERT JUMPDEST POP JUMP JUMPDEST PUSH0 DUP2 CALLDATALOAD SWAP1 POP PUSH2 0x17F3 DUP2 PUSH2 0x17CF JUMP JUMPDEST SWAP3 SWAP2 POP POP JUMP JUMPDEST PUSH0 DUP2 SWAP1 POP SWAP2 SWAP1 POP JUMP JUMPDEST PUSH2 0x180B DUP2 PUSH2 0x17F9 JUMP JUMPDEST DUP2 EQ PUSH2 0x1815 JUMPI PUSH0 DUP1 REVERT JUMPDEST POP JUMP JUMPDEST PUSH0 DUP2 CALLDATALOAD SWAP1 POP PUSH2 0x1826 DUP2 PUSH2 0x1802 JUMP JUMPDEST SWAP3 SWAP2 POP POP JUMP JUMPDEST PUSH0 DUP1 PUSH1 0x40 DUP4 DUP6 SUB SLT ISZERO PUSH2 0x1842 JUMPI PUSH2 0x1841 PUSH2 0x179B JUMP JUMPDEST JUMPDEST PUSH0 PUSH2 0x184F DUP6 DUP3 DUP7 ADD PUSH2 0x17E5 JUMP JUMPDEST SWAP3 POP POP PUSH1 0x20 PUSH2 0x1860 DUP6 DUP3 DUP7 ADD PUSH2 0x1818 JUMP JUMPDEST SWAP2 POP POP SWAP3 POP SWAP3 SWAP1 POP JUMP JUMPDEST PUSH2 0x1873 DUP2 PUSH2 0x17F9 JUMP JUMPDEST DUP3 MSTORE POP POP JUMP JUMPDEST PUSH0 PUSH1 0x20 DUP3 ADD SWAP1 POP PUSH2 0x188C PUSH0 DUP4 ADD DUP5 PUSH2 0x186A JUMP JUMPDEST SWAP3 SWAP2 POP POP JUMP JUMPDEST PUSH2 0x189B DUP2 PUSH2 0x17BE JUMP JUMPDEST DUP3 MSTORE POP POP JUMP JUMPDEST PUSH0 PUSH1 0x80 DUP3 ADD SWAP1 POP PUSH2 0x18B4 PUSH0 DUP4 ADD DUP8 PUSH2 0x1892 JUMP JUMPDEST PUSH2 0x18C1 PUSH1 0x20 DUP4 ADD DUP7 PUSH2 0x186A JUMP JUMPDEST PUSH2 0x18CE PUSH1 0x40 DUP4 ADD DUP6 PUSH2 0x1892 JUMP JUMPDEST PUSH2 0x18DB PUSH1 0x60 DUP4 ADD DUP5 PUSH2 0x186A JUMP JUMPDEST SWAP6 SWAP5 POP POP POP POP POP JUMP JUMPDEST PUSH0 PUSH1 0x20 DUP3 ADD SWAP1 POP PUSH2 0x18F7 PUSH0 DUP4 ADD DUP5 PUSH2 0x1892 JUMP JUMPDEST SWAP3 SWAP2 POP POP JUMP JUMPDEST PUSH0 DUP1 PUSH0 PUSH1 0x60 DUP5 DUP7 SUB SLT ISZERO PUSH2 0x1914 JUMPI PUSH2 0x1913 PUSH2 0x179B JUMP JUMPDEST JUMPDEST PUSH0 PUSH2 0x1921 DUP7 DUP3 DUP8 ADD PUSH2 0x17E5 JUMP JUMPDEST SWAP4 POP POP PUSH1 0x20 PUSH2 0x1932 DUP7 DUP3 DUP8 ADD PUSH2 0x1818 JUMP JUMPDEST SWAP3 POP POP PUSH1 0x40 PUSH2 0x1943 DUP7 DUP3 DUP8 ADD PUSH2 0x1818 JUMP JUMPDEST SWAP2 POP POP SWAP3 POP SWAP3 POP SWAP3 JUMP JUMPDEST PUSH0 DUP2 SWAP1 POP SWAP2 SWAP1 POP JUMP JUMPDEST PUSH0 PUSH2 0x1970 PUSH2 0x196B PUSH2 0x1966 DUP5 PUSH2 0x179F JUMP JUMPDEST PUSH2 0x194D JUMP JUMPDEST PUSH2 0x179F JUMP JUMPDEST SWAP1 POP SWAP2 SWAP1 POP JUMP JUMPDEST PUSH0 PUSH2 0x1981 DUP3 PUSH2 0x1956 JUMP JUMPDEST SWAP1 POP SWAP2 SWAP1 POP JUMP JUMPDEST PUSH0 PUSH2 0x1992 DUP3 PUSH2 0x1977 JUMP JUMPDEST SWAP1 POP SWAP2 SWAP1 POP JUMP JUMPDEST PUSH2 0x19A2 DUP2 PUSH2 0x1988 JUMP JUMPDEST DUP3 MSTORE POP POP JUMP JUMPDEST PUSH0 PUSH1 0x20 DUP3 ADD SWAP1 POP PUSH2 0x19BB PUSH0 DUP4 ADD DUP5 PUSH2 0x1999 JUMP JUMPDEST SWAP3 SWAP2 POP POP JUMP JUMPDEST PUSH0 PUSH1 0x20 DUP3 DUP5 SUB SLT ISZERO PUSH2 0x19D6 JUMPI PUSH2 0x19D5 PUSH2 0x179B JUMP JUMPDEST JUMPDEST PUSH0 PUSH2 0x19E3 DUP5 DUP3 DUP6 ADD PUSH2 0x17E5 JUMP JUMPDEST SWAP2 POP POP SWAP3 SWAP2 POP POP JUMP JUMPDEST PUSH0 DUP3 DUP3 MSTORE PUSH1 0x20 DUP3 ADD SWAP1 POP SWAP3 SWAP2 POP POP JUMP JUMPDEST PUSH32 0x636F6E74726163742061646472657373206973207A65726F0000000000000000 PUSH0 DUP3 ADD MSTORE POP JUMP JUMPDEST PUSH0 PUSH2 0x1A30 PUSH1 0x18 DUP4 PUSH2 0x19EC JUMP JUMPDEST SWAP2 POP PUSH2 0x1A3B DUP3 PUSH2 0x19FC JUMP JUMPDEST PUSH1 0x20 DUP3 ADD SWAP1 POP SWAP2 SWAP1 POP JUMP JUMPDEST PUSH0 PUSH1 0x20 DUP3 ADD SWAP1 POP DUP2 DUP2 SUB PUSH0 DUP4 ADD MSTORE PUSH2 0x1A5D DUP2 PUSH2 0x1A24 JUMP JUMPDEST SWAP1 POP SWAP2 SWAP1 POP JUMP JUMPDEST PUSH32 0x746F6B656E20686173206E6F74206C6973746564000000000000000000000000 PUSH0 DUP3 ADD MSTORE POP JUMP JUMPDEST PUSH0 PUSH2 0x1A98 PUSH1 0x14 DUP4 PUSH2 0x19EC JUMP JUMPDEST SWAP2 POP PUSH2 0x1AA3 DUP3 PUSH2 0x1A64 JUMP JUMPDEST PUSH1 0x20 DUP3 ADD SWAP1 POP SWAP2 SWAP1 POP JUMP JUMPDEST PUSH0 PUSH1 0x20 DUP3 ADD SWAP1 POP DUP2 DUP2 SUB PUSH0 DUP4 ADD MSTORE PUSH2 0x1AC5 DUP2 PUSH2 0x1A8C JUMP JUMPDEST SWAP1 POP SWAP2 SWAP1 POP JUMP JUMPDEST PUSH32 0x6D73672073656E646572206973206E6F742073656C6C65720000000000000000 PUSH0 DUP3 ADD MSTORE POP JUMP JUMPDEST PUSH0 PUSH2 0x1B00 PUSH1 0x18 DUP4 PUSH2 0x19EC JUMP JUMPDEST SWAP2 POP PUSH2 0x1B0B DUP3 PUSH2 0x1ACC JUMP JUMPDEST PUSH1 0x20 DUP3 ADD SWAP1 POP SWAP2 SWAP1 POP JUMP JUMPDEST PUSH0 PUSH1 0x20 DUP3 ADD SWAP1 POP DUP2 DUP2 SUB PUSH0 DUP4 ADD MSTORE PUSH2 0x1B2D DUP2 PUSH2 0x1AF4 JUMP JUMPDEST SWAP1 POP SWAP2 SWAP1 POP JUMP JUMPDEST PUSH32 0x4E487B7100000000000000000000000000000000000000000000000000000000 PUSH0 MSTORE PUSH1 0x32 PUSH1 0x4 MSTORE PUSH1 0x24 PUSH0 REVERT JUMPDEST PUSH0 PUSH1 0x40 DUP3 ADD SWAP1 POP PUSH2 0x1B74 PUSH0 DUP4 ADD DUP6 PUSH2 0x186A JUMP JUMPDEST PUSH2 0x1B81 PUSH1 0x20 DUP4 ADD DUP5 PUSH2 0x186A JUMP JUMPDEST SWAP4 SWAP3 POP POP POP JUMP JUMPDEST PUSH0 DUP2 MLOAD SWAP1 POP PUSH2 0x1B96 DUP2 PUSH2 0x17CF JUMP JUMPDEST SWAP3 SWAP2 POP POP JUMP JUMPDEST PUSH0 PUSH1 0x20 DUP3 DUP5 SUB SLT ISZERO PUSH2 0x1BB1 JUMPI PUSH2 0x1BB0 PUSH2 0x179B JUMP JUMPDEST JUMPDEST PUSH0 PUSH2 0x1BBE DUP5 DUP3 DUP6 ADD PUSH2 0x1B88 JUMP JUMPDEST SWAP2 POP POP SWAP3 SWAP2 POP POP JUMP JUMPDEST PUSH32 0x6D73672073656E646572206973206E6F7420746F6B656E2773206F776E657200 PUSH0 DUP3 ADD MSTORE POP JUMP JUMPDEST PUSH0 PUSH2 0x1BFB PUSH1 0x1F DUP4 PUSH2 0x19EC JUMP JUMPDEST SWAP2 POP PUSH2 0x1C06 DUP3 PUSH2 0x1BC7 JUMP JUMPDEST PUSH1 0x20 DUP3 ADD SWAP1 POP SWAP2 SWAP1 POP JUMP JUMPDEST PUSH0 PUSH1 0x20 DUP3 ADD SWAP1 POP DUP2 DUP2 SUB PUSH0 DUP4 ADD MSTORE PUSH2 0x1C28 DUP2 PUSH2 0x1BEF JUMP JUMPDEST SWAP1 POP SWAP2 SWAP1 POP JUMP JUMPDEST PUSH0 PUSH1 0x40 DUP3 ADD SWAP1 POP PUSH2 0x1C42 PUSH0 DUP4 ADD DUP6 PUSH2 0x1892 JUMP JUMPDEST PUSH2 0x1C4F PUSH1 0x20 DUP4 ADD DUP5 PUSH2 0x1892 JUMP JUMPDEST SWAP4 SWAP3 POP POP POP JUMP JUMPDEST PUSH0 DUP2 ISZERO ISZERO SWAP1 POP SWAP2 SWAP1 POP JUMP JUMPDEST PUSH2 0x1C6A DUP2 PUSH2 0x1C56 JUMP JUMPDEST DUP2 EQ PUSH2 0x1C74 JUMPI PUSH0 DUP1 REVERT JUMPDEST POP JUMP JUMPDEST PUSH0 DUP2 MLOAD SWAP1 POP PUSH2 0x1C85 DUP2 PUSH2 0x1C61 JUMP JUMPDEST SWAP3 SWAP2 POP POP JUMP JUMPDEST PUSH0 PUSH1 0x20 DUP3 DUP5 SUB SLT ISZERO PUSH2 0x1CA0 JUMPI PUSH2 0x1C9F PUSH2 0x179B JUMP JUMPDEST JUMPDEST PUSH0 PUSH2 0x1CAD DUP5 DUP3 DUP6 ADD PUSH2 0x1C77 JUMP JUMPDEST SWAP2 POP POP SWAP3 SWAP2 POP POP JUMP JUMPDEST PUSH32 0x6D73672073656E6465722068617665206E6F742063616C6C2073657441707072 PUSH0 DUP3 ADD MSTORE PUSH32 0x6F766564466F72416C6C20666F72206D61726B65740000000000000000000000 PUSH1 0x20 DUP3 ADD MSTORE POP JUMP JUMPDEST PUSH0 PUSH2 0x1D10 PUSH1 0x35 DUP4 PUSH2 0x19EC JUMP JUMPDEST SWAP2 POP PUSH2 0x1D1B DUP3 PUSH2 0x1CB6 JUMP JUMPDEST PUSH1 0x40 DUP3 ADD SWAP1 POP SWAP2 SWAP1 POP JUMP JUMPDEST PUSH0 PUSH1 0x20 DUP3 ADD SWAP1 POP DUP2 DUP2 SUB PUSH0 DUP4 ADD MSTORE PUSH2 0x1D3D DUP2 PUSH2 0x1D04 JUMP JUMPDEST SWAP1 POP SWAP2 SWAP1 POP JUMP JUMPDEST PUSH32 0x4E487B7100000000000000000000000000000000000000000000000000000000 PUSH0 MSTORE PUSH1 0x11 PUSH1 0x4 MSTORE PUSH1 0x24 PUSH0 REVERT JUMPDEST PUSH0 PUSH2 0x1D7B DUP3 PUSH2 0x17F9 JUMP JUMPDEST SWAP2 POP PUSH2 0x1D86 DUP4 PUSH2 0x17F9 JUMP JUMPDEST SWAP3 POP DUP3 DUP3 SUB SWAP1 POP DUP2 DUP2 GT ISZERO PUSH2 0x1D9E JUMPI PUSH2 0x1D9D PUSH2 0x1D44 JUMP JUMPDEST JUMPDEST SWAP3 SWAP2 POP POP JUMP JUMPDEST PUSH32 0x62757965722069732073656C6C65720000000000000000000000000000000000 PUSH0 DUP3 ADD MSTORE POP JUMP JUMPDEST PUSH0 PUSH2 0x1DD8 PUSH1 0xF DUP4 PUSH2 0x19EC JUMP JUMPDEST SWAP2 POP PUSH2 0x1DE3 DUP3 PUSH2 0x1DA4 JUMP JUMPDEST PUSH1 0x20 DUP3 ADD SWAP1 POP SWAP2 SWAP1 POP JUMP JUMPDEST PUSH0 PUSH1 0x20 DUP3 ADD SWAP1 POP DUP2 DUP2 SUB PUSH0 DUP4 ADD MSTORE PUSH2 0x1E05 DUP2 PUSH2 0x1DCC JUMP JUMPDEST SWAP1 POP SWAP2 SWAP1 POP JUMP JUMPDEST PUSH0 PUSH1 0x60 DUP3 ADD SWAP1 POP PUSH2 0x1E1F PUSH0 DUP4 ADD DUP7 PUSH2 0x1892 JUMP JUMPDEST PUSH2 0x1E2C PUSH1 0x20 DUP4 ADD DUP6 PUSH2 0x1892 JUMP JUMPDEST PUSH2 0x1E39 PUSH1 0x40 DUP4 ADD DUP5 PUSH2 0x186A JUMP JUMPDEST SWAP5 SWAP4 POP POP POP POP JUMP JUMPDEST PUSH32 0x7472616E73666572206572633230206661696C00000000000000000000000000 PUSH0 DUP3 ADD MSTORE POP JUMP JUMPDEST PUSH0 PUSH2 0x1E75 PUSH1 0x13 DUP4 PUSH2 0x19EC JUMP JUMPDEST SWAP2 POP PUSH2 0x1E80 DUP3 PUSH2 0x1E41 JUMP JUMPDEST PUSH1 0x20 DUP3 ADD SWAP1 POP SWAP2 SWAP1 POP JUMP JUMPDEST PUSH0 PUSH1 0x20 DUP3 ADD SWAP1 POP DUP2 DUP2 SUB PUSH0 DUP4 ADD MSTORE PUSH2 0x1EA2 DUP2 PUSH2 0x1E69 JUMP JUMPDEST SWAP1 POP SWAP2 SWAP1 POP JUMP JUMPDEST PUSH32 0x4E487B7100000000000000000000000000000000000000000000000000000000 PUSH0 MSTORE PUSH1 0x31 PUSH1 0x4 MSTORE PUSH1 0x24 PUSH0 REVERT INVALID LOG2 PUSH5 0x6970667358 0x22 SLT KECCAK256 PUSH27 0x2B3D5F659DB83B28EDC571F7286434D958679A0D232051D8FE93D8 0xF7 PUSH3 0x321264 PUSH20 0x6F6C634300081A00330000000000000000000000 "
				},
				"gasEstimates": {
					"creation": {
						"codeDepositCost": "1589600",
						"executionCost": "infinite",
						"totalCost": "infinite"
					},
					"external": {
						"buy(address,uint256)": "infinite",
						"changePrice(address,uint256,uint256)": "infinite",
						"contractOrders(address,uint256)": "infinite",
						"erc20()": "infinite",
						"getOrderLength(address)": "2925",
						"listNFT(address,uint256,uint256)": "infinite",
						"marketOwner()": "2550",
						"orderOfTokenId(address,uint256)": "infinite",
						"tokenIdToIndex(address,uint256)": "infinite",
						"unlistNFT(address,uint256)": "infinite"
					},
					"internal": {
						"_removeOrder(address,uint256)": "infinite"
					}
				},
				"methodIdentifiers": {
					"buy(address,uint256)": "cce7ec13",
					"changePrice(address,uint256,uint256)": "741cbae4",
					"contractOrders(address,uint256)": "4e6fe8d8",
					"erc20()": "785e9e86",
					"getOrderLength(address)": "de6b8a2e",
					"listNFT(address,uint256,uint256)": "ad05f1b4",
					"marketOwner()": "47d90b5c",
					"orderOfTokenId(address,uint256)": "29c29e9d",
					"tokenIdToIndex(address,uint256)": "2917c145",
					"unlistNFT(address,uint256)": "7fc27efd"
				}
			},
			"storageLayout": {
				"storage": [
					{
						"astId": 220,
						"contract": "contracts/nftmarket.sol:Market",
						"label": "marketOwner",
						"offset": 0,
						"slot": "0",
						"type": "t_address"
					},
					{
						"astId": 223,
						"contract": "contracts/nftmarket.sol:Market",
						"label": "erc20",
						"offset": 0,
						"slot": "1",
						"type": "t_contract(IERC20)85"
					},
					{
						"astId": 238,
						"contract": "contracts/nftmarket.sol:Market",
						"label": "contractOrders",
						"offset": 0,
						"slot": "2",
						"type": "t_mapping(t_address,t_array(t_struct(Order)232_storage)dyn_storage)"
					},
					{
						"astId": 245,
						"contract": "contracts/nftmarket.sol:Market",
						"label": "orderOfTokenId",
						"offset": 0,
						"slot": "3",
						"type": "t_mapping(t_address,t_mapping(t_uint256,t_struct(Order)232_storage))"
					},
					{
						"astId": 251,
						"contract": "contracts/nftmarket.sol:Market",
						"label": "tokenIdToIndex",
						"offset": 0,
						"slot": "4",
						"type": "t_mapping(t_address,t_mapping(t_uint256,t_uint256))"
					}
				],
				"types": {
					"t_address": {
						"encoding": "inplace",
						"label": "address",
						"numberOfBytes": "20"
					},
					"t_array(t_struct(Order)232_storage)dyn_storage": {
						"base": "t_struct(Order)232_storage",
						"encoding": "dynamic_array",
						"label": "struct Market.Order[]",
						"numberOfBytes": "32"
					},
					"t_contract(IERC20)85": {
						"encoding": "inplace",
						"label": "contract IERC20",
						"numberOfBytes": "20"
					},
					"t_mapping(t_address,t_array(t_struct(Order)232_storage)dyn_storage)": {
						"encoding": "mapping",
						"key": "t_address",
						"label": "mapping(address => struct Market.Order[])",
						"numberOfBytes": "32",
						"value": "t_array(t_struct(Order)232_storage)dyn_storage"
					},
					"t_mapping(t_address,t_mapping(t_uint256,t_struct(Order)232_storage))": {
						"encoding": "mapping",
						"key": "t_address",
						"label": "mapping(address => mapping(uint256 => struct Market.Order))",
						"numberOfBytes": "32",
						"value": "t_mapping(t_uint256,t_struct(Order)232_storage)"
					},
					"t_mapping(t_address,t_mapping(t_uint256,t_uint256))": {
						"encoding": "mapping",
						"key": "t_address",
						"label": "mapping(address => mapping(uint256 => uint256))",
						"numberOfBytes": "32",
						"value": "t_mapping(t_uint256,t_uint256)"
					},
					"t_mapping(t_uint256,t_struct(Order)232_storage)": {
						"encoding": "mapping",
						"key": "t_uint256",
						"label": "mapping(uint256 => struct Market.Order)",
						"numberOfBytes": "32",
						"value": "t_struct(Order)232_storage"
					},
					"t_mapping(t_uint256,t_uint256)": {
						"encoding": "mapping",
						"key": "t_uint256",
						"label": "mapping(uint256 => uint256)",
						"numberOfBytes": "32",
						"value": "t_uint256"
					},
					"t_struct(Order)232_storage": {
						"encoding": "inplace",
						"label": "struct Market.Order",
						"members": [
							{
								"astId": 225,
								"contract": "contracts/nftmarket.sol:Market",
								"label": "contractAddress",
								"offset": 0,
								"slot": "0",
								"type": "t_address"
							},
							{
								"astId": 227,
								"contract": "contracts/nftmarket.sol:Market",
								"label": "tokenId",
								"offset": 0,
								"slot": "1",
								"type": "t_uint256"
							},
							{
								"astId": 229,
								"contract": "contracts/nftmarket.sol:Market",
								"label": "seller",
								"offset": 0,
								"slot": "2",
								"type": "t_address"
							},
							{
								"astId": 231,
								"contract": "contracts/nftmarket.sol:Market",
								"label": "price",
								"offset": 0,
								"slot": "3",
								"type": "t_uint256"
							}
						],
						"numberOfBytes": "128"
					},
					"t_uint256": {
						"encoding": "inplace",
						"label": "uint256",
						"numberOfBytes": "32"
					}
				}
			},
			"userdoc": {
				"kind": "user",
				"methods": {},
				"version": 1
			}
		}
	}
}